{
	"data": {
		"bytecode": {
			"linkReferences": {},
			"object": "60c06040526b02e87669c308736a0400000060a052600060035568015af1d78b58c4000060045534801561003257600080fd5b5060405161141b38038061141b833981016040819052610051916100bb565b61005a3361006b565b6001600160a01b03166080526100eb565b600080546001600160a01b038381166001600160a01b0319831681178455604051919092169283917f8be0079c531659141344cd1fd0a4f28419497f9722a3daafe3b4186f6b6457e09190a35050565b6000602082840312156100cd57600080fd5b81516001600160a01b03811681146100e457600080fd5b9392505050565b60805160a0516112fd61011e6000396000818161016d01526107100152600081816101b4015261077a01526112fd6000f3fe6080604052600436106101565760003560e01c8063715018a6116100bc578063715018a61461034a57806378e979251461035f5780638ab1d681146103755780638c10671c146103955780638da5cb5b146103b55780639b19251a146103ca578063b03f642a1461040a578063c828371e14610440578063d0febe4c14610455578063e43252d71461045d578063e632c2f31461047d578063f2fde38b14610493578063f34acb7c146104b3578063fb1442e8146102f257600080fd5b80620e7fa81461015b578063021400e9146101a257806304c98b2b146101ee5780631fe9eabc1461020557806324600fc31461022557806327506f531461023a5780633197cbb61461025c578063354a54b41461027257806335c1d349146102a8578063439f5ac2146102c85780634e71d92d146102dd57806357e5eea5146102f25780635aa68ac0146103075780636081f5cb1461032a575b600080fd5b34801561016757600080fd5b5061018f7f000000000000000000000000000000000000000000000000000000000000000081565b6040519081526020015b60405180910390f35b3480156101ae57600080fd5b506101d67f000000000000000000000000000000000000000000000000000000000000000081565b6040516001600160a01b039091168152602001610199565b3480156101fa57600080fd5b506102036104c9565b005b34801561021157600080fd5b5061020361022036600461102c565b6104e8565b34801561023157600080fd5b506102036104f5565b34801561024657600080fd5b5061024f61058b565b6040516101999190611045565b34801561026857600080fd5b5061018f60025481565b34801561027e57600080fd5b5061018f61028d3660046110bc565b6001600160a01b031660009081526007602052604090205490565b3480156102b457600080fd5b506101d66102c336600461102c565b610627565b3480156102d457600080fd5b5060025461018f565b3480156102e957600080fd5b50610203610651565b3480156102fe57600080fd5b5061018f6107e7565b34801561031357600080fd5b5061031c61084a565b6040516101999291906110ec565b34801561033657600080fd5b5061018f61034536600461102c565b610981565b34801561035657600080fd5b506102036109ff565b34801561036b57600080fd5b5061018f60015481565b34801561038157600080fd5b506102036103903660046110bc565b610a13565b3480156103a157600080fd5b506102036103b0366004611170565b610a3c565b3480156103c157600080fd5b506101d6610abb565b3480156103d657600080fd5b506103fa6103e53660046110bc565b60086020526000908152604090205460ff1681565b6040519015158152602001610199565b34801561041657600080fd5b5061018f6104253660046110bc565b6001600160a01b031660009081526006602052604090205490565b34801561044c57600080fd5b5060015461018f565b610203610aca565b34801561046957600080fd5b506102036104783660046110bc565b610ed8565b34801561048957600080fd5b5061018f60035481565b34801561049f57600080fd5b506102036104ae3660046110bc565b610f04565b3480156104bf57600080fd5b5061018f60045481565b6104d1610f7d565b4260018190556104e3906102586111fb565b600255565b6104f0610f7d565b600455565b6104fd610f7d565b47806105475760405162461bcd60e51b81526020600482015260146024820152734e6f2066756e647320746f20776974686472617760601b60448201526064015b60405180910390fd5b61054f610abb565b6001600160a01b03166108fc829081150290604051600060405180830381858888f19350505050158015610587573d6000803e3d6000fd5b5050565b6060610595610f7d565b6009805480602002602001604051908101604052809291908181526020016000905b8282101561061e5760008481526020908190206040805160a0810182526005860290920180546001600160a01b03168352600180820154848601526002820154928401929092526003810154606084015260040154608083015290835290920191016105b7565b50505050905090565b600a818154811061063757600080fd5b6000918252602090912001546001600160a01b0316905081565b60025461066090610e106111fb565b421161069e5760405162461bcd60e51b815260206004820152600d60248201526c4e6f7420636c61696d61626c6560981b604482015260640161053e565b336000908152600660205260409020546106f05760405162461bcd60e51b81526020600482015260136024820152724e6f20616d6f756e7420636c61696d61626c6560681b604482015260640161053e565b33600090815260066020526040812054670de0b6b3a764000090610735907f000000000000000000000000000000000000000000000000000000000000000090611214565b61073f919061122b565b33600081815260066020526040808220919091555163a9059cbb60e01b81526004810191909152602481018290529091506001600160a01b037f0000000000000000000000000000000000000000000000000000000000000000169063a9059cbb906044016020604051808303816000875af11580156107c3573d6000803e3d6000fd5b505050506040513d601f19601f82011682018060405250810190610587919061124d565b60006002544211156107f95750600090565b600060015442610809919061126f565b9050600060015460025461081d919061126f565b905060008161082d84601e611214565b610837919061122b565b61084290601e61126f565b949350505050565b606080610855610f7d565b600a5460008167ffffffffffffffff81111561087357610873611282565b60405190808252806020026020018201604052801561089c578160200160208202803683370190505b50905060005b828110156109175760066000600a83815481106108c1576108c1611298565b60009182526020808320909101546001600160a01b0316835282019290925260400190205482518390839081106108fa576108fa611298565b60209081029190910101528061090f816112ae565b9150506108a2565b50600a818180548060200260200160405190810160405280929190818152602001828054801561097057602002820191906000526020600020905b81546001600160a01b03168152600190910190602001808311610952575b505050505091509350935050509091565b600060025442111561099557506000919050565b6000600154426109a5919061126f565b905060006001546002546109b9919061126f565b90506000816109c984601e611214565b6109d3919061122b565b6109de90601e61126f565b905060646109ec8287611214565b6109f6919061122b565b95945050505050565b610a07610f7d565b610a116000610fdc565b565b610a1b610f7d565b6001600160a01b03166000908152600860205260409020805460ff19169055565b610a44610f7d565b60005b81811015610ab657600160086000858585818110610a6757610a67611298565b9050602002016020810190610a7c91906110bc565b6001600160a01b031681526020810191909152604001600020805460ff191691151591909117905580610aae816112ae565b915050610a47565b505050565b6000546001600160a01b031690565b3360008181526008602052604090205460ff16610b295760405162461bcd60e51b815260206004820152601c60248201527f42656e6566696369617279206e6f742077686974656c69737465642e00000000604482015260640161053e565b6001544210158015610b3d57506002544211155b8015610b4b57506000600154115b8015610b5957506000600254115b610b9b5760405162461bcd60e51b8152602060048201526013602482015272283932b9b0b6329034b9903737ba1037b832b760691b604482015260640161053e565b66038d7ea4c680003410158015610bba57506703782dace9d900003411155b610bfb5760405162461bcd60e51b8152602060048201526012602482015271125b9d985b1a590811551208185b5bdd5b9d60721b604482015260640161053e565b336000908152600760205260409020546703782dace9d9000090610c209034906111fb565b1115610c6e5760405162461bcd60e51b815260206004820152601e60248201527f596f752063616e6e6f7420627579206d6f7265207468616e2035206574680000604482015260640161053e565b60045434600354610c7f91906111fb565b1115610cc15760405162461bcd60e51b8152602060048201526011602482015270105b5bdd5b9d081bdd995c881b1a5b5a5d607a1b604482015260640161053e565b3360009081526005602052604090205460ff16610d3557336000818152600560205260408120805460ff19166001908117909155600a805491820181559091527fc65a7bb8d6351c1cf70c95a316cc6a92839c986682d98bc35f958f4883f9d2a80180546001600160a01b03191690911790555b346000610d4182610981565b90506000610d4d6107e7565b9050610d5982846111fb565b92508260036000828254610d6d91906111fb565b90915550503360009081526007602052604081208054349290610d919084906111fb565b90915550503360009081526006602052604081208054859290610db59084906111fb565b90915550506040805160a08101825233815234602082019081524292820192835260608201938452608082019485526009805460018101825560009190915291517f6e1540171b6c0c960b71a7020d9f60077f6af931a8bbf590da0223dacf75c7af600590930292830180546001600160a01b0319166001600160a01b03909216919091179055517f6e1540171b6c0c960b71a7020d9f60077f6af931a8bbf590da0223dacf75c7b082015590517f6e1540171b6c0c960b71a7020d9f60077f6af931a8bbf590da0223dacf75c7b182015590517f6e1540171b6c0c960b71a7020d9f60077f6af931a8bbf590da0223dacf75c7b282015590517f6e1540171b6c0c960b71a7020d9f60077f6af931a8bbf590da0223dacf75c7b3909101555050565b610ee0610f7d565b6001600160a01b03166000908152600860205260409020805460ff19166001179055565b610f0c610f7d565b6001600160a01b038116610f715760405162461bcd60e51b815260206004820152602660248201527f4f776e61626c653a206e6577206f776e657220697320746865207a65726f206160448201526564647265737360d01b606482015260840161053e565b610f7a81610fdc565b50565b33610f86610abb565b6001600160a01b031614610a115760405162461bcd60e51b815260206004820181905260248201527f4f776e61626c653a2063616c6c6572206973206e6f7420746865206f776e6572604482015260640161053e565b600080546001600160a01b038381166001600160a01b0319831681178455604051919092169283917f8be0079c531659141344cd1fd0a4f28419497f9722a3daafe3b4186f6b6457e09190a35050565b60006020828403121561103e57600080fd5b5035919050565b602080825282518282018190526000919060409081850190868401855b828110156110af57815180516001600160a01b0316855286810151878601528581015186860152606080820151908601526080908101519085015260a09093019290850190600101611062565b5091979650505050505050565b6000602082840312156110ce57600080fd5b81356001600160a01b03811681146110e557600080fd5b9392505050565b604080825283519082018190526000906020906060840190828701845b8281101561112e5781516001600160a01b031684529284019290840190600101611109565b5050508381038285015284518082528583019183019060005b8181101561116357835183529284019291840191600101611147565b5090979650505050505050565b6000806020838503121561118357600080fd5b823567ffffffffffffffff8082111561119b57600080fd5b818501915085601f8301126111af57600080fd5b8135818111156111be57600080fd5b8660208260051b85010111156111d357600080fd5b60209290920196919550909350505050565b634e487b7160e01b600052601160045260246000fd5b8082018082111561120e5761120e6111e5565b92915050565b808202811582820484141761120e5761120e6111e5565b60008261124857634e487b7160e01b600052601260045260246000fd5b500490565b60006020828403121561125f57600080fd5b815180151581146110e557600080fd5b8181038181111561120e5761120e6111e5565b634e487b7160e01b600052604160045260246000fd5b634e487b7160e01b600052603260045260246000fd5b6000600182016112c0576112c06111e5565b506001019056fea26469706673582212206d7db6f7cb260839c5b1929ee51d148be6aa122cf98d84d994635dfbc238726d64736f6c63430008130033",
			"opcodes": "PUSH1 0xC0 PUSH1 0x40 MSTORE PUSH12 0x2E87669C308736A04000000 PUSH1 0xA0 MSTORE PUSH1 0x0 PUSH1 0x3 SSTORE PUSH9 0x15AF1D78B58C40000 PUSH1 0x4 SSTORE CALLVALUE DUP1 ISZERO PUSH2 0x32 JUMPI PUSH1 0x0 DUP1 REVERT JUMPDEST POP PUSH1 0x40 MLOAD PUSH2 0x141B CODESIZE SUB DUP1 PUSH2 0x141B DUP4 CODECOPY DUP2 ADD PUSH1 0x40 DUP2 SWAP1 MSTORE PUSH2 0x51 SWAP2 PUSH2 0xBB JUMP JUMPDEST PUSH2 0x5A CALLER PUSH2 0x6B JUMP JUMPDEST PUSH1 0x1 PUSH1 0x1 PUSH1 0xA0 SHL SUB AND PUSH1 0x80 MSTORE PUSH2 0xEB JUMP JUMPDEST PUSH1 0x0 DUP1 SLOAD PUSH1 0x1 PUSH1 0x1 PUSH1 0xA0 SHL SUB DUP4 DUP2 AND PUSH1 0x1 PUSH1 0x1 PUSH1 0xA0 SHL SUB NOT DUP4 AND DUP2 OR DUP5 SSTORE PUSH1 0x40 MLOAD SWAP2 SWAP1 SWAP3 AND SWAP3 DUP4 SWAP2 PUSH32 0x8BE0079C531659141344CD1FD0A4F28419497F9722A3DAAFE3B4186F6B6457E0 SWAP2 SWAP1 LOG3 POP POP JUMP JUMPDEST PUSH1 0x0 PUSH1 0x20 DUP3 DUP5 SUB SLT ISZERO PUSH2 0xCD JUMPI PUSH1 0x0 DUP1 REVERT JUMPDEST DUP2 MLOAD PUSH1 0x1 PUSH1 0x1 PUSH1 0xA0 SHL SUB DUP2 AND DUP2 EQ PUSH2 0xE4 JUMPI PUSH1 0x0 DUP1 REVERT JUMPDEST SWAP4 SWAP3 POP POP POP JUMP JUMPDEST PUSH1 0x80 MLOAD PUSH1 0xA0 MLOAD PUSH2 0x12FD PUSH2 0x11E PUSH1 0x0 CODECOPY PUSH1 0x0 DUP2 DUP2 PUSH2 0x16D ADD MSTORE PUSH2 0x710 ADD MSTORE PUSH1 0x0 DUP2 DUP2 PUSH2 0x1B4 ADD MSTORE PUSH2 0x77A ADD MSTORE PUSH2 0x12FD PUSH1 0x0 RETURN INVALID PUSH1 0x80 PUSH1 0x40 MSTORE PUSH1 0x4 CALLDATASIZE LT PUSH2 0x156 JUMPI PUSH1 0x0 CALLDATALOAD PUSH1 0xE0 SHR DUP1 PUSH4 0x715018A6 GT PUSH2 0xBC JUMPI DUP1 PUSH4 0x715018A6 EQ PUSH2 0x34A JUMPI DUP1 PUSH4 0x78E97925 EQ PUSH2 0x35F JUMPI DUP1 PUSH4 0x8AB1D681 EQ PUSH2 0x375 JUMPI DUP1 PUSH4 0x8C10671C EQ PUSH2 0x395 JUMPI DUP1 PUSH4 0x8DA5CB5B EQ PUSH2 0x3B5 JUMPI DUP1 PUSH4 0x9B19251A EQ PUSH2 0x3CA JUMPI DUP1 PUSH4 0xB03F642A EQ PUSH2 0x40A JUMPI DUP1 PUSH4 0xC828371E EQ PUSH2 0x440 JUMPI DUP1 PUSH4 0xD0FEBE4C EQ PUSH2 0x455 JUMPI DUP1 PUSH4 0xE43252D7 EQ PUSH2 0x45D JUMPI DUP1 PUSH4 0xE632C2F3 EQ PUSH2 0x47D JUMPI DUP1 PUSH4 0xF2FDE38B EQ PUSH2 0x493 JUMPI DUP1 PUSH4 0xF34ACB7C EQ PUSH2 0x4B3 JUMPI DUP1 PUSH4 0xFB1442E8 EQ PUSH2 0x2F2 JUMPI PUSH1 0x0 DUP1 REVERT JUMPDEST DUP1 PUSH3 0xE7FA8 EQ PUSH2 0x15B JUMPI DUP1 PUSH4 0x21400E9 EQ PUSH2 0x1A2 JUMPI DUP1 PUSH4 0x4C98B2B EQ PUSH2 0x1EE JUMPI DUP1 PUSH4 0x1FE9EABC EQ PUSH2 0x205 JUMPI DUP1 PUSH4 0x24600FC3 EQ PUSH2 0x225 JUMPI DUP1 PUSH4 0x27506F53 EQ PUSH2 0x23A JUMPI DUP1 PUSH4 0x3197CBB6 EQ PUSH2 0x25C JUMPI DUP1 PUSH4 0x354A54B4 EQ PUSH2 0x272 JUMPI DUP1 PUSH4 0x35C1D349 EQ PUSH2 0x2A8 JUMPI DUP1 PUSH4 0x439F5AC2 EQ PUSH2 0x2C8 JUMPI DUP1 PUSH4 0x4E71D92D EQ PUSH2 0x2DD JUMPI DUP1 PUSH4 0x57E5EEA5 EQ PUSH2 0x2F2 JUMPI DUP1 PUSH4 0x5AA68AC0 EQ PUSH2 0x307 JUMPI DUP1 PUSH4 0x6081F5CB EQ PUSH2 0x32A JUMPI JUMPDEST PUSH1 0x0 DUP1 REVERT JUMPDEST CALLVALUE DUP1 ISZERO PUSH2 0x167 JUMPI PUSH1 0x0 DUP1 REVERT JUMPDEST POP PUSH2 0x18F PUSH32 0x0 DUP2 JUMP JUMPDEST PUSH1 0x40 MLOAD SWAP1 DUP2 MSTORE PUSH1 0x20 ADD JUMPDEST PUSH1 0x40 MLOAD DUP1 SWAP2 SUB SWAP1 RETURN JUMPDEST CALLVALUE DUP1 ISZERO PUSH2 0x1AE JUMPI PUSH1 0x0 DUP1 REVERT JUMPDEST POP PUSH2 0x1D6 PUSH32 0x0 DUP2 JUMP JUMPDEST PUSH1 0x40 MLOAD PUSH1 0x1 PUSH1 0x1 PUSH1 0xA0 SHL SUB SWAP1 SWAP2 AND DUP2 MSTORE PUSH1 0x20 ADD PUSH2 0x199 JUMP JUMPDEST CALLVALUE DUP1 ISZERO PUSH2 0x1FA JUMPI PUSH1 0x0 DUP1 REVERT JUMPDEST POP PUSH2 0x203 PUSH2 0x4C9 JUMP JUMPDEST STOP JUMPDEST CALLVALUE DUP1 ISZERO PUSH2 0x211 JUMPI PUSH1 0x0 DUP1 REVERT JUMPDEST POP PUSH2 0x203 PUSH2 0x220 CALLDATASIZE PUSH1 0x4 PUSH2 0x102C JUMP JUMPDEST PUSH2 0x4E8 JUMP JUMPDEST CALLVALUE DUP1 ISZERO PUSH2 0x231 JUMPI PUSH1 0x0 DUP1 REVERT JUMPDEST POP PUSH2 0x203 PUSH2 0x4F5 JUMP JUMPDEST CALLVALUE DUP1 ISZERO PUSH2 0x246 JUMPI PUSH1 0x0 DUP1 REVERT JUMPDEST POP PUSH2 0x24F PUSH2 0x58B JUMP JUMPDEST PUSH1 0x40 MLOAD PUSH2 0x199 SWAP2 SWAP1 PUSH2 0x1045 JUMP JUMPDEST CALLVALUE DUP1 ISZERO PUSH2 0x268 JUMPI PUSH1 0x0 DUP1 REVERT JUMPDEST POP PUSH2 0x18F PUSH1 0x2 SLOAD DUP2 JUMP JUMPDEST CALLVALUE DUP1 ISZERO PUSH2 0x27E JUMPI PUSH1 0x0 DUP1 REVERT JUMPDEST POP PUSH2 0x18F PUSH2 0x28D CALLDATASIZE PUSH1 0x4 PUSH2 0x10BC JUMP JUMPDEST PUSH1 0x1 PUSH1 0x1 PUSH1 0xA0 SHL SUB AND PUSH1 0x0 SWAP1 DUP2 MSTORE PUSH1 0x7 PUSH1 0x20 MSTORE PUSH1 0x40 SWAP1 KECCAK256 SLOAD SWAP1 JUMP JUMPDEST CALLVALUE DUP1 ISZERO PUSH2 0x2B4 JUMPI PUSH1 0x0 DUP1 REVERT JUMPDEST POP PUSH2 0x1D6 PUSH2 0x2C3 CALLDATASIZE PUSH1 0x4 PUSH2 0x102C JUMP JUMPDEST PUSH2 0x627 JUMP JUMPDEST CALLVALUE DUP1 ISZERO PUSH2 0x2D4 JUMPI PUSH1 0x0 DUP1 REVERT JUMPDEST POP PUSH1 0x2 SLOAD PUSH2 0x18F JUMP JUMPDEST CALLVALUE DUP1 ISZERO PUSH2 0x2E9 JUMPI PUSH1 0x0 DUP1 REVERT JUMPDEST POP PUSH2 0x203 PUSH2 0x651 JUMP JUMPDEST CALLVALUE DUP1 ISZERO PUSH2 0x2FE JUMPI PUSH1 0x0 DUP1 REVERT JUMPDEST POP PUSH2 0x18F PUSH2 0x7E7 JUMP JUMPDEST CALLVALUE DUP1 ISZERO PUSH2 0x313 JUMPI PUSH1 0x0 DUP1 REVERT JUMPDEST POP PUSH2 0x31C PUSH2 0x84A JUMP JUMPDEST PUSH1 0x40 MLOAD PUSH2 0x199 SWAP3 SWAP2 SWAP1 PUSH2 0x10EC JUMP JUMPDEST CALLVALUE DUP1 ISZERO PUSH2 0x336 JUMPI PUSH1 0x0 DUP1 REVERT JUMPDEST POP PUSH2 0x18F PUSH2 0x345 CALLDATASIZE PUSH1 0x4 PUSH2 0x102C JUMP JUMPDEST PUSH2 0x981 JUMP JUMPDEST CALLVALUE DUP1 ISZERO PUSH2 0x356 JUMPI PUSH1 0x0 DUP1 REVERT JUMPDEST POP PUSH2 0x203 PUSH2 0x9FF JUMP JUMPDEST CALLVALUE DUP1 ISZERO PUSH2 0x36B JUMPI PUSH1 0x0 DUP1 REVERT JUMPDEST POP PUSH2 0x18F PUSH1 0x1 SLOAD DUP2 JUMP JUMPDEST CALLVALUE DUP1 ISZERO PUSH2 0x381 JUMPI PUSH1 0x0 DUP1 REVERT JUMPDEST POP PUSH2 0x203 PUSH2 0x390 CALLDATASIZE PUSH1 0x4 PUSH2 0x10BC JUMP JUMPDEST PUSH2 0xA13 JUMP JUMPDEST CALLVALUE DUP1 ISZERO PUSH2 0x3A1 JUMPI PUSH1 0x0 DUP1 REVERT JUMPDEST POP PUSH2 0x203 PUSH2 0x3B0 CALLDATASIZE PUSH1 0x4 PUSH2 0x1170 JUMP JUMPDEST PUSH2 0xA3C JUMP JUMPDEST CALLVALUE DUP1 ISZERO PUSH2 0x3C1 JUMPI PUSH1 0x0 DUP1 REVERT JUMPDEST POP PUSH2 0x1D6 PUSH2 0xABB JUMP JUMPDEST CALLVALUE DUP1 ISZERO PUSH2 0x3D6 JUMPI PUSH1 0x0 DUP1 REVERT JUMPDEST POP PUSH2 0x3FA PUSH2 0x3E5 CALLDATASIZE PUSH1 0x4 PUSH2 0x10BC JUMP JUMPDEST PUSH1 0x8 PUSH1 0x20 MSTORE PUSH1 0x0 SWAP1 DUP2 MSTORE PUSH1 0x40 SWAP1 KECCAK256 SLOAD PUSH1 0xFF AND DUP2 JUMP JUMPDEST PUSH1 0x40 MLOAD SWAP1 ISZERO ISZERO DUP2 MSTORE PUSH1 0x20 ADD PUSH2 0x199 JUMP JUMPDEST CALLVALUE DUP1 ISZERO PUSH2 0x416 JUMPI PUSH1 0x0 DUP1 REVERT JUMPDEST POP PUSH2 0x18F PUSH2 0x425 CALLDATASIZE PUSH1 0x4 PUSH2 0x10BC JUMP JUMPDEST PUSH1 0x1 PUSH1 0x1 PUSH1 0xA0 SHL SUB AND PUSH1 0x0 SWAP1 DUP2 MSTORE PUSH1 0x6 PUSH1 0x20 MSTORE PUSH1 0x40 SWAP1 KECCAK256 SLOAD SWAP1 JUMP JUMPDEST CALLVALUE DUP1 ISZERO PUSH2 0x44C JUMPI PUSH1 0x0 DUP1 REVERT JUMPDEST POP PUSH1 0x1 SLOAD PUSH2 0x18F JUMP JUMPDEST PUSH2 0x203 PUSH2 0xACA JUMP JUMPDEST CALLVALUE DUP1 ISZERO PUSH2 0x469 JUMPI PUSH1 0x0 DUP1 REVERT JUMPDEST POP PUSH2 0x203 PUSH2 0x478 CALLDATASIZE PUSH1 0x4 PUSH2 0x10BC JUMP JUMPDEST PUSH2 0xED8 JUMP JUMPDEST CALLVALUE DUP1 ISZERO PUSH2 0x489 JUMPI PUSH1 0x0 DUP1 REVERT JUMPDEST POP PUSH2 0x18F PUSH1 0x3 SLOAD DUP2 JUMP JUMPDEST CALLVALUE DUP1 ISZERO PUSH2 0x49F JUMPI PUSH1 0x0 DUP1 REVERT JUMPDEST POP PUSH2 0x203 PUSH2 0x4AE CALLDATASIZE PUSH1 0x4 PUSH2 0x10BC JUMP JUMPDEST PUSH2 0xF04 JUMP JUMPDEST CALLVALUE DUP1 ISZERO PUSH2 0x4BF JUMPI PUSH1 0x0 DUP1 REVERT JUMPDEST POP PUSH2 0x18F PUSH1 0x4 SLOAD DUP2 JUMP JUMPDEST PUSH2 0x4D1 PUSH2 0xF7D JUMP JUMPDEST TIMESTAMP PUSH1 0x1 DUP2 SWAP1 SSTORE PUSH2 0x4E3 SWAP1 PUSH2 0x258 PUSH2 0x11FB JUMP JUMPDEST PUSH1 0x2 SSTORE JUMP JUMPDEST PUSH2 0x4F0 PUSH2 0xF7D JUMP JUMPDEST PUSH1 0x4 SSTORE JUMP JUMPDEST PUSH2 0x4FD PUSH2 0xF7D JUMP JUMPDEST SELFBALANCE DUP1 PUSH2 0x547 JUMPI PUSH1 0x40 MLOAD PUSH3 0x461BCD PUSH1 0xE5 SHL DUP2 MSTORE PUSH1 0x20 PUSH1 0x4 DUP3 ADD MSTORE PUSH1 0x14 PUSH1 0x24 DUP3 ADD MSTORE PUSH20 0x4E6F2066756E647320746F207769746864726177 PUSH1 0x60 SHL PUSH1 0x44 DUP3 ADD MSTORE PUSH1 0x64 ADD JUMPDEST PUSH1 0x40 MLOAD DUP1 SWAP2 SUB SWAP1 REVERT JUMPDEST PUSH2 0x54F PUSH2 0xABB JUMP JUMPDEST PUSH1 0x1 PUSH1 0x1 PUSH1 0xA0 SHL SUB AND PUSH2 0x8FC DUP3 SWAP1 DUP2 ISZERO MUL SWAP1 PUSH1 0x40 MLOAD PUSH1 0x0 PUSH1 0x40 MLOAD DUP1 DUP4 SUB DUP2 DUP6 DUP9 DUP9 CALL SWAP4 POP POP POP POP ISZERO DUP1 ISZERO PUSH2 0x587 JUMPI RETURNDATASIZE PUSH1 0x0 DUP1 RETURNDATACOPY RETURNDATASIZE PUSH1 0x0 REVERT JUMPDEST POP POP JUMP JUMPDEST PUSH1 0x60 PUSH2 0x595 PUSH2 0xF7D JUMP JUMPDEST PUSH1 0x9 DUP1 SLOAD DUP1 PUSH1 0x20 MUL PUSH1 0x20 ADD PUSH1 0x40 MLOAD SWAP1 DUP2 ADD PUSH1 0x40 MSTORE DUP1 SWAP3 SWAP2 SWAP1 DUP2 DUP2 MSTORE PUSH1 0x20 ADD PUSH1 0x0 SWAP1 JUMPDEST DUP3 DUP3 LT ISZERO PUSH2 0x61E JUMPI PUSH1 0x0 DUP5 DUP2 MSTORE PUSH1 0x20 SWAP1 DUP2 SWAP1 KECCAK256 PUSH1 0x40 DUP1 MLOAD PUSH1 0xA0 DUP2 ADD DUP3 MSTORE PUSH1 0x5 DUP7 MUL SWAP1 SWAP3 ADD DUP1 SLOAD PUSH1 0x1 PUSH1 0x1 PUSH1 0xA0 SHL SUB AND DUP4 MSTORE PUSH1 0x1 DUP1 DUP3 ADD SLOAD DUP5 DUP7 ADD MSTORE PUSH1 0x2 DUP3 ADD SLOAD SWAP3 DUP5 ADD SWAP3 SWAP1 SWAP3 MSTORE PUSH1 0x3 DUP2 ADD SLOAD PUSH1 0x60 DUP5 ADD MSTORE PUSH1 0x4 ADD SLOAD PUSH1 0x80 DUP4 ADD MSTORE SWAP1 DUP4 MSTORE SWAP1 SWAP3 ADD SWAP2 ADD PUSH2 0x5B7 JUMP JUMPDEST POP POP POP POP SWAP1 POP SWAP1 JUMP JUMPDEST PUSH1 0xA DUP2 DUP2 SLOAD DUP2 LT PUSH2 0x637 JUMPI PUSH1 0x0 DUP1 REVERT JUMPDEST PUSH1 0x0 SWAP2 DUP3 MSTORE PUSH1 0x20 SWAP1 SWAP2 KECCAK256 ADD SLOAD PUSH1 0x1 PUSH1 0x1 PUSH1 0xA0 SHL SUB AND SWAP1 POP DUP2 JUMP JUMPDEST PUSH1 0x2 SLOAD PUSH2 0x660 SWAP1 PUSH2 0xE10 PUSH2 0x11FB JUMP JUMPDEST TIMESTAMP GT PUSH2 0x69E JUMPI PUSH1 0x40 MLOAD PUSH3 0x461BCD PUSH1 0xE5 SHL DUP2 MSTORE PUSH1 0x20 PUSH1 0x4 DUP3 ADD MSTORE PUSH1 0xD PUSH1 0x24 DUP3 ADD MSTORE PUSH13 0x4E6F7420636C61696D61626C65 PUSH1 0x98 SHL PUSH1 0x44 DUP3 ADD MSTORE PUSH1 0x64 ADD PUSH2 0x53E JUMP JUMPDEST CALLER PUSH1 0x0 SWAP1 DUP2 MSTORE PUSH1 0x6 PUSH1 0x20 MSTORE PUSH1 0x40 SWAP1 KECCAK256 SLOAD PUSH2 0x6F0 JUMPI PUSH1 0x40 MLOAD PUSH3 0x461BCD PUSH1 0xE5 SHL DUP2 MSTORE PUSH1 0x20 PUSH1 0x4 DUP3 ADD MSTORE PUSH1 0x13 PUSH1 0x24 DUP3 ADD MSTORE PUSH19 0x4E6F20616D6F756E7420636C61696D61626C65 PUSH1 0x68 SHL PUSH1 0x44 DUP3 ADD MSTORE PUSH1 0x64 ADD PUSH2 0x53E JUMP JUMPDEST CALLER PUSH1 0x0 SWAP1 DUP2 MSTORE PUSH1 0x6 PUSH1 0x20 MSTORE PUSH1 0x40 DUP2 KECCAK256 SLOAD PUSH8 0xDE0B6B3A7640000 SWAP1 PUSH2 0x735 SWAP1 PUSH32 0x0 SWAP1 PUSH2 0x1214 JUMP JUMPDEST PUSH2 0x73F SWAP2 SWAP1 PUSH2 0x122B JUMP JUMPDEST CALLER PUSH1 0x0 DUP2 DUP2 MSTORE PUSH1 0x6 PUSH1 0x20 MSTORE PUSH1 0x40 DUP1 DUP3 KECCAK256 SWAP2 SWAP1 SWAP2 SSTORE MLOAD PUSH4 0xA9059CBB PUSH1 0xE0 SHL DUP2 MSTORE PUSH1 0x4 DUP2 ADD SWAP2 SWAP1 SWAP2 MSTORE PUSH1 0x24 DUP2 ADD DUP3 SWAP1 MSTORE SWAP1 SWAP2 POP PUSH1 0x1 PUSH1 0x1 PUSH1 0xA0 SHL SUB PUSH32 0x0 AND SWAP1 PUSH4 0xA9059CBB SWAP1 PUSH1 0x44 ADD PUSH1 0x20 PUSH1 0x40 MLOAD DUP1 DUP4 SUB DUP2 PUSH1 0x0 DUP8 GAS CALL ISZERO DUP1 ISZERO PUSH2 0x7C3 JUMPI RETURNDATASIZE PUSH1 0x0 DUP1 RETURNDATACOPY RETURNDATASIZE PUSH1 0x0 REVERT JUMPDEST POP POP POP POP PUSH1 0x40 MLOAD RETURNDATASIZE PUSH1 0x1F NOT PUSH1 0x1F DUP3 ADD AND DUP3 ADD DUP1 PUSH1 0x40 MSTORE POP DUP2 ADD SWAP1 PUSH2 0x587 SWAP2 SWAP1 PUSH2 0x124D JUMP JUMPDEST PUSH1 0x0 PUSH1 0x2 SLOAD TIMESTAMP GT ISZERO PUSH2 0x7F9 JUMPI POP PUSH1 0x0 SWAP1 JUMP JUMPDEST PUSH1 0x0 PUSH1 0x1 SLOAD TIMESTAMP PUSH2 0x809 SWAP2 SWAP1 PUSH2 0x126F JUMP JUMPDEST SWAP1 POP PUSH1 0x0 PUSH1 0x1 SLOAD PUSH1 0x2 SLOAD PUSH2 0x81D SWAP2 SWAP1 PUSH2 0x126F JUMP JUMPDEST SWAP1 POP PUSH1 0x0 DUP2 PUSH2 0x82D DUP5 PUSH1 0x1E PUSH2 0x1214 JUMP JUMPDEST PUSH2 0x837 SWAP2 SWAP1 PUSH2 0x122B JUMP JUMPDEST PUSH2 0x842 SWAP1 PUSH1 0x1E PUSH2 0x126F JUMP JUMPDEST SWAP5 SWAP4 POP POP POP POP JUMP JUMPDEST PUSH1 0x60 DUP1 PUSH2 0x855 PUSH2 0xF7D JUMP JUMPDEST PUSH1 0xA SLOAD PUSH1 0x0 DUP2 PUSH8 0xFFFFFFFFFFFFFFFF DUP2 GT ISZERO PUSH2 0x873 JUMPI PUSH2 0x873 PUSH2 0x1282 JUMP JUMPDEST PUSH1 0x40 MLOAD SWAP1 DUP1 DUP3 MSTORE DUP1 PUSH1 0x20 MUL PUSH1 0x20 ADD DUP3 ADD PUSH1 0x40 MSTORE DUP1 ISZERO PUSH2 0x89C JUMPI DUP2 PUSH1 0x20 ADD PUSH1 0x20 DUP3 MUL DUP1 CALLDATASIZE DUP4 CALLDATACOPY ADD SWAP1 POP JUMPDEST POP SWAP1 POP PUSH1 0x0 JUMPDEST DUP3 DUP2 LT ISZERO PUSH2 0x917 JUMPI PUSH1 0x6 PUSH1 0x0 PUSH1 0xA DUP4 DUP2 SLOAD DUP2 LT PUSH2 0x8C1 JUMPI PUSH2 0x8C1 PUSH2 0x1298 JUMP JUMPDEST PUSH1 0x0 SWAP2 DUP3 MSTORE PUSH1 0x20 DUP1 DUP4 KECCAK256 SWAP1 SWAP2 ADD SLOAD PUSH1 0x1 PUSH1 0x1 PUSH1 0xA0 SHL SUB AND DUP4 MSTORE DUP3 ADD SWAP3 SWAP1 SWAP3 MSTORE PUSH1 0x40 ADD SWAP1 KECCAK256 SLOAD DUP3 MLOAD DUP4 SWAP1 DUP4 SWAP1 DUP2 LT PUSH2 0x8FA JUMPI PUSH2 0x8FA PUSH2 0x1298 JUMP JUMPDEST PUSH1 0x20 SWAP1 DUP2 MUL SWAP2 SWAP1 SWAP2 ADD ADD MSTORE DUP1 PUSH2 0x90F DUP2 PUSH2 0x12AE JUMP JUMPDEST SWAP2 POP POP PUSH2 0x8A2 JUMP JUMPDEST POP PUSH1 0xA DUP2 DUP2 DUP1 SLOAD DUP1 PUSH1 0x20 MUL PUSH1 0x20 ADD PUSH1 0x40 MLOAD SWAP1 DUP2 ADD PUSH1 0x40 MSTORE DUP1 SWAP3 SWAP2 SWAP1 DUP2 DUP2 MSTORE PUSH1 0x20 ADD DUP3 DUP1 SLOAD DUP1 ISZERO PUSH2 0x970 JUMPI PUSH1 0x20 MUL DUP3 ADD SWAP2 SWAP1 PUSH1 0x0 MSTORE PUSH1 0x20 PUSH1 0x0 KECCAK256 SWAP1 JUMPDEST DUP2 SLOAD PUSH1 0x1 PUSH1 0x1 PUSH1 0xA0 SHL SUB AND DUP2 MSTORE PUSH1 0x1 SWAP1 SWAP2 ADD SWAP1 PUSH1 0x20 ADD DUP1 DUP4 GT PUSH2 0x952 JUMPI JUMPDEST POP POP POP POP POP SWAP2 POP SWAP4 POP SWAP4 POP POP POP SWAP1 SWAP2 JUMP JUMPDEST PUSH1 0x0 PUSH1 0x2 SLOAD TIMESTAMP GT ISZERO PUSH2 0x995 JUMPI POP PUSH1 0x0 SWAP2 SWAP1 POP JUMP JUMPDEST PUSH1 0x0 PUSH1 0x1 SLOAD TIMESTAMP PUSH2 0x9A5 SWAP2 SWAP1 PUSH2 0x126F JUMP JUMPDEST SWAP1 POP PUSH1 0x0 PUSH1 0x1 SLOAD PUSH1 0x2 SLOAD PUSH2 0x9B9 SWAP2 SWAP1 PUSH2 0x126F JUMP JUMPDEST SWAP1 POP PUSH1 0x0 DUP2 PUSH2 0x9C9 DUP5 PUSH1 0x1E PUSH2 0x1214 JUMP JUMPDEST PUSH2 0x9D3 SWAP2 SWAP1 PUSH2 0x122B JUMP JUMPDEST PUSH2 0x9DE SWAP1 PUSH1 0x1E PUSH2 0x126F JUMP JUMPDEST SWAP1 POP PUSH1 0x64 PUSH2 0x9EC DUP3 DUP8 PUSH2 0x1214 JUMP JUMPDEST PUSH2 0x9F6 SWAP2 SWAP1 PUSH2 0x122B JUMP JUMPDEST SWAP6 SWAP5 POP POP POP POP POP JUMP JUMPDEST PUSH2 0xA07 PUSH2 0xF7D JUMP JUMPDEST PUSH2 0xA11 PUSH1 0x0 PUSH2 0xFDC JUMP JUMPDEST JUMP JUMPDEST PUSH2 0xA1B PUSH2 0xF7D JUMP JUMPDEST PUSH1 0x1 PUSH1 0x1 PUSH1 0xA0 SHL SUB AND PUSH1 0x0 SWAP1 DUP2 MSTORE PUSH1 0x8 PUSH1 0x20 MSTORE PUSH1 0x40 SWAP1 KECCAK256 DUP1 SLOAD PUSH1 0xFF NOT AND SWAP1 SSTORE JUMP JUMPDEST PUSH2 0xA44 PUSH2 0xF7D JUMP JUMPDEST PUSH1 0x0 JUMPDEST DUP2 DUP2 LT ISZERO PUSH2 0xAB6 JUMPI PUSH1 0x1 PUSH1 0x8 PUSH1 0x0 DUP6 DUP6 DUP6 DUP2 DUP2 LT PUSH2 0xA67 JUMPI PUSH2 0xA67 PUSH2 0x1298 JUMP JUMPDEST SWAP1 POP PUSH1 0x20 MUL ADD PUSH1 0x20 DUP2 ADD SWAP1 PUSH2 0xA7C SWAP2 SWAP1 PUSH2 0x10BC JUMP JUMPDEST PUSH1 0x1 PUSH1 0x1 PUSH1 0xA0 SHL SUB AND DUP2 MSTORE PUSH1 0x20 DUP2 ADD SWAP2 SWAP1 SWAP2 MSTORE PUSH1 0x40 ADD PUSH1 0x0 KECCAK256 DUP1 SLOAD PUSH1 0xFF NOT AND SWAP2 ISZERO ISZERO SWAP2 SWAP1 SWAP2 OR SWAP1 SSTORE DUP1 PUSH2 0xAAE DUP2 PUSH2 0x12AE JUMP JUMPDEST SWAP2 POP POP PUSH2 0xA47 JUMP JUMPDEST POP POP POP JUMP JUMPDEST PUSH1 0x0 SLOAD PUSH1 0x1 PUSH1 0x1 PUSH1 0xA0 SHL SUB AND SWAP1 JUMP JUMPDEST CALLER PUSH1 0x0 DUP2 DUP2 MSTORE PUSH1 0x8 PUSH1 0x20 MSTORE PUSH1 0x40 SWAP1 KECCAK256 SLOAD PUSH1 0xFF AND PUSH2 0xB29 JUMPI PUSH1 0x40 MLOAD PUSH3 0x461BCD PUSH1 0xE5 SHL DUP2 MSTORE PUSH1 0x20 PUSH1 0x4 DUP3 ADD MSTORE PUSH1 0x1C PUSH1 0x24 DUP3 ADD MSTORE PUSH32 0x42656E6566696369617279206E6F742077686974656C69737465642E00000000 PUSH1 0x44 DUP3 ADD MSTORE PUSH1 0x64 ADD PUSH2 0x53E JUMP JUMPDEST PUSH1 0x1 SLOAD TIMESTAMP LT ISZERO DUP1 ISZERO PUSH2 0xB3D JUMPI POP PUSH1 0x2 SLOAD TIMESTAMP GT ISZERO JUMPDEST DUP1 ISZERO PUSH2 0xB4B JUMPI POP PUSH1 0x0 PUSH1 0x1 SLOAD GT JUMPDEST DUP1 ISZERO PUSH2 0xB59 JUMPI POP PUSH1 0x0 PUSH1 0x2 SLOAD GT JUMPDEST PUSH2 0xB9B JUMPI PUSH1 0x40 MLOAD PUSH3 0x461BCD PUSH1 0xE5 SHL DUP2 MSTORE PUSH1 0x20 PUSH1 0x4 DUP3 ADD MSTORE PUSH1 0x13 PUSH1 0x24 DUP3 ADD MSTORE PUSH19 0x283932B9B0B6329034B9903737BA1037B832B7 PUSH1 0x69 SHL PUSH1 0x44 DUP3 ADD MSTORE PUSH1 0x64 ADD PUSH2 0x53E JUMP JUMPDEST PUSH7 0x38D7EA4C68000 CALLVALUE LT ISZERO DUP1 ISZERO PUSH2 0xBBA JUMPI POP PUSH8 0x3782DACE9D90000 CALLVALUE GT ISZERO JUMPDEST PUSH2 0xBFB JUMPI PUSH1 0x40 MLOAD PUSH3 0x461BCD PUSH1 0xE5 SHL DUP2 MSTORE PUSH1 0x20 PUSH1 0x4 DUP3 ADD MSTORE PUSH1 0x12 PUSH1 0x24 DUP3 ADD MSTORE PUSH18 0x125B9D985B1A590811551208185B5BDD5B9D PUSH1 0x72 SHL PUSH1 0x44 DUP3 ADD MSTORE PUSH1 0x64 ADD PUSH2 0x53E JUMP JUMPDEST CALLER PUSH1 0x0 SWAP1 DUP2 MSTORE PUSH1 0x7 PUSH1 0x20 MSTORE PUSH1 0x40 SWAP1 KECCAK256 SLOAD PUSH8 0x3782DACE9D90000 SWAP1 PUSH2 0xC20 SWAP1 CALLVALUE SWAP1 PUSH2 0x11FB JUMP JUMPDEST GT ISZERO PUSH2 0xC6E JUMPI PUSH1 0x40 MLOAD PUSH3 0x461BCD PUSH1 0xE5 SHL DUP2 MSTORE PUSH1 0x20 PUSH1 0x4 DUP3 ADD MSTORE PUSH1 0x1E PUSH1 0x24 DUP3 ADD MSTORE PUSH32 0x596F752063616E6E6F7420627579206D6F7265207468616E2035206574680000 PUSH1 0x44 DUP3 ADD MSTORE PUSH1 0x64 ADD PUSH2 0x53E JUMP JUMPDEST PUSH1 0x4 SLOAD CALLVALUE PUSH1 0x3 SLOAD PUSH2 0xC7F SWAP2 SWAP1 PUSH2 0x11FB JUMP JUMPDEST GT ISZERO PUSH2 0xCC1 JUMPI PUSH1 0x40 MLOAD PUSH3 0x461BCD PUSH1 0xE5 SHL DUP2 MSTORE PUSH1 0x20 PUSH1 0x4 DUP3 ADD MSTORE PUSH1 0x11 PUSH1 0x24 DUP3 ADD MSTORE PUSH17 0x105B5BDD5B9D081BDD995C881B1A5B5A5D PUSH1 0x7A SHL PUSH1 0x44 DUP3 ADD MSTORE PUSH1 0x64 ADD PUSH2 0x53E JUMP JUMPDEST CALLER PUSH1 0x0 SWAP1 DUP2 MSTORE PUSH1 0x5 PUSH1 0x20 MSTORE PUSH1 0x40 SWAP1 KECCAK256 SLOAD PUSH1 0xFF AND PUSH2 0xD35 JUMPI CALLER PUSH1 0x0 DUP2 DUP2 MSTORE PUSH1 0x5 PUSH1 0x20 MSTORE PUSH1 0x40 DUP2 KECCAK256 DUP1 SLOAD PUSH1 0xFF NOT AND PUSH1 0x1 SWAP1 DUP2 OR SWAP1 SWAP2 SSTORE PUSH1 0xA DUP1 SLOAD SWAP2 DUP3 ADD DUP2 SSTORE SWAP1 SWAP2 MSTORE PUSH32 0xC65A7BB8D6351C1CF70C95A316CC6A92839C986682D98BC35F958F4883F9D2A8 ADD DUP1 SLOAD PUSH1 0x1 PUSH1 0x1 PUSH1 0xA0 SHL SUB NOT AND SWAP1 SWAP2 OR SWAP1 SSTORE JUMPDEST CALLVALUE PUSH1 0x0 PUSH2 0xD41 DUP3 PUSH2 0x981 JUMP JUMPDEST SWAP1 POP PUSH1 0x0 PUSH2 0xD4D PUSH2 0x7E7 JUMP JUMPDEST SWAP1 POP PUSH2 0xD59 DUP3 DUP5 PUSH2 0x11FB JUMP JUMPDEST SWAP3 POP DUP3 PUSH1 0x3 PUSH1 0x0 DUP3 DUP3 SLOAD PUSH2 0xD6D SWAP2 SWAP1 PUSH2 0x11FB JUMP JUMPDEST SWAP1 SWAP2 SSTORE POP POP CALLER PUSH1 0x0 SWAP1 DUP2 MSTORE PUSH1 0x7 PUSH1 0x20 MSTORE PUSH1 0x40 DUP2 KECCAK256 DUP1 SLOAD CALLVALUE SWAP3 SWAP1 PUSH2 0xD91 SWAP1 DUP5 SWAP1 PUSH2 0x11FB JUMP JUMPDEST SWAP1 SWAP2 SSTORE POP POP CALLER PUSH1 0x0 SWAP1 DUP2 MSTORE PUSH1 0x6 PUSH1 0x20 MSTORE PUSH1 0x40 DUP2 KECCAK256 DUP1 SLOAD DUP6 SWAP3 SWAP1 PUSH2 0xDB5 SWAP1 DUP5 SWAP1 PUSH2 0x11FB JUMP JUMPDEST SWAP1 SWAP2 SSTORE POP POP PUSH1 0x40 DUP1 MLOAD PUSH1 0xA0 DUP2 ADD DUP3 MSTORE CALLER DUP2 MSTORE CALLVALUE PUSH1 0x20 DUP3 ADD SWAP1 DUP2 MSTORE TIMESTAMP SWAP3 DUP3 ADD SWAP3 DUP4 MSTORE PUSH1 0x60 DUP3 ADD SWAP4 DUP5 MSTORE PUSH1 0x80 DUP3 ADD SWAP5 DUP6 MSTORE PUSH1 0x9 DUP1 SLOAD PUSH1 0x1 DUP2 ADD DUP3 SSTORE PUSH1 0x0 SWAP2 SWAP1 SWAP2 MSTORE SWAP2 MLOAD PUSH32 0x6E1540171B6C0C960B71A7020D9F60077F6AF931A8BBF590DA0223DACF75C7AF PUSH1 0x5 SWAP1 SWAP4 MUL SWAP3 DUP4 ADD DUP1 SLOAD PUSH1 0x1 PUSH1 0x1 PUSH1 0xA0 SHL SUB NOT AND PUSH1 0x1 PUSH1 0x1 PUSH1 0xA0 SHL SUB SWAP1 SWAP3 AND SWAP2 SWAP1 SWAP2 OR SWAP1 SSTORE MLOAD PUSH32 0x6E1540171B6C0C960B71A7020D9F60077F6AF931A8BBF590DA0223DACF75C7B0 DUP3 ADD SSTORE SWAP1 MLOAD PUSH32 0x6E1540171B6C0C960B71A7020D9F60077F6AF931A8BBF590DA0223DACF75C7B1 DUP3 ADD SSTORE SWAP1 MLOAD PUSH32 0x6E1540171B6C0C960B71A7020D9F60077F6AF931A8BBF590DA0223DACF75C7B2 DUP3 ADD SSTORE SWAP1 MLOAD PUSH32 0x6E1540171B6C0C960B71A7020D9F60077F6AF931A8BBF590DA0223DACF75C7B3 SWAP1 SWAP2 ADD SSTORE POP POP JUMP JUMPDEST PUSH2 0xEE0 PUSH2 0xF7D JUMP JUMPDEST PUSH1 0x1 PUSH1 0x1 PUSH1 0xA0 SHL SUB AND PUSH1 0x0 SWAP1 DUP2 MSTORE PUSH1 0x8 PUSH1 0x20 MSTORE PUSH1 0x40 SWAP1 KECCAK256 DUP1 SLOAD PUSH1 0xFF NOT AND PUSH1 0x1 OR SWAP1 SSTORE JUMP JUMPDEST PUSH2 0xF0C PUSH2 0xF7D JUMP JUMPDEST PUSH1 0x1 PUSH1 0x1 PUSH1 0xA0 SHL SUB DUP2 AND PUSH2 0xF71 JUMPI PUSH1 0x40 MLOAD PUSH3 0x461BCD PUSH1 0xE5 SHL DUP2 MSTORE PUSH1 0x20 PUSH1 0x4 DUP3 ADD MSTORE PUSH1 0x26 PUSH1 0x24 DUP3 ADD MSTORE PUSH32 0x4F776E61626C653A206E6577206F776E657220697320746865207A65726F2061 PUSH1 0x44 DUP3 ADD MSTORE PUSH6 0x646472657373 PUSH1 0xD0 SHL PUSH1 0x64 DUP3 ADD MSTORE PUSH1 0x84 ADD PUSH2 0x53E JUMP JUMPDEST PUSH2 0xF7A DUP2 PUSH2 0xFDC JUMP JUMPDEST POP JUMP JUMPDEST CALLER PUSH2 0xF86 PUSH2 0xABB JUMP JUMPDEST PUSH1 0x1 PUSH1 0x1 PUSH1 0xA0 SHL SUB AND EQ PUSH2 0xA11 JUMPI PUSH1 0x40 MLOAD PUSH3 0x461BCD PUSH1 0xE5 SHL DUP2 MSTORE PUSH1 0x20 PUSH1 0x4 DUP3 ADD DUP2 SWAP1 MSTORE PUSH1 0x24 DUP3 ADD MSTORE PUSH32 0x4F776E61626C653A2063616C6C6572206973206E6F7420746865206F776E6572 PUSH1 0x44 DUP3 ADD MSTORE PUSH1 0x64 ADD PUSH2 0x53E JUMP JUMPDEST PUSH1 0x0 DUP1 SLOAD PUSH1 0x1 PUSH1 0x1 PUSH1 0xA0 SHL SUB DUP4 DUP2 AND PUSH1 0x1 PUSH1 0x1 PUSH1 0xA0 SHL SUB NOT DUP4 AND DUP2 OR DUP5 SSTORE PUSH1 0x40 MLOAD SWAP2 SWAP1 SWAP3 AND SWAP3 DUP4 SWAP2 PUSH32 0x8BE0079C531659141344CD1FD0A4F28419497F9722A3DAAFE3B4186F6B6457E0 SWAP2 SWAP1 LOG3 POP POP JUMP JUMPDEST PUSH1 0x0 PUSH1 0x20 DUP3 DUP5 SUB SLT ISZERO PUSH2 0x103E JUMPI PUSH1 0x0 DUP1 REVERT JUMPDEST POP CALLDATALOAD SWAP2 SWAP1 POP JUMP JUMPDEST PUSH1 0x20 DUP1 DUP3 MSTORE DUP3 MLOAD DUP3 DUP3 ADD DUP2 SWAP1 MSTORE PUSH1 0x0 SWAP2 SWAP1 PUSH1 0x40 SWAP1 DUP2 DUP6 ADD SWAP1 DUP7 DUP5 ADD DUP6 JUMPDEST DUP3 DUP2 LT ISZERO PUSH2 0x10AF JUMPI DUP2 MLOAD DUP1 MLOAD PUSH1 0x1 PUSH1 0x1 PUSH1 0xA0 SHL SUB AND DUP6 MSTORE DUP7 DUP2 ADD MLOAD DUP8 DUP7 ADD MSTORE DUP6 DUP2 ADD MLOAD DUP7 DUP7 ADD MSTORE PUSH1 0x60 DUP1 DUP3 ADD MLOAD SWAP1 DUP7 ADD MSTORE PUSH1 0x80 SWAP1 DUP2 ADD MLOAD SWAP1 DUP6 ADD MSTORE PUSH1 0xA0 SWAP1 SWAP4 ADD SWAP3 SWAP1 DUP6 ADD SWAP1 PUSH1 0x1 ADD PUSH2 0x1062 JUMP JUMPDEST POP SWAP2 SWAP8 SWAP7 POP POP POP POP POP POP POP JUMP JUMPDEST PUSH1 0x0 PUSH1 0x20 DUP3 DUP5 SUB SLT ISZERO PUSH2 0x10CE JUMPI PUSH1 0x0 DUP1 REVERT JUMPDEST DUP2 CALLDATALOAD PUSH1 0x1 PUSH1 0x1 PUSH1 0xA0 SHL SUB DUP2 AND DUP2 EQ PUSH2 0x10E5 JUMPI PUSH1 0x0 DUP1 REVERT JUMPDEST SWAP4 SWAP3 POP POP POP JUMP JUMPDEST PUSH1 0x40 DUP1 DUP3 MSTORE DUP4 MLOAD SWAP1 DUP3 ADD DUP2 SWAP1 MSTORE PUSH1 0x0 SWAP1 PUSH1 0x20 SWAP1 PUSH1 0x60 DUP5 ADD SWAP1 DUP3 DUP8 ADD DUP5 JUMPDEST DUP3 DUP2 LT ISZERO PUSH2 0x112E JUMPI DUP2 MLOAD PUSH1 0x1 PUSH1 0x1 PUSH1 0xA0 SHL SUB AND DUP5 MSTORE SWAP3 DUP5 ADD SWAP3 SWAP1 DUP5 ADD SWAP1 PUSH1 0x1 ADD PUSH2 0x1109 JUMP JUMPDEST POP POP POP DUP4 DUP2 SUB DUP3 DUP6 ADD MSTORE DUP5 MLOAD DUP1 DUP3 MSTORE DUP6 DUP4 ADD SWAP2 DUP4 ADD SWAP1 PUSH1 0x0 JUMPDEST DUP2 DUP2 LT ISZERO PUSH2 0x1163 JUMPI DUP4 MLOAD DUP4 MSTORE SWAP3 DUP5 ADD SWAP3 SWAP2 DUP5 ADD SWAP2 PUSH1 0x1 ADD PUSH2 0x1147 JUMP JUMPDEST POP SWAP1 SWAP8 SWAP7 POP POP POP POP POP POP POP JUMP JUMPDEST PUSH1 0x0 DUP1 PUSH1 0x20 DUP4 DUP6 SUB SLT ISZERO PUSH2 0x1183 JUMPI PUSH1 0x0 DUP1 REVERT JUMPDEST DUP3 CALLDATALOAD PUSH8 0xFFFFFFFFFFFFFFFF DUP1 DUP3 GT ISZERO PUSH2 0x119B JUMPI PUSH1 0x0 DUP1 REVERT JUMPDEST DUP2 DUP6 ADD SWAP2 POP DUP6 PUSH1 0x1F DUP4 ADD SLT PUSH2 0x11AF JUMPI PUSH1 0x0 DUP1 REVERT JUMPDEST DUP2 CALLDATALOAD DUP2 DUP2 GT ISZERO PUSH2 0x11BE JUMPI PUSH1 0x0 DUP1 REVERT JUMPDEST DUP7 PUSH1 0x20 DUP3 PUSH1 0x5 SHL DUP6 ADD ADD GT ISZERO PUSH2 0x11D3 JUMPI PUSH1 0x0 DUP1 REVERT JUMPDEST PUSH1 0x20 SWAP3 SWAP1 SWAP3 ADD SWAP7 SWAP2 SWAP6 POP SWAP1 SWAP4 POP POP POP POP JUMP JUMPDEST PUSH4 0x4E487B71 PUSH1 0xE0 SHL PUSH1 0x0 MSTORE PUSH1 0x11 PUSH1 0x4 MSTORE PUSH1 0x24 PUSH1 0x0 REVERT JUMPDEST DUP1 DUP3 ADD DUP1 DUP3 GT ISZERO PUSH2 0x120E JUMPI PUSH2 0x120E PUSH2 0x11E5 JUMP JUMPDEST SWAP3 SWAP2 POP POP JUMP JUMPDEST DUP1 DUP3 MUL DUP2 ISZERO DUP3 DUP3 DIV DUP5 EQ OR PUSH2 0x120E JUMPI PUSH2 0x120E PUSH2 0x11E5 JUMP JUMPDEST PUSH1 0x0 DUP3 PUSH2 0x1248 JUMPI PUSH4 0x4E487B71 PUSH1 0xE0 SHL PUSH1 0x0 MSTORE PUSH1 0x12 PUSH1 0x4 MSTORE PUSH1 0x24 PUSH1 0x0 REVERT JUMPDEST POP DIV SWAP1 JUMP JUMPDEST PUSH1 0x0 PUSH1 0x20 DUP3 DUP5 SUB SLT ISZERO PUSH2 0x125F JUMPI PUSH1 0x0 DUP1 REVERT JUMPDEST DUP2 MLOAD DUP1 ISZERO ISZERO DUP2 EQ PUSH2 0x10E5 JUMPI PUSH1 0x0 DUP1 REVERT JUMPDEST DUP2 DUP2 SUB DUP2 DUP2 GT ISZERO PUSH2 0x120E JUMPI PUSH2 0x120E PUSH2 0x11E5 JUMP JUMPDEST PUSH4 0x4E487B71 PUSH1 0xE0 SHL PUSH1 0x0 MSTORE PUSH1 0x41 PUSH1 0x4 MSTORE PUSH1 0x24 PUSH1 0x0 REVERT JUMPDEST PUSH4 0x4E487B71 PUSH1 0xE0 SHL PUSH1 0x0 MSTORE PUSH1 0x32 PUSH1 0x4 MSTORE PUSH1 0x24 PUSH1 0x0 REVERT JUMPDEST PUSH1 0x0 PUSH1 0x1 DUP3 ADD PUSH2 0x12C0 JUMPI PUSH2 0x12C0 PUSH2 0x11E5 JUMP JUMPDEST POP PUSH1 0x1 ADD SWAP1 JUMP INVALID LOG2 PUSH5 0x6970667358 0x22 SLT KECCAK256 PUSH14 0x7DB6F7CB260839C5B1929EE51D14 DUP12 0xE6 0xAA SLT 0x2C 0xF9 DUP14 DUP5 0xD9 SWAP5 PUSH4 0x5DFBC238 PUSH19 0x6D64736F6C6343000813003300000000000000 "
		},
		"gasEstimates": {
			"creation": {
				"codeDepositCost": "972200",
				"executionCost": "infinite",
				"totalCost": "infinite"
			},
			"external": {
				"ECHOE()": "infinite",
				"addManyToWhitelist(address[])": "infinite",
				"addToWhitelist(address)": "26982",
				"buyTokens()": "infinite",
				"calculateBonus(uint256)": "infinite",
				"claim()": "infinite",
				"endTime()": "2417",
				"getAllTransactions()": "infinite",
				"getCurrentBonus()": "infinite",
				"getDepositParticipant(address)": "2646",
				"getEndTime()": "2480",
				"getParticipants()": "infinite",
				"getRateBonus()": "infinite",
				"getStartTime()": "2435",
				"getTokensParticipant(address)": "2623",
				"owner()": "2434",
				"participants(uint256)": "4791",
				"presaleMax()": "2548",
				"presalePrice()": "infinite",
				"removeFromWhitelist(address)": "26822",
				"renounceOwnership()": "infinite",
				"setMax(uint256)": "24600",
				"startPresale()": "46687",
				"startTime()": "2306",
				"totalPurchased()": "2504",
				"transferOwnership(address)": "28585",
				"whitelist(address)": "2606",
				"withdrawFunds()": "infinite"
			}
		},
		"methodIdentifiers": {
			"ECHOE()": "021400e9",
			"addManyToWhitelist(address[])": "8c10671c",
			"addToWhitelist(address)": "e43252d7",
			"buyTokens()": "d0febe4c",
			"calculateBonus(uint256)": "6081f5cb",
			"claim()": "4e71d92d",
			"endTime()": "3197cbb6",
			"getAllTransactions()": "27506f53",
			"getCurrentBonus()": "57e5eea5",
			"getDepositParticipant(address)": "354a54b4",
			"getEndTime()": "439f5ac2",
			"getParticipants()": "5aa68ac0",
			"getRateBonus()": "fb1442e8",
			"getStartTime()": "c828371e",
			"getTokensParticipant(address)": "b03f642a",
			"owner()": "8da5cb5b",
			"participants(uint256)": "35c1d349",
			"presaleMax()": "f34acb7c",
			"presalePrice()": "000e7fa8",
			"removeFromWhitelist(address)": "8ab1d681",
			"renounceOwnership()": "715018a6",
			"setMax(uint256)": "1fe9eabc",
			"startPresale()": "04c98b2b",
			"startTime()": "78e97925",
			"totalPurchased()": "e632c2f3",
			"transferOwnership(address)": "f2fde38b",
			"whitelist(address)": "9b19251a",
			"withdrawFunds()": "24600fc3"
		}
	},
	"abi": [
		{
			"inputs": [
				{
					"internalType": "address",
					"name": "_ECHOE",
					"type": "address"
				}
			],
			"stateMutability": "nonpayable",
			"type": "constructor"
		},
		{
			"anonymous": false,
			"inputs": [
				{
					"indexed": true,
					"internalType": "address",
					"name": "previousOwner",
					"type": "address"
				},
				{
					"indexed": true,
					"internalType": "address",
					"name": "newOwner",
					"type": "address"
				}
			],
			"name": "OwnershipTransferred",
			"type": "event"
		},
		{
			"inputs": [],
			"name": "ECHOE",
			"outputs": [
				{
					"internalType": "address",
					"name": "",
					"type": "address"
				}
			],
			"stateMutability": "view",
			"type": "function"
		},
		{
			"inputs": [
				{
					"internalType": "address[]",
					"name": "_beneficiaries",
					"type": "address[]"
				}
			],
			"name": "addManyToWhitelist",
			"outputs": [],
			"stateMutability": "nonpayable",
			"type": "function"
		},
		{
			"inputs": [
				{
					"internalType": "address",
					"name": "_beneficiary",
					"type": "address"
				}
			],
			"name": "addToWhitelist",
			"outputs": [],
			"stateMutability": "nonpayable",
			"type": "function"
		},
		{
			"inputs": [],
			"name": "buyTokens",
			"outputs": [],
			"stateMutability": "payable",
			"type": "function"
		},
		{
			"inputs": [
				{
					"internalType": "uint256",
					"name": "tokens",
					"type": "uint256"
				}
			],
			"name": "calculateBonus",
			"outputs": [
				{
					"internalType": "uint256",
					"name": "",
					"type": "uint256"
				}
			],
			"stateMutability": "view",
			"type": "function"
		},
		{
			"inputs": [],
			"name": "claim",
			"outputs": [],
			"stateMutability": "nonpayable",
			"type": "function"
		},
		{
			"inputs": [],
			"name": "endTime",
			"outputs": [
				{
					"internalType": "uint256",
					"name": "",
					"type": "uint256"
				}
			],
			"stateMutability": "view",
			"type": "function"
		},
		{
			"inputs": [],
			"name": "getAllTransactions",
			"outputs": [
				{
					"components": [
						{
							"internalType": "address",
							"name": "addressParticipant",
							"type": "address"
						},
						{
							"internalType": "uint256",
							"name": "amountEth",
							"type": "uint256"
						},
						{
							"internalType": "uint256",
							"name": "timestampBuy",
							"type": "uint256"
						},
						{
							"internalType": "uint256",
							"name": "bonusRate",
							"type": "uint256"
						},
						{
							"internalType": "uint256",
							"name": "bonusToken",
							"type": "uint256"
						}
					],
					"internalType": "struct EchoesPresale.TransactionHistory[]",
					"name": "",
					"type": "tuple[]"
				}
			],
			"stateMutability": "view",
			"type": "function"
		},
		{
			"inputs": [],
			"name": "getCurrentBonus",
			"outputs": [
				{
					"internalType": "uint256",
					"name": "",
					"type": "uint256"
				}
			],
			"stateMutability": "view",
			"type": "function"
		},
		{
			"inputs": [
				{
					"internalType": "address",
					"name": "_participant",
					"type": "address"
				}
			],
			"name": "getDepositParticipant",
			"outputs": [
				{
					"internalType": "uint256",
					"name": "",
					"type": "uint256"
				}
			],
			"stateMutability": "view",
			"type": "function"
		},
		{
			"inputs": [],
			"name": "getEndTime",
			"outputs": [
				{
					"internalType": "uint256",
					"name": "",
					"type": "uint256"
				}
			],
			"stateMutability": "view",
			"type": "function"
		},
		{
			"inputs": [],
			"name": "getParticipants",
			"outputs": [
				{
					"internalType": "address[]",
					"name": "",
					"type": "address[]"
				},
				{
					"internalType": "uint256[]",
					"name": "",
					"type": "uint256[]"
				}
			],
			"stateMutability": "view",
			"type": "function"
		},
		{
			"inputs": [],
			"name": "getRateBonus",
			"outputs": [
				{
					"internalType": "uint256",
					"name": "",
					"type": "uint256"
				}
			],
			"stateMutability": "view",
			"type": "function"
		},
		{
			"inputs": [],
			"name": "getStartTime",
			"outputs": [
				{
					"internalType": "uint256",
					"name": "",
					"type": "uint256"
				}
			],
			"stateMutability": "view",
			"type": "function"
		},
		{
			"inputs": [
				{
					"internalType": "address",
					"name": "_participant",
					"type": "address"
				}
			],
			"name": "getTokensParticipant",
			"outputs": [
				{
					"internalType": "uint256",
					"name": "",
					"type": "uint256"
				}
			],
			"stateMutability": "view",
			"type": "function"
		},
		{
			"inputs": [],
			"name": "owner",
			"outputs": [
				{
					"internalType": "address",
					"name": "",
					"type": "address"
				}
			],
			"stateMutability": "view",
			"type": "function"
		},
		{
			"inputs": [
				{
					"internalType": "uint256",
					"name": "",
					"type": "uint256"
				}
			],
			"name": "participants",
			"outputs": [
				{
					"internalType": "address",
					"name": "",
					"type": "address"
				}
			],
			"stateMutability": "view",
			"type": "function"
		},
		{
			"inputs": [],
			"name": "presaleMax",
			"outputs": [
				{
					"internalType": "uint256",
					"name": "",
					"type": "uint256"
				}
			],
			"stateMutability": "view",
			"type": "function"
		},
		{
			"inputs": [],
			"name": "presalePrice",
			"outputs": [
				{
					"internalType": "uint256",
					"name": "",
					"type": "uint256"
				}
			],
			"stateMutability": "view",
			"type": "function"
		},
		{
			"inputs": [
				{
					"internalType": "address",
					"name": "_beneficiary",
					"type": "address"
				}
			],
			"name": "removeFromWhitelist",
			"outputs": [],
			"stateMutability": "nonpayable",
			"type": "function"
		},
		{
			"inputs": [],
			"name": "renounceOwnership",
			"outputs": [],
			"stateMutability": "nonpayable",
			"type": "function"
		},
		{
			"inputs": [
				{
					"internalType": "uint256",
					"name": "_max",
					"type": "uint256"
				}
			],
			"name": "setMax",
			"outputs": [],
			"stateMutability": "nonpayable",
			"type": "function"
		},
		{
			"inputs": [],
			"name": "startPresale",
			"outputs": [],
			"stateMutability": "nonpayable",
			"type": "function"
		},
		{
			"inputs": [],
			"name": "startTime",
			"outputs": [
				{
					"internalType": "uint256",
					"name": "",
					"type": "uint256"
				}
			],
			"stateMutability": "view",
			"type": "function"
		},
		{
			"inputs": [],
			"name": "totalPurchased",
			"outputs": [
				{
					"internalType": "uint256",
					"name": "",
					"type": "uint256"
				}
			],
			"stateMutability": "view",
			"type": "function"
		},
		{
			"inputs": [
				{
					"internalType": "address",
					"name": "newOwner",
					"type": "address"
				}
			],
			"name": "transferOwnership",
			"outputs": [],
			"stateMutability": "nonpayable",
			"type": "function"
		},
		{
			"inputs": [
				{
					"internalType": "address",
					"name": "",
					"type": "address"
				}
			],
			"name": "whitelist",
			"outputs": [
				{
					"internalType": "bool",
					"name": "",
					"type": "bool"
				}
			],
			"stateMutability": "view",
			"type": "function"
		},
		{
			"inputs": [],
			"name": "withdrawFunds",
			"outputs": [],
			"stateMutability": "nonpayable",
			"type": "function"
		}
	]
}