{
  "_format": "hh-sol-artifact-1",
  "contractName": "Bubbles",
  "sourceName": "contracts/EchoeToken.sol",
  "abi": [
    {
      "inputs": [],
      "stateMutability": "nonpayable",
      "type": "constructor"
    },
    {
      "anonymous": false,
      "inputs": [
        {
          "indexed": true,
          "internalType": "address",
          "name": "owner",
          "type": "address"
        },
        {
          "indexed": true,
          "internalType": "address",
          "name": "spender",
          "type": "address"
        },
        {
          "indexed": false,
          "internalType": "uint256",
          "name": "value",
          "type": "uint256"
        }
      ],
      "name": "Approval",
      "type": "event"
    },
    {
      "anonymous": false,
      "inputs": [
        {
          "indexed": false,
          "internalType": "string",
          "name": "evt",
          "type": "string"
        },
        {
          "indexed": false,
          "internalType": "uint256",
          "name": "amountReflectionAccumulated",
          "type": "uint256"
        }
      ],
      "name": "EventFinish",
      "type": "event"
    },
    {
      "anonymous": false,
      "inputs": [
        {
          "indexed": false,
          "internalType": "string",
          "name": "evt",
          "type": "string"
        }
      ],
      "name": "EventStart",
      "type": "event"
    },
    {
      "anonymous": false,
      "inputs": [
        {
          "indexed": false,
          "internalType": "uint256",
          "name": "newMinimum",
          "type": "uint256"
        }
      ],
      "name": "HolderMinimumChanged",
      "type": "event"
    },
    {
      "anonymous": false,
      "inputs": [
        {
          "indexed": false,
          "internalType": "string",
          "name": "error",
          "type": "string"
        }
      ],
      "name": "LogError",
      "type": "event"
    },
    {
      "anonymous": false,
      "inputs": [
        {
          "indexed": false,
          "internalType": "string",
          "name": "info",
          "type": "string"
        }
      ],
      "name": "LogInfo",
      "type": "event"
    },
    {
      "anonymous": false,
      "inputs": [
        {
          "indexed": false,
          "internalType": "string",
          "name": "mode",
          "type": "string"
        }
      ],
      "name": "ModeChanged",
      "type": "event"
    },
    {
      "anonymous": false,
      "inputs": [
        {
          "indexed": true,
          "internalType": "address",
          "name": "previousOwner",
          "type": "address"
        },
        {
          "indexed": true,
          "internalType": "address",
          "name": "newOwner",
          "type": "address"
        }
      ],
      "name": "OwnershipTransferred",
      "type": "event"
    },
    {
      "anonymous": false,
      "inputs": [
        {
          "indexed": false,
          "internalType": "uint256",
          "name": "amountAdded",
          "type": "uint256"
        },
        {
          "indexed": false,
          "internalType": "uint256",
          "name": "totalAmountAccumulated",
          "type": "uint256"
        }
      ],
      "name": "ReflectAccumulated",
      "type": "event"
    },
    {
      "anonymous": false,
      "inputs": [
        {
          "indexed": false,
          "internalType": "uint256",
          "name": "amountDistributer",
          "type": "uint256"
        }
      ],
      "name": "ReflectDistributed",
      "type": "event"
    },
    {
      "anonymous": false,
      "inputs": [
        {
          "indexed": false,
          "internalType": "string",
          "name": "message",
          "type": "string"
        }
      ],
      "name": "ReflectNotification",
      "type": "event"
    },
    {
      "anonymous": false,
      "inputs": [
        {
          "indexed": true,
          "internalType": "address",
          "name": "from",
          "type": "address"
        },
        {
          "indexed": true,
          "internalType": "address",
          "name": "to",
          "type": "address"
        },
        {
          "indexed": false,
          "internalType": "uint256",
          "name": "value",
          "type": "uint256"
        }
      ],
      "name": "Transfer",
      "type": "event"
    },
    {
      "inputs": [],
      "name": "UNISWAP_V2_PAIR",
      "outputs": [
        {
          "internalType": "address",
          "name": "",
          "type": "address"
        }
      ],
      "stateMutability": "view",
      "type": "function"
    },
    {
      "inputs": [],
      "name": "UNISWAP_V2_ROUTER",
      "outputs": [
        {
          "internalType": "contract IUniswapV2Router02",
          "name": "",
          "type": "address"
        }
      ],
      "stateMutability": "view",
      "type": "function"
    },
    {
      "inputs": [
        {
          "internalType": "address",
          "name": "",
          "type": "address"
        }
      ],
      "name": "_balances",
      "outputs": [
        {
          "internalType": "uint256",
          "name": "",
          "type": "uint256"
        }
      ],
      "stateMutability": "view",
      "type": "function"
    },
    {
      "inputs": [
        {
          "internalType": "address",
          "name": "",
          "type": "address"
        }
      ],
      "name": "_baseReflection",
      "outputs": [
        {
          "internalType": "uint256",
          "name": "",
          "type": "uint256"
        }
      ],
      "stateMutability": "view",
      "type": "function"
    },
    {
      "inputs": [
        {
          "internalType": "address",
          "name": "",
          "type": "address"
        }
      ],
      "name": "_eventReflection",
      "outputs": [
        {
          "internalType": "uint256",
          "name": "",
          "type": "uint256"
        }
      ],
      "stateMutability": "view",
      "type": "function"
    },
    {
      "inputs": [
        {
          "internalType": "address",
          "name": "",
          "type": "address"
        }
      ],
      "name": "_historyReflectionTransfered",
      "outputs": [
        {
          "internalType": "uint256",
          "name": "",
          "type": "uint256"
        }
      ],
      "stateMutability": "view",
      "type": "function"
    },
    {
      "inputs": [
        {
          "internalType": "address",
          "name": "",
          "type": "address"
        }
      ],
      "name": "_holdingTime",
      "outputs": [
        {
          "internalType": "uint256",
          "name": "",
          "type": "uint256"
        }
      ],
      "stateMutability": "view",
      "type": "function"
    },
    {
      "inputs": [
        {
          "internalType": "address",
          "name": "",
          "type": "address"
        }
      ],
      "name": "_isHolder",
      "outputs": [
        {
          "internalType": "bool",
          "name": "",
          "type": "bool"
        }
      ],
      "stateMutability": "view",
      "type": "function"
    },
    {
      "inputs": [
        {
          "internalType": "address",
          "name": "",
          "type": "address"
        }
      ],
      "name": "_keyIndex",
      "outputs": [
        {
          "internalType": "uint256",
          "name": "",
          "type": "uint256"
        }
      ],
      "stateMutability": "view",
      "type": "function"
    },
    {
      "inputs": [
        {
          "internalType": "address",
          "name": "",
          "type": "address"
        }
      ],
      "name": "_lastBuy",
      "outputs": [
        {
          "internalType": "uint256",
          "name": "",
          "type": "uint256"
        }
      ],
      "stateMutability": "view",
      "type": "function"
    },
    {
      "inputs": [
        {
          "internalType": "address",
          "name": "",
          "type": "address"
        }
      ],
      "name": "_lastSell",
      "outputs": [
        {
          "internalType": "uint256",
          "name": "",
          "type": "uint256"
        }
      ],
      "stateMutability": "view",
      "type": "function"
    },
    {
      "inputs": [],
      "name": "_minSupplyHolding",
      "outputs": [
        {
          "internalType": "uint256",
          "name": "",
          "type": "uint256"
        }
      ],
      "stateMutability": "view",
      "type": "function"
    },
    {
      "inputs": [],
      "name": "_swapThreshold",
      "outputs": [
        {
          "internalType": "uint256",
          "name": "",
          "type": "uint256"
        }
      ],
      "stateMutability": "view",
      "type": "function"
    },
    {
      "inputs": [
        {
          "internalType": "uint256",
          "name": "",
          "type": "uint256"
        }
      ],
      "name": "addressesParticipantEvent",
      "outputs": [
        {
          "internalType": "address",
          "name": "",
          "type": "address"
        }
      ],
      "stateMutability": "view",
      "type": "function"
    },
    {
      "inputs": [
        {
          "internalType": "address",
          "name": "recipient",
          "type": "address"
        },
        {
          "internalType": "uint256",
          "name": "amount",
          "type": "uint256"
        }
      ],
      "name": "airdrop",
      "outputs": [],
      "stateMutability": "nonpayable",
      "type": "function"
    },
    {
      "inputs": [
        {
          "internalType": "address[]",
          "name": "recipients",
          "type": "address[]"
        },
        {
          "internalType": "uint256[]",
          "name": "amounts",
          "type": "uint256[]"
        }
      ],
      "name": "airdropMultiple",
      "outputs": [],
      "stateMutability": "nonpayable",
      "type": "function"
    },
    {
      "inputs": [
        {
          "internalType": "address",
          "name": "holder",
          "type": "address"
        },
        {
          "internalType": "address",
          "name": "spender",
          "type": "address"
        }
      ],
      "name": "allowance",
      "outputs": [
        {
          "internalType": "uint256",
          "name": "",
          "type": "uint256"
        }
      ],
      "stateMutability": "view",
      "type": "function"
    },
    {
      "inputs": [],
      "name": "apeBuy",
      "outputs": [
        {
          "internalType": "uint8",
          "name": "reflection",
          "type": "uint8"
        },
        {
          "internalType": "uint8",
          "name": "teamOracle",
          "type": "uint8"
        },
        {
          "internalType": "uint8",
          "name": "lp",
          "type": "uint8"
        },
        {
          "internalType": "uint8",
          "name": "burn",
          "type": "uint8"
        },
        {
          "internalType": "uint128",
          "name": "total",
          "type": "uint128"
        }
      ],
      "stateMutability": "view",
      "type": "function"
    },
    {
      "inputs": [],
      "name": "apeSell",
      "outputs": [
        {
          "internalType": "uint8",
          "name": "reflection",
          "type": "uint8"
        },
        {
          "internalType": "uint8",
          "name": "teamOracle",
          "type": "uint8"
        },
        {
          "internalType": "uint8",
          "name": "lp",
          "type": "uint8"
        },
        {
          "internalType": "uint8",
          "name": "burn",
          "type": "uint8"
        },
        {
          "internalType": "uint128",
          "name": "total",
          "type": "uint128"
        }
      ],
      "stateMutability": "view",
      "type": "function"
    },
    {
      "inputs": [
        {
          "internalType": "address",
          "name": "spender",
          "type": "address"
        },
        {
          "internalType": "uint256",
          "name": "amount",
          "type": "uint256"
        }
      ],
      "name": "approve",
      "outputs": [
        {
          "internalType": "bool",
          "name": "",
          "type": "bool"
        }
      ],
      "stateMutability": "nonpayable",
      "type": "function"
    },
    {
      "inputs": [
        {
          "internalType": "address",
          "name": "spender",
          "type": "address"
        }
      ],
      "name": "approveMax",
      "outputs": [
        {
          "internalType": "bool",
          "name": "",
          "type": "bool"
        }
      ],
      "stateMutability": "nonpayable",
      "type": "function"
    },
    {
      "inputs": [
        {
          "internalType": "address",
          "name": "account",
          "type": "address"
        }
      ],
      "name": "balanceOf",
      "outputs": [
        {
          "internalType": "uint256",
          "name": "",
          "type": "uint256"
        }
      ],
      "stateMutability": "view",
      "type": "function"
    },
    {
      "inputs": [
        {
          "internalType": "address",
          "name": "_address",
          "type": "address"
        },
        {
          "internalType": "bool",
          "name": "_isBlacklisting",
          "type": "bool"
        }
      ],
      "name": "blacklist",
      "outputs": [],
      "stateMutability": "nonpayable",
      "type": "function"
    },
    {
      "inputs": [
        {
          "internalType": "address",
          "name": "",
          "type": "address"
        }
      ],
      "name": "blacklists",
      "outputs": [
        {
          "internalType": "bool",
          "name": "",
          "type": "bool"
        }
      ],
      "stateMutability": "view",
      "type": "function"
    },
    {
      "inputs": [],
      "name": "buyFee",
      "outputs": [
        {
          "internalType": "uint8",
          "name": "reflection",
          "type": "uint8"
        },
        {
          "internalType": "uint8",
          "name": "teamOracle",
          "type": "uint8"
        },
        {
          "internalType": "uint8",
          "name": "lp",
          "type": "uint8"
        },
        {
          "internalType": "uint8",
          "name": "burn",
          "type": "uint8"
        },
        {
          "internalType": "uint128",
          "name": "total",
          "type": "uint128"
        }
      ],
      "stateMutability": "view",
      "type": "function"
    },
    {
      "inputs": [],
      "name": "chill",
      "outputs": [
        {
          "internalType": "uint8",
          "name": "reflection",
          "type": "uint8"
        },
        {
          "internalType": "uint8",
          "name": "teamOracle",
          "type": "uint8"
        },
        {
          "internalType": "uint8",
          "name": "lp",
          "type": "uint8"
        },
        {
          "internalType": "uint8",
          "name": "burn",
          "type": "uint8"
        },
        {
          "internalType": "uint128",
          "name": "total",
          "type": "uint128"
        }
      ],
      "stateMutability": "view",
      "type": "function"
    },
    {
      "inputs": [],
      "name": "claimingFees",
      "outputs": [
        {
          "internalType": "bool",
          "name": "",
          "type": "bool"
        }
      ],
      "stateMutability": "view",
      "type": "function"
    },
    {
      "inputs": [],
      "name": "clearStuckBalance",
      "outputs": [],
      "stateMutability": "nonpayable",
      "type": "function"
    },
    {
      "inputs": [],
      "name": "clearStuckToken",
      "outputs": [],
      "stateMutability": "nonpayable",
      "type": "function"
    },
    {
      "inputs": [],
      "name": "currentTokenMode",
      "outputs": [
        {
          "internalType": "string",
          "name": "",
          "type": "string"
        }
      ],
      "stateMutability": "view",
      "type": "function"
    },
    {
      "inputs": [],
      "name": "decimals",
      "outputs": [
        {
          "internalType": "uint8",
          "name": "",
          "type": "uint8"
        }
      ],
      "stateMutability": "pure",
      "type": "function"
    },
    {
      "inputs": [],
      "name": "enableAutoAdjust",
      "outputs": [
        {
          "internalType": "bool",
          "name": "",
          "type": "bool"
        }
      ],
      "stateMutability": "view",
      "type": "function"
    },
    {
      "inputs": [],
      "name": "enableTrading",
      "outputs": [
        {
          "internalType": "bool",
          "name": "",
          "type": "bool"
        }
      ],
      "stateMutability": "view",
      "type": "function"
    },
    {
      "inputs": [
        {
          "internalType": "uint256",
          "name": "",
          "type": "uint256"
        }
      ],
      "name": "eventHistory",
      "outputs": [
        {
          "internalType": "string",
          "name": "",
          "type": "string"
        }
      ],
      "stateMutability": "view",
      "type": "function"
    },
    {
      "inputs": [],
      "name": "eventInProgress",
      "outputs": [
        {
          "internalType": "bool",
          "name": "",
          "type": "bool"
        }
      ],
      "stateMutability": "view",
      "type": "function"
    },
    {
      "inputs": [],
      "name": "eventNameInProgress",
      "outputs": [
        {
          "internalType": "string",
          "name": "",
          "type": "string"
        }
      ],
      "stateMutability": "view",
      "type": "function"
    },
    {
      "inputs": [],
      "name": "eventReflectedToken",
      "outputs": [
        {
          "internalType": "uint256",
          "name": "",
          "type": "uint256"
        }
      ],
      "stateMutability": "view",
      "type": "function"
    },
    {
      "inputs": [],
      "name": "eventTokenAmountDistributedBatching",
      "outputs": [
        {
          "internalType": "uint256",
          "name": "",
          "type": "uint256"
        }
      ],
      "stateMutability": "view",
      "type": "function"
    },
    {
      "inputs": [],
      "name": "getArrayHolder",
      "outputs": [
        {
          "internalType": "address[]",
          "name": "",
          "type": "address[]"
        }
      ],
      "stateMutability": "view",
      "type": "function"
    },
    {
      "inputs": [],
      "name": "getArrayParticipant",
      "outputs": [
        {
          "internalType": "address[]",
          "name": "",
          "type": "address[]"
        }
      ],
      "stateMutability": "view",
      "type": "function"
    },
    {
      "inputs": [],
      "name": "getCirculatingSupply",
      "outputs": [
        {
          "internalType": "uint256",
          "name": "",
          "type": "uint256"
        }
      ],
      "stateMutability": "view",
      "type": "function"
    },
    {
      "inputs": [],
      "name": "getCurrentMode",
      "outputs": [
        {
          "internalType": "string",
          "name": "",
          "type": "string"
        }
      ],
      "stateMutability": "view",
      "type": "function"
    },
    {
      "inputs": [],
      "name": "getEventHistoryList",
      "outputs": [
        {
          "internalType": "string[]",
          "name": "",
          "type": "string[]"
        }
      ],
      "stateMutability": "view",
      "type": "function"
    },
    {
      "inputs": [],
      "name": "getEventTimeStart",
      "outputs": [
        {
          "internalType": "uint256",
          "name": "",
          "type": "uint256"
        }
      ],
      "stateMutability": "view",
      "type": "function"
    },
    {
      "inputs": [],
      "name": "getEventTimeStop",
      "outputs": [
        {
          "internalType": "uint256",
          "name": "",
          "type": "uint256"
        }
      ],
      "stateMutability": "view",
      "type": "function"
    },
    {
      "inputs": [],
      "name": "getHighestReflectionEventName",
      "outputs": [
        {
          "internalType": "string",
          "name": "",
          "type": "string"
        }
      ],
      "stateMutability": "view",
      "type": "function"
    },
    {
      "inputs": [],
      "name": "getHighestReflectionEventTime",
      "outputs": [
        {
          "internalType": "uint256",
          "name": "",
          "type": "uint256"
        }
      ],
      "stateMutability": "view",
      "type": "function"
    },
    {
      "inputs": [],
      "name": "getHighestReflectionEventValue",
      "outputs": [
        {
          "internalType": "uint256",
          "name": "",
          "type": "uint256"
        }
      ],
      "stateMutability": "view",
      "type": "function"
    },
    {
      "inputs": [
        {
          "internalType": "address",
          "name": "holderAddress",
          "type": "address"
        }
      ],
      "name": "getHolder",
      "outputs": [
        {
          "components": [
            {
              "internalType": "uint256",
              "name": "balance",
              "type": "uint256"
            },
            {
              "internalType": "uint256",
              "name": "eventReflection",
              "type": "uint256"
            },
            {
              "internalType": "uint256",
              "name": "baseReflection",
              "type": "uint256"
            },
            {
              "internalType": "uint256",
              "name": "holdingTime",
              "type": "uint256"
            },
            {
              "internalType": "uint256",
              "name": "lastBuy",
              "type": "uint256"
            },
            {
              "internalType": "uint256",
              "name": "lastSell",
              "type": "uint256"
            },
            {
              "internalType": "uint256",
              "name": "keyIndex",
              "type": "uint256"
            },
            {
              "internalType": "bool",
              "name": "isHolder",
              "type": "bool"
            }
          ],
          "internalType": "struct Bubbles.HolderInfo",
          "name": "",
          "type": "tuple"
        }
      ],
      "stateMutability": "view",
      "type": "function"
    },
    {
      "inputs": [
        {
          "internalType": "address",
          "name": "account",
          "type": "address"
        }
      ],
      "name": "getHolderEventReflection",
      "outputs": [
        {
          "internalType": "uint256",
          "name": "",
          "type": "uint256"
        }
      ],
      "stateMutability": "view",
      "type": "function"
    },
    {
      "inputs": [
        {
          "internalType": "address",
          "name": "account",
          "type": "address"
        }
      ],
      "name": "getHolderHistoryReflectionTransfered",
      "outputs": [
        {
          "internalType": "uint256",
          "name": "",
          "type": "uint256"
        }
      ],
      "stateMutability": "view",
      "type": "function"
    },
    {
      "inputs": [
        {
          "internalType": "address",
          "name": "account",
          "type": "address"
        }
      ],
      "name": "getHolderNormalReflection",
      "outputs": [
        {
          "internalType": "uint256",
          "name": "",
          "type": "uint256"
        }
      ],
      "stateMutability": "view",
      "type": "function"
    },
    {
      "inputs": [],
      "name": "getLastTimeGenesis",
      "outputs": [
        {
          "internalType": "uint256",
          "name": "",
          "type": "uint256"
        }
      ],
      "stateMutability": "view",
      "type": "function"
    },
    {
      "inputs": [],
      "name": "getLastTimeMode",
      "outputs": [
        {
          "internalType": "uint256",
          "name": "",
          "type": "uint256"
        }
      ],
      "stateMutability": "view",
      "type": "function"
    },
    {
      "inputs": [],
      "name": "getModeHistoryList",
      "outputs": [
        {
          "internalType": "string[]",
          "name": "",
          "type": "string[]"
        }
      ],
      "stateMutability": "view",
      "type": "function"
    },
    {
      "inputs": [],
      "name": "getNextMode",
      "outputs": [
        {
          "internalType": "string",
          "name": "",
          "type": "string"
        }
      ],
      "stateMutability": "view",
      "type": "function"
    },
    {
      "inputs": [],
      "name": "highestReflectionEventName",
      "outputs": [
        {
          "internalType": "string",
          "name": "",
          "type": "string"
        }
      ],
      "stateMutability": "view",
      "type": "function"
    },
    {
      "inputs": [],
      "name": "highestReflectionEventTime",
      "outputs": [
        {
          "internalType": "uint256",
          "name": "",
          "type": "uint256"
        }
      ],
      "stateMutability": "view",
      "type": "function"
    },
    {
      "inputs": [],
      "name": "highestReflectionEventValue",
      "outputs": [
        {
          "internalType": "uint256",
          "name": "",
          "type": "uint256"
        }
      ],
      "stateMutability": "view",
      "type": "function"
    },
    {
      "inputs": [
        {
          "internalType": "uint256",
          "name": "",
          "type": "uint256"
        }
      ],
      "name": "holderAddresses",
      "outputs": [
        {
          "internalType": "address",
          "name": "",
          "type": "address"
        }
      ],
      "stateMutability": "view",
      "type": "function"
    },
    {
      "inputs": [
        {
          "internalType": "address",
          "name": "",
          "type": "address"
        }
      ],
      "name": "isFeeExempt",
      "outputs": [
        {
          "internalType": "bool",
          "name": "",
          "type": "bool"
        }
      ],
      "stateMutability": "view",
      "type": "function"
    },
    {
      "inputs": [
        {
          "internalType": "address",
          "name": "holderAddress",
          "type": "address"
        }
      ],
      "name": "isHolder",
      "outputs": [
        {
          "internalType": "bool",
          "name": "",
          "type": "bool"
        }
      ],
      "stateMutability": "view",
      "type": "function"
    },
    {
      "inputs": [
        {
          "internalType": "address",
          "name": "holderAddress",
          "type": "address"
        }
      ],
      "name": "isHolderInArray",
      "outputs": [
        {
          "internalType": "bool",
          "name": "",
          "type": "bool"
        }
      ],
      "stateMutability": "view",
      "type": "function"
    },
    {
      "inputs": [
        {
          "internalType": "address",
          "name": "",
          "type": "address"
        }
      ],
      "name": "isReflectionExempt",
      "outputs": [
        {
          "internalType": "bool",
          "name": "",
          "type": "bool"
        }
      ],
      "stateMutability": "view",
      "type": "function"
    },
    {
      "inputs": [],
      "name": "lastTimeGenesis",
      "outputs": [
        {
          "internalType": "uint256",
          "name": "",
          "type": "uint256"
        }
      ],
      "stateMutability": "view",
      "type": "function"
    },
    {
      "inputs": [],
      "name": "lastTimeMode",
      "outputs": [
        {
          "internalType": "uint256",
          "name": "",
          "type": "uint256"
        }
      ],
      "stateMutability": "view",
      "type": "function"
    },
    {
      "inputs": [],
      "name": "manualSwapBack",
      "outputs": [],
      "stateMutability": "nonpayable",
      "type": "function"
    },
    {
      "inputs": [
        {
          "internalType": "uint256",
          "name": "",
          "type": "uint256"
        }
      ],
      "name": "modeHistory",
      "outputs": [
        {
          "internalType": "string",
          "name": "",
          "type": "string"
        }
      ],
      "stateMutability": "view",
      "type": "function"
    },
    {
      "inputs": [],
      "name": "name",
      "outputs": [
        {
          "internalType": "string",
          "name": "",
          "type": "string"
        }
      ],
      "stateMutability": "view",
      "type": "function"
    },
    {
      "inputs": [],
      "name": "nextTokenMode",
      "outputs": [
        {
          "internalType": "string",
          "name": "",
          "type": "string"
        }
      ],
      "stateMutability": "view",
      "type": "function"
    },
    {
      "inputs": [],
      "name": "ngmiBuy",
      "outputs": [
        {
          "internalType": "uint8",
          "name": "reflection",
          "type": "uint8"
        },
        {
          "internalType": "uint8",
          "name": "teamOracle",
          "type": "uint8"
        },
        {
          "internalType": "uint8",
          "name": "lp",
          "type": "uint8"
        },
        {
          "internalType": "uint8",
          "name": "burn",
          "type": "uint8"
        },
        {
          "internalType": "uint128",
          "name": "total",
          "type": "uint128"
        }
      ],
      "stateMutability": "view",
      "type": "function"
    },
    {
      "inputs": [],
      "name": "ngmiSell",
      "outputs": [
        {
          "internalType": "uint8",
          "name": "reflection",
          "type": "uint8"
        },
        {
          "internalType": "uint8",
          "name": "teamOracle",
          "type": "uint8"
        },
        {
          "internalType": "uint8",
          "name": "lp",
          "type": "uint8"
        },
        {
          "internalType": "uint8",
          "name": "burn",
          "type": "uint8"
        },
        {
          "internalType": "uint128",
          "name": "total",
          "type": "uint128"
        }
      ],
      "stateMutability": "view",
      "type": "function"
    },
    {
      "inputs": [],
      "name": "normalReflectedToken",
      "outputs": [
        {
          "internalType": "uint256",
          "name": "",
          "type": "uint256"
        }
      ],
      "stateMutability": "view",
      "type": "function"
    },
    {
      "inputs": [],
      "name": "owner",
      "outputs": [
        {
          "internalType": "address",
          "name": "",
          "type": "address"
        }
      ],
      "stateMutability": "view",
      "type": "function"
    },
    {
      "inputs": [],
      "name": "renounceOwnership",
      "outputs": [],
      "stateMutability": "nonpayable",
      "type": "function"
    },
    {
      "inputs": [],
      "name": "sellFee",
      "outputs": [
        {
          "internalType": "uint8",
          "name": "reflection",
          "type": "uint8"
        },
        {
          "internalType": "uint8",
          "name": "teamOracle",
          "type": "uint8"
        },
        {
          "internalType": "uint8",
          "name": "lp",
          "type": "uint8"
        },
        {
          "internalType": "uint8",
          "name": "burn",
          "type": "uint8"
        },
        {
          "internalType": "uint128",
          "name": "total",
          "type": "uint128"
        }
      ],
      "stateMutability": "view",
      "type": "function"
    },
    {
      "inputs": [],
      "name": "sendAutoAjustHolding",
      "outputs": [],
      "stateMutability": "nonpayable",
      "type": "function"
    },
    {
      "inputs": [
        {
          "internalType": "address",
          "name": "winner",
          "type": "address"
        },
        {
          "internalType": "uint256",
          "name": "amount",
          "type": "uint256"
        }
      ],
      "name": "sendRemainderTokens",
      "outputs": [],
      "stateMutability": "nonpayable",
      "type": "function"
    },
    {
      "inputs": [
        {
          "internalType": "bool",
          "name": "e_",
          "type": "bool"
        }
      ],
      "name": "setEnableAutoAdjust",
      "outputs": [],
      "stateMutability": "nonpayable",
      "type": "function"
    },
    {
      "inputs": [
        {
          "internalType": "address",
          "name": "ot_",
          "type": "address"
        },
        {
          "internalType": "address",
          "name": "lp_",
          "type": "address"
        }
      ],
      "name": "setFeeReceivers",
      "outputs": [],
      "stateMutability": "nonpayable",
      "type": "function"
    },
    {
      "inputs": [
        {
          "internalType": "address",
          "name": "holder",
          "type": "address"
        },
        {
          "internalType": "bool",
          "name": "exempt",
          "type": "bool"
        }
      ],
      "name": "setIsFeeExempt",
      "outputs": [],
      "stateMutability": "nonpayable",
      "type": "function"
    },
    {
      "inputs": [
        {
          "internalType": "address",
          "name": "holder",
          "type": "address"
        },
        {
          "internalType": "bool",
          "name": "exempt",
          "type": "bool"
        }
      ],
      "name": "setIsReflectionExempt",
      "outputs": [],
      "stateMutability": "nonpayable",
      "type": "function"
    },
    {
      "inputs": [
        {
          "internalType": "address",
          "name": "ad",
          "type": "address"
        }
      ],
      "name": "setMSAddress",
      "outputs": [],
      "stateMutability": "nonpayable",
      "type": "function"
    },
    {
      "inputs": [
        {
          "internalType": "uint256",
          "name": "h_",
          "type": "uint256"
        }
      ],
      "name": "setMinSupplyHolding",
      "outputs": [],
      "stateMutability": "nonpayable",
      "type": "function"
    },
    {
      "inputs": [
        {
          "internalType": "string",
          "name": "modeName",
          "type": "string"
        },
        {
          "internalType": "string",
          "name": "nextMode",
          "type": "string"
        }
      ],
      "name": "setMode",
      "outputs": [],
      "stateMutability": "nonpayable",
      "type": "function"
    },
    {
      "inputs": [
        {
          "internalType": "bool",
          "name": "_enabled",
          "type": "bool"
        },
        {
          "internalType": "uint256",
          "name": "_pt",
          "type": "uint256"
        }
      ],
      "name": "setSwapBackSettings",
      "outputs": [],
      "stateMutability": "nonpayable",
      "type": "function"
    },
    {
      "inputs": [
        {
          "internalType": "address[]",
          "name": "batchingParticipants",
          "type": "address[]"
        },
        {
          "internalType": "bool",
          "name": "isLastCall",
          "type": "bool"
        }
      ],
      "name": "shouldDistributeEventReflections",
      "outputs": [
        {
          "internalType": "bool",
          "name": "",
          "type": "bool"
        }
      ],
      "stateMutability": "nonpayable",
      "type": "function"
    },
    {
      "inputs": [
        {
          "internalType": "string",
          "name": "eventName",
          "type": "string"
        },
        {
          "internalType": "address[]",
          "name": "selectedAddresses",
          "type": "address[]"
        }
      ],
      "name": "startEventName",
      "outputs": [],
      "stateMutability": "nonpayable",
      "type": "function"
    },
    {
      "inputs": [],
      "name": "startTrading",
      "outputs": [],
      "stateMutability": "nonpayable",
      "type": "function"
    },
    {
      "inputs": [],
      "name": "stopEvent",
      "outputs": [],
      "stateMutability": "nonpayable",
      "type": "function"
    },
    {
      "inputs": [],
      "name": "switchNextMode",
      "outputs": [],
      "stateMutability": "nonpayable",
      "type": "function"
    },
    {
      "inputs": [],
      "name": "symbol",
      "outputs": [
        {
          "internalType": "string",
          "name": "",
          "type": "string"
        }
      ],
      "stateMutability": "view",
      "type": "function"
    },
    {
      "inputs": [],
      "name": "timeEventStart",
      "outputs": [
        {
          "internalType": "uint256",
          "name": "",
          "type": "uint256"
        }
      ],
      "stateMutability": "view",
      "type": "function"
    },
    {
      "inputs": [],
      "name": "timeEventStop",
      "outputs": [
        {
          "internalType": "uint256",
          "name": "",
          "type": "uint256"
        }
      ],
      "stateMutability": "view",
      "type": "function"
    },
    {
      "inputs": [],
      "name": "totalReflections",
      "outputs": [
        {
          "internalType": "uint256",
          "name": "",
          "type": "uint256"
        }
      ],
      "stateMutability": "view",
      "type": "function"
    },
    {
      "inputs": [],
      "name": "totalRemainder",
      "outputs": [
        {
          "internalType": "uint256",
          "name": "",
          "type": "uint256"
        }
      ],
      "stateMutability": "view",
      "type": "function"
    },
    {
      "inputs": [],
      "name": "totalSupply",
      "outputs": [
        {
          "internalType": "uint256",
          "name": "",
          "type": "uint256"
        }
      ],
      "stateMutability": "view",
      "type": "function"
    },
    {
      "inputs": [
        {
          "internalType": "address",
          "name": "recipient",
          "type": "address"
        },
        {
          "internalType": "uint256",
          "name": "amount",
          "type": "uint256"
        }
      ],
      "name": "transfer",
      "outputs": [
        {
          "internalType": "bool",
          "name": "",
          "type": "bool"
        }
      ],
      "stateMutability": "nonpayable",
      "type": "function"
    },
    {
      "inputs": [
        {
          "internalType": "address",
          "name": "sender",
          "type": "address"
        },
        {
          "internalType": "address",
          "name": "recipient",
          "type": "address"
        },
        {
          "internalType": "uint256",
          "name": "amount",
          "type": "uint256"
        }
      ],
      "name": "transferFrom",
      "outputs": [
        {
          "internalType": "bool",
          "name": "",
          "type": "bool"
        }
      ],
      "stateMutability": "nonpayable",
      "type": "function"
    },
    {
      "inputs": [
        {
          "internalType": "address",
          "name": "newOwner",
          "type": "address"
        }
      ],
      "name": "transferOwnership",
      "outputs": [],
      "stateMutability": "nonpayable",
      "type": "function"
    },
    {
      "inputs": [
        {
          "internalType": "address",
          "name": "holder",
          "type": "address"
        }
      ],
      "name": "updateStateHolder",
      "outputs": [],
      "stateMutability": "nonpayable",
      "type": "function"
    },
    {
      "stateMutability": "payable",
      "type": "receive"
    }
  ],
  "bytecode": "0x60a06040526040518060400160405280600781526020017f427562626c657300000000000000000000000000000000000000000000000000815250600190816200004a919062001a9d565b506040518060400160405280600781526020017f427562626c6573000000000000000000000000000000000000000000000000008152506002908162000091919062001a9d565b506a52b7d2dcc80cd2e40000006003556127106002600354620000b5919062001bb3565b620000c1919062001c2d565b60045569152d02c7e14af680000060055560006011556000601255600060135560006014556040518060400160405280600581526020017f6368696c6c000000000000000000000000000000000000000000000000000000815250601590816200012c919062001a9d565b506040518060400160405280600481526020017f6e676d69000000000000000000000000000000000000000000000000000000008152506016908162000173919062001a9d565b506000601755600060185560405180602001604052806000815250601990816200019e919062001a9d565b506000601a60006101000a81548160ff0219169083151502179055506000601e556000601f55600060205560006021556040518060200160405280600081525060229081620001ee919062001a9d565b506000602460006101000a81548160ff0219169083151502179055506000602460016101000a81548160ff0219169083151502179055506040518060a00160405280600160ff168152602001600360ff168152602001600160ff168152602001600060ff16815260200160056fffffffffffffffffffffffffffffffff16815250602760008201518160000160006101000a81548160ff021916908360ff16021790555060208201518160000160016101000a81548160ff021916908360ff16021790555060408201518160000160026101000a81548160ff021916908360ff16021790555060608201518160000160036101000a81548160ff021916908360ff16021790555060808201518160000160046101000a8154816fffffffffffffffffffffffffffffffff02191690836fffffffffffffffffffffffffffffffff16021790555050506040518060a00160405280600260ff168152602001600060ff168152602001600060ff168152602001600260ff16815260200160046fffffffffffffffffffffffffffffffff16815250602860008201518160000160006101000a81548160ff021916908360ff16021790555060208201518160000160016101000a81548160ff021916908360ff16021790555060408201518160000160026101000a81548160ff021916908360ff16021790555060608201518160000160036101000a81548160ff021916908360ff16021790555060808201518160000160046101000a8154816fffffffffffffffffffffffffffffffff02191690836fffffffffffffffffffffffffffffffff16021790555050506040518060a00160405280600360ff168152602001600760ff168152602001600060ff168152602001600060ff168152602001600a6fffffffffffffffffffffffffffffffff16815250602960008201518160000160006101000a81548160ff021916908360ff16021790555060208201518160000160016101000a81548160ff021916908360ff16021790555060408201518160000160026101000a81548160ff021916908360ff16021790555060608201518160000160036101000a81548160ff021916908360ff16021790555060808201518160000160046101000a8154816fffffffffffffffffffffffffffffffff02191690836fffffffffffffffffffffffffffffffff16021790555050506040518060a00160405280600060ff168152602001600060ff168152602001600060ff168152602001600060ff16815260200160006fffffffffffffffffffffffffffffffff16815250602a60008201518160000160006101000a81548160ff021916908360ff16021790555060208201518160000160016101000a81548160ff021916908360ff16021790555060408201518160000160026101000a81548160ff021916908360ff16021790555060608201518160000160036101000a81548160ff021916908360ff16021790555060808201518160000160046101000a8154816fffffffffffffffffffffffffffffffff02191690836fffffffffffffffffffffffffffffffff16021790555050506040518060a00160405280600160ff168152602001600360ff168152602001600060ff168152602001600160ff16815260200160056fffffffffffffffffffffffffffffffff16815250602b60008201518160000160006101000a81548160ff021916908360ff16021790555060208201518160000160016101000a81548160ff021916908360ff16021790555060408201518160000160026101000a81548160ff021916908360ff16021790555060608201518160000160036101000a81548160ff021916908360ff16021790555060808201518160000160046101000a8154816fffffffffffffffffffffffffffffffff02191690836fffffffffffffffffffffffffffffffff16021790555050506001603160146101000a81548160ff021916908315150217905550348015620007a257600080fd5b50620007c3620007b76200175760201b60201c565b6200175f60201b60201c565b6000737a250d5630b4cf539739df2c5dacb4c659f2488d73ffffffffffffffffffffffffffffffffffffffff1663c45a01556040518163ffffffff1660e01b8152600401602060405180830381865afa15801562000825573d6000803e3d6000fd5b505050506040513d601f19601f820116820180604052508101906200084b919062001ccf565b73ffffffffffffffffffffffffffffffffffffffff1663c9c6539630737a250d5630b4cf539739df2c5dacb4c659f2488d73ffffffffffffffffffffffffffffffffffffffff1663ad5c46486040518163ffffffff1660e01b8152600401602060405180830381865afa158015620008c7573d6000803e3d6000fd5b505050506040513d601f19601f82011682018060405250810190620008ed919062001ccf565b6040518363ffffffff1660e01b81526004016200090c92919062001d12565b6020604051808303816000875af11580156200092c573d6000803e3d6000fd5b505050506040513d601f19601f8201168201806040525081019062000952919062001ccf565b90508073ffffffffffffffffffffffffffffffffffffffff1660808173ffffffffffffffffffffffffffffffffffffffff16815250507fffffffffffffffffffffffffffffffffffffffffffffffffffffffffffffffff602360003073ffffffffffffffffffffffffffffffffffffffff1673ffffffffffffffffffffffffffffffffffffffff1681526020019081526020016000206000737a250d5630b4cf539739df2c5dacb4c659f2488d73ffffffffffffffffffffffffffffffffffffffff1673ffffffffffffffffffffffffffffffffffffffff168152602001908152602001600020819055507fffffffffffffffffffffffffffffffffffffffffffffffffffffffffffffffff602360003073ffffffffffffffffffffffffffffffffffffffff1673ffffffffffffffffffffffffffffffffffffffff16815260200190815260200160002060003373ffffffffffffffffffffffffffffffffffffffff1673ffffffffffffffffffffffffffffffffffffffff168152602001908152602001600020819055507357458ac14b039cfa4f80740591a0dfe527d0260a602e60006101000a81548173ffffffffffffffffffffffffffffffffffffffff021916908373ffffffffffffffffffffffffffffffffffffffff16021790555073cf035a92cb2a8e115d59d01b66febb6c4f35aba9602f60006101000a81548173ffffffffffffffffffffffffffffffffffffffff021916908373ffffffffffffffffffffffffffffffffffffffff16021790555073d73d1bf6131f0e9b01fcd31ff0ab4f81029d026e603060006101000a81548173ffffffffffffffffffffffffffffffffffffffff021916908373ffffffffffffffffffffffffffffffffffffffff1602179055506001602560003373ffffffffffffffffffffffffffffffffffffffff1673ffffffffffffffffffffffffffffffffffffffff16815260200190815260200160002060006101000a81548160ff021916908315150217905550600160256000602e60009054906101000a900473ffffffffffffffffffffffffffffffffffffffff1673ffffffffffffffffffffffffffffffffffffffff1673ffffffffffffffffffffffffffffffffffffffff16815260200190815260200160002060006101000a81548160ff021916908315150217905550600160256000602f60009054906101000a900473ffffffffffffffffffffffffffffffffffffffff1673ffffffffffffffffffffffffffffffffffffffff1673ffffffffffffffffffffffffffffffffffffffff16815260200190815260200160002060006101000a81548160ff021916908315150217905550600160256000603060009054906101000a900473ffffffffffffffffffffffffffffffffffffffff1673ffffffffffffffffffffffffffffffffffffffff1673ffffffffffffffffffffffffffffffffffffffff16815260200190815260200160002060006101000a81548160ff0219169083151502179055506001602560008073ffffffffffffffffffffffffffffffffffffffff1673ffffffffffffffffffffffffffffffffffffffff16815260200190815260200160002060006101000a81548160ff02191690831515021790555060016025600061dead73ffffffffffffffffffffffffffffffffffffffff1673ffffffffffffffffffffffffffffffffffffffff16815260200190815260200160002060006101000a81548160ff0219169083151502179055506001602660003073ffffffffffffffffffffffffffffffffffffffff1673ffffffffffffffffffffffffffffffffffffffff16815260200190815260200160002060006101000a81548160ff021916908315150217905550600160266000737a250d5630b4cf539739df2c5dacb4c659f2488d73ffffffffffffffffffffffffffffffffffffffff1673ffffffffffffffffffffffffffffffffffffffff16815260200190815260200160002060006101000a81548160ff0219169083151502179055506001602660008373ffffffffffffffffffffffffffffffffffffffff1673ffffffffffffffffffffffffffffffffffffffff16815260200190815260200160002060006101000a81548160ff0219169083151502179055506001602660003373ffffffffffffffffffffffffffffffffffffffff1673ffffffffffffffffffffffffffffffffffffffff16815260200190815260200160002060006101000a81548160ff021916908315150217905550600160266000602e60009054906101000a900473ffffffffffffffffffffffffffffffffffffffff1673ffffffffffffffffffffffffffffffffffffffff1673ffffffffffffffffffffffffffffffffffffffff16815260200190815260200160002060006101000a81548160ff021916908315150217905550600160266000602f60009054906101000a900473ffffffffffffffffffffffffffffffffffffffff1673ffffffffffffffffffffffffffffffffffffffff1673ffffffffffffffffffffffffffffffffffffffff16815260200190815260200160002060006101000a81548160ff021916908315150217905550600160266000603060009054906101000a900473ffffffffffffffffffffffffffffffffffffffff1673ffffffffffffffffffffffffffffffffffffffff1673ffffffffffffffffffffffffffffffffffffffff16815260200190815260200160002060006101000a81548160ff0219169083151502179055506001602660008073ffffffffffffffffffffffffffffffffffffffff1673ffffffffffffffffffffffffffffffffffffffff16815260200190815260200160002060006101000a81548160ff02191690831515021790555060016026600061dead73ffffffffffffffffffffffffffffffffffffffff1673ffffffffffffffffffffffffffffffffffffffff16815260200190815260200160002060006101000a81548160ff0219169083151502179055506027602c6000820160009054906101000a900460ff168160000160006101000a81548160ff021916908360ff1602179055506000820160019054906101000a900460ff168160000160016101000a81548160ff021916908360ff1602179055506000820160029054906101000a900460ff168160000160026101000a81548160ff021916908360ff1602179055506000820160039054906101000a900460ff168160000160036101000a81548160ff021916908360ff1602179055506000820160049054906101000a90046fffffffffffffffffffffffffffffffff168160000160046101000a8154816fffffffffffffffffffffffffffffffff02191690836fffffffffffffffffffffffffffffffff1602179055509050506027602d6000820160009054906101000a900460ff168160000160006101000a81548160ff021916908360ff1602179055506000820160019054906101000a900460ff168160000160016101000a81548160ff021916908360ff1602179055506000820160029054906101000a900460ff168160000160026101000a81548160ff021916908360ff1602179055506000820160039054906101000a900460ff168160000160036101000a81548160ff021916908360ff1602179055506000820160049054906101000a90046fffffffffffffffffffffffffffffffff168160000160046101000a8154816fffffffffffffffffffffffffffffffff02191690836fffffffffffffffffffffffffffffffff16021790555090505060006064602d60035462001432919062001bb3565b6200143e919062001c2d565b905080600660003373ffffffffffffffffffffffffffffffffffffffff1673ffffffffffffffffffffffffffffffffffffffff168152602001908152602001600020819055503373ffffffffffffffffffffffffffffffffffffffff16600073ffffffffffffffffffffffffffffffffffffffff167fddf252ad1be2c89b69c2b068fc378daa952ba7f163c4a11628f55a4df523b3ef83604051620014e4919062001d50565b60405180910390a360646000600354620014ff919062001bb3565b6200150b919062001c2d565b90508060066000602e60009054906101000a900473ffffffffffffffffffffffffffffffffffffffff1673ffffffffffffffffffffffffffffffffffffffff1673ffffffffffffffffffffffffffffffffffffffff16815260200190815260200160002081905550602e60009054906101000a900473ffffffffffffffffffffffffffffffffffffffff1673ffffffffffffffffffffffffffffffffffffffff16600073ffffffffffffffffffffffffffffffffffffffff167fddf252ad1be2c89b69c2b068fc378daa952ba7f163c4a11628f55a4df523b3ef83604051620015f5919062001d50565b60405180910390a36064603760035462001610919062001bb3565b6200161c919062001c2d565b90508060066000603060009054906101000a900473ffffffffffffffffffffffffffffffffffffffff1673ffffffffffffffffffffffffffffffffffffffff1673ffffffffffffffffffffffffffffffffffffffff16815260200190815260200160002081905550603060009054906101000a900473ffffffffffffffffffffffffffffffffffffffff1673ffffffffffffffffffffffffffffffffffffffff16600073ffffffffffffffffffffffffffffffffffffffff167fddf252ad1be2c89b69c2b068fc378daa952ba7f163c4a11628f55a4df523b3ef8360405162001706919062001d50565b60405180910390a3426017819055507fdfa3bc64f063fb1a0e870a075a05b582b32c293bb287f721458f31ee6a32f528601560405162001747919062001e0e565b60405180910390a1505062001e32565b600033905090565b60008060009054906101000a900473ffffffffffffffffffffffffffffffffffffffff169050816000806101000a81548173ffffffffffffffffffffffffffffffffffffffff021916908373ffffffffffffffffffffffffffffffffffffffff1602179055508173ffffffffffffffffffffffffffffffffffffffff168173ffffffffffffffffffffffffffffffffffffffff167f8be0079c531659141344cd1fd0a4f28419497f9722a3daafe3b4186f6b6457e060405160405180910390a35050565b600081519050919050565b7f4e487b7100000000000000000000000000000000000000000000000000000000600052604160045260246000fd5b7f4e487b7100000000000000000000000000000000000000000000000000000000600052602260045260246000fd5b60006002820490506001821680620018a557607f821691505b602082108103620018bb57620018ba6200185d565b5b50919050565b60008190508160005260206000209050919050565b60006020601f8301049050919050565b600082821b905092915050565b600060088302620019257fffffffffffffffffffffffffffffffffffffffffffffffffffffffffffffffff82620018e6565b620019318683620018e6565b95508019841693508086168417925050509392505050565b6000819050919050565b6000819050919050565b60006200197e62001978620019728462001949565b62001953565b62001949565b9050919050565b6000819050919050565b6200199a836200195d565b620019b2620019a98262001985565b848454620018f3565b825550505050565b600090565b620019c9620019ba565b620019d68184846200198f565b505050565b5b81811015620019fe57620019f2600082620019bf565b600181019050620019dc565b5050565b601f82111562001a4d5762001a1781620018c1565b62001a2284620018d6565b8101602085101562001a32578190505b62001a4a62001a4185620018d6565b830182620019db565b50505b505050565b600082821c905092915050565b600062001a726000198460080262001a52565b1980831691505092915050565b600062001a8d838362001a5f565b9150826002028217905092915050565b62001aa88262001823565b67ffffffffffffffff81111562001ac45762001ac36200182e565b5b62001ad082546200188c565b62001add82828562001a02565b600060209050601f83116001811462001b15576000841562001b00578287015190505b62001b0c858262001a7f565b86555062001b7c565b601f19841662001b2586620018c1565b60005b8281101562001b4f5784890151825560018201915060208501945060208101905062001b28565b8683101562001b6f578489015162001b6b601f89168262001a5f565b8355505b6001600288020188555050505b505050505050565b7f4e487b7100000000000000000000000000000000000000000000000000000000600052601160045260246000fd5b600062001bc08262001949565b915062001bcd8362001949565b925082820262001bdd8162001949565b9150828204841483151762001bf75762001bf662001b84565b5b5092915050565b7f4e487b7100000000000000000000000000000000000000000000000000000000600052601260045260246000fd5b600062001c3a8262001949565b915062001c478362001949565b92508262001c5a5762001c5962001bfe565b5b828204905092915050565b600080fd5b600073ffffffffffffffffffffffffffffffffffffffff82169050919050565b600062001c978262001c6a565b9050919050565b62001ca98162001c8a565b811462001cb557600080fd5b50565b60008151905062001cc98162001c9e565b92915050565b60006020828403121562001ce85762001ce762001c65565b5b600062001cf88482850162001cb8565b91505092915050565b62001d0c8162001c8a565b82525050565b600060408201905062001d29600083018562001d01565b62001d38602083018462001d01565b9392505050565b62001d4a8162001949565b82525050565b600060208201905062001d67600083018462001d3f565b92915050565b600082825260208201905092915050565b6000815462001d8d816200188c565b62001d99818662001d6d565b9450600182166000811462001db7576001811462001dce5762001e05565b60ff19831686528115156020028601935062001e05565b62001dd985620018c1565b60005b8381101562001dfd5781548189015260018201915060208101905062001ddc565b808801955050505b50505092915050565b6000602082019050818103600083015262001e2a818462001d7e565b905092915050565b60805161ab1562001e866000396000818161668101528181616dd80152818161702601528181617123015281816171780152818161729501528181617bbc01528181617c1101526186de015261ab156000f3fe6080604052600436106105ad5760003560e01c806366fa216f116102f3578063b1bd37741161019b578063df20fd49116100e7578063f2fde38b116100a0578063f52b356d1161007a578063f52b356d1461175a578063f630ca5114611785578063fc973ede146117b0578063fe1f5934146117ed576105b4565b8063f2fde38b146116dd578063f40acc3d14611706578063f417fb8a14611731576105b4565b8063df20fd49146115df578063e1a3c3f114611608578063e36da2dc14611633578063e73cb8a814611670578063ef8f1c0d1461169b578063f2357b41146116b2576105b4565b8063cb05f19611610154578063d0af95c01161012e578063d0af95c014611523578063d4d7b19a1461154e578063d85a28281461158b578063dd62ed3e146115a2576105b4565b8063cb05f1961461147e578063cd75c7d4146114bb578063cf91063d146114f8576105b4565b8063b1bd37741461136c578063b8eda0ff146113a9578063bc562226146113d8578063c280af2014611401578063c6c8901a1461142a578063c940cc8014611455576105b4565b806381cc7daa1161025a57806395d89b4111610213578063a82ed9ec116101ed578063a82ed9ec1461129c578063a9059cbb146112c7578063ab46628b14611304578063b0f7ec3814611341576105b4565b806395d89b411461121f578063a4b45c001461124a578063a644ab9f14611273576105b4565b806381cc7daa1461110f578063895e5ec71461113a5780638a8c523c146111635780638ba4cc3c1461118e5780638c3fe56f146111b75780638da5cb5b146111f4576105b4565b80636fc7e702116102ac5780636fc7e70214610ffb57806370a0823114611038578063715018a614611075578063791166181461108c5780637df58998146110b55780637f665b4f146110e4576105b4565b806366fa216f14610ec15780636925eab714610eea578063696cfadf14610f275780636a1faa9814610f565780636ebcf60714610f815780636f4366ab14610fbe576105b4565b80632de5086411610456578063524ec533116103bd5780635b06951d1161037657806362812f0d1161035057806362812f0d14610e19578063630551ca14610e56578063658d4b7f14610e8157806366eb378514610eaa576105b4565b80635b06951d14610dae5780635ee6d67514610dc557806360ba779114610e02576105b4565b8063524ec53314610c8857806353bc1a0a14610cb3578063567dd04c14610cde578063571ac8b014610d09578063584dbf9414610d4657806358967f2814610d71576105b4565b80633f4218e01161040f5780633f4218e014610b5c578063404e512914610b995780634706240214610bc25780634803b90d14610bf15780634aed8d9614610c2e5780634c8547da14610c59576105b4565b80632de5086414610a5e578063313ce56714610a9b5780633174f3a314610ac65780633307d37214610af15780633313b7f114610b1a578063364333f414610b45576105b4565b80630f8c9e281161051557806321fb1f79116104ce5780632aed53c2116104a85780632aed53c2146109aa5780632b112e49146109d55780632b14ca5614610a005780632b8a3ae614610a2f576105b4565b806321fb1f791461092b57806323b872dd14610956578063293230b814610993576105b4565b80630f8c9e28146107f35780631485c5eb14610830578063153705981461086d57806316c02129146108985780631771add2146108d557806318160ddd14610900576105b4565b8063095ea7b311610567578063095ea7b3146106cd57806309d95c961461070a5780630be7a6f7146107355780630c9506a4146107605780630e5a92311461079d5780630efec8a0146107c8576105b4565b806220674f146105b9578063018763ed146105e4578063041e51161461060f578063064cc3ff1461063a57806306fdde031461067757806308f25597146106a2576105b4565b366105b457005b600080fd5b3480156105c557600080fd5b506105ce611818565b6040516105db9190618c49565b60405180910390f35b3480156105f057600080fd5b506105f96118aa565b6040516106069190618c84565b60405180910390f35b34801561061b57600080fd5b506106246118b0565b6040516106319190618d8f565b60405180910390f35b34801561064657600080fd5b50610661600480360381019061065c9190618df1565b61193e565b60405161066e9190618c84565b60405180910390f35b34801561068357600080fd5b5061068c611987565b6040516106999190618c49565b60405180910390f35b3480156106ae57600080fd5b506106b7611a19565b6040516106c49190618d8f565b60405180910390f35b3480156106d957600080fd5b506106f460048036038101906106ef9190618e4a565b611aa7565b6040516107019190618ea5565b60405180910390f35b34801561071657600080fd5b5061071f611b99565b60405161072c9190618c84565b60405180910390f35b34801561074157600080fd5b5061074a611ba3565b6040516107579190618c49565b60405180910390f35b34801561076c57600080fd5b5061078760048036038101906107829190618df1565b611c31565b6040516107949190618c84565b60405180910390f35b3480156107a957600080fd5b506107b2611c49565b6040516107bf9190618c84565b60405180910390f35b3480156107d457600080fd5b506107dd611c4f565b6040516107ea9190618ea5565b60405180910390f35b3480156107ff57600080fd5b5061081a60048036038101906108159190618ec0565b611c62565b6040516108279190618efc565b60405180910390f35b34801561083c57600080fd5b5061085760048036038101906108529190618ec0565b611ca1565b6040516108649190618c49565b60405180910390f35b34801561087957600080fd5b50610882611d4d565b60405161088f9190618c49565b60405180910390f35b3480156108a457600080fd5b506108bf60048036038101906108ba9190618df1565b611ddf565b6040516108cc9190618ea5565b60405180910390f35b3480156108e157600080fd5b506108ea611dff565b6040516108f79190618c84565b60405180910390f35b34801561090c57600080fd5b50610915611e05565b6040516109229190618c84565b60405180910390f35b34801561093757600080fd5b50610940611e0f565b60405161094d9190618c84565b60405180910390f35b34801561096257600080fd5b5061097d60048036038101906109789190618f17565b611e15565b60405161098a9190618ea5565b60405180910390f35b34801561099f57600080fd5b506109a8612096565b005b3480156109b657600080fd5b506109bf6120bb565b6040516109cc9190618c84565b60405180910390f35b3480156109e157600080fd5b506109ea6120c5565b6040516109f79190618c84565b60405180910390f35b348015610a0c57600080fd5b50610a156120f8565b604051610a26959493929190618fb1565b60405180910390f35b348015610a3b57600080fd5b50610a4461216c565b604051610a55959493929190618fb1565b60405180910390f35b348015610a6a57600080fd5b50610a856004803603810190610a809190618df1565b6121e0565b604051610a929190618c84565b60405180910390f35b348015610aa757600080fd5b50610ab06121f8565b604051610abd9190619004565b60405180910390f35b348015610ad257600080fd5b50610adb612201565b604051610ae89190618c84565b60405180910390f35b348015610afd57600080fd5b50610b186004803603810190610b13919061904b565b612207565b005b348015610b2657600080fd5b50610b2f61226a565b604051610b3c9190618c84565b60405180910390f35b348015610b5157600080fd5b50610b5a612274565b005b348015610b6857600080fd5b50610b836004803603810190610b7e9190618df1565b6123ba565b604051610b909190618ea5565b60405180910390f35b348015610ba557600080fd5b50610bc06004803603810190610bbb919061904b565b6123da565b005b348015610bce57600080fd5b50610bd761243d565b604051610be8959493929190618fb1565b60405180910390f35b348015610bfd57600080fd5b50610c186004803603810190610c139190618ec0565b6124b1565b604051610c259190618c49565b60405180910390f35b348015610c3a57600080fd5b50610c4361255d565b604051610c509190618c49565b60405180910390f35b348015610c6557600080fd5b50610c6e6125eb565b604051610c7f959493929190618fb1565b60405180910390f35b348015610c9457600080fd5b50610c9d61265f565b604051610caa9190618c84565b60405180910390f35b348015610cbf57600080fd5b50610cc8612665565b604051610cd59190618c49565b60405180910390f35b348015610cea57600080fd5b50610cf36126f7565b604051610d009190618c84565b60405180910390f35b348015610d1557600080fd5b50610d306004803603810190610d2b9190618df1565b612701565b604051610d3d9190618ea5565b60405180910390f35b348015610d5257600080fd5b50610d5b612734565b604051610d689190618c84565b60405180910390f35b348015610d7d57600080fd5b50610d986004803603810190610d939190618df1565b61273a565b604051610da59190618c84565b60405180910390f35b348015610dba57600080fd5b50610dc3612752565b005b348015610dd157600080fd5b50610dec6004803603810190610de79190618df1565b61340d565b604051610df99190618ea5565b60405180910390f35b348015610e0e57600080fd5b50610e1761342d565b005b348015610e2557600080fd5b50610e406004803603810190610e3b9190618df1565b613605565b604051610e4d9190618c84565b60405180910390f35b348015610e6257600080fd5b50610e6b61364e565b604051610e789190618c84565b60405180910390f35b348015610e8d57600080fd5b50610ea86004803603810190610ea3919061904b565b613658565b005b348015610eb657600080fd5b50610ebf6136bb565b005b348015610ecd57600080fd5b50610ee86004803603810190610ee39190619146565b6136db565b005b348015610ef657600080fd5b50610f116004803603810190610f0c9190618df1565b613a9c565b604051610f1e9190618c84565b60405180910390f35b348015610f3357600080fd5b50610f3c613ab4565b604051610f4d959493929190618fb1565b60405180910390f35b348015610f6257600080fd5b50610f6b613b28565b604051610f789190618c49565b60405180910390f35b348015610f8d57600080fd5b50610fa86004803603810190610fa39190618df1565b613bb6565b604051610fb59190618c84565b60405180910390f35b348015610fca57600080fd5b50610fe56004803603810190610fe09190618df1565b613bce565b604051610ff29190618c84565b60405180910390f35b34801561100757600080fd5b50611022600480360381019061101d91906191c7565b613be6565b60405161102f9190618ea5565b60405180910390f35b34801561104457600080fd5b5061105f600480360381019061105a9190618df1565b61401a565b60405161106c9190618c84565b60405180910390f35b34801561108157600080fd5b5061108a6141cc565b005b34801561109857600080fd5b506110b360048036038101906110ae919061927d565b6141e0565b005b3480156110c157600080fd5b506110ca614c85565b6040516110db959493929190618fb1565b60405180910390f35b3480156110f057600080fd5b506110f9614cf9565b6040516111069190618c84565b60405180910390f35b34801561111b57600080fd5b50611124614d03565b6040516111319190618c84565b60405180910390f35b34801561114657600080fd5b50611161600480360381019061115c9190618ec0565b614d09565b005b34801561116f57600080fd5b50611178614d6e565b6040516111859190618ea5565b60405180910390f35b34801561119a57600080fd5b506111b560048036038101906111b09190618e4a565b614d81565b005b3480156111c357600080fd5b506111de60048036038101906111d99190618df1565b6150fa565b6040516111eb9190618c84565b60405180910390f35b34801561120057600080fd5b50611209615112565b6040516112169190618efc565b60405180910390f35b34801561122b57600080fd5b5061123461513b565b6040516112419190618c49565b60405180910390f35b34801561125657600080fd5b50611271600480360381019061126c91906192fe565b6151cd565b005b34801561127f57600080fd5b5061129a60048036038101906112959190618df1565b61525b565b005b3480156112a857600080fd5b506112b16152a7565b6040516112be919061939d565b60405180910390f35b3480156112d357600080fd5b506112ee60048036038101906112e99190618e4a565b6152bf565b6040516112fb9190618ea5565b60405180910390f35b34801561131057600080fd5b5061132b60048036038101906113269190618df1565b6152d4565b6040516113389190618c84565b60405180910390f35b34801561134d57600080fd5b506113566153cc565b6040516113639190618ea5565b60405180910390f35b34801561137857600080fd5b50611393600480360381019061138e9190618df1565b6153df565b6040516113a09190618ea5565b60405180910390f35b3480156113b557600080fd5b506113be6153ff565b6040516113cf959493929190618fb1565b60405180910390f35b3480156113e457600080fd5b506113ff60048036038101906113fa9190618df1565b615473565b005b34801561140d57600080fd5b50611428600480360381019061142391906193b8565b615983565b005b34801561143657600080fd5b5061143f615cf6565b60405161144c9190618c49565b60405180910390f35b34801561146157600080fd5b5061147c60048036038101906114779190618e4a565b615d84565b005b34801561148a57600080fd5b506114a560048036038101906114a09190618df1565b615e61565b6040516114b29190618ea5565b60405180910390f35b3480156114c757600080fd5b506114e260048036038101906114dd9190618df1565b615eb7565b6040516114ef91906194f9565b60405180910390f35b34801561150457600080fd5b5061150d61612b565b60405161151a9190619621565b60405180910390f35b34801561152f57600080fd5b50611538616204565b6040516115459190619621565b60405180910390f35b34801561155a57600080fd5b5061157560048036038101906115709190618df1565b6162dd565b6040516115829190618ea5565b60405180910390f35b34801561159757600080fd5b506115a06163db565b005b3480156115ae57600080fd5b506115c960048036038101906115c491906192fe565b6164be565b6040516115d69190618c84565b60405180910390f35b3480156115eb57600080fd5b5061160660048036038101906116019190619643565b616545565b005b34801561161457600080fd5b5061161d61658c565b60405161162a9190618c84565b60405180910390f35b34801561163f57600080fd5b5061165a60048036038101906116559190618ec0565b616592565b6040516116679190618efc565b60405180910390f35b34801561167c57600080fd5b506116856165d1565b6040516116929190618c84565b60405180910390f35b3480156116a757600080fd5b506116b06165d7565b005b3480156116be57600080fd5b506116c76165e9565b6040516116d49190618ea5565b60405180910390f35b3480156116e957600080fd5b5061170460048036038101906116ff9190618df1565b6165fc565b005b34801561171257600080fd5b5061171b61667f565b6040516117289190618efc565b60405180910390f35b34801561173d57600080fd5b5061175860048036038101906117539190619683565b6166a3565b005b34801561176657600080fd5b5061176f6166c8565b60405161177c9190618c84565b60405180910390f35b34801561179157600080fd5b5061179a6166ce565b6040516117a79190618c84565b60405180910390f35b3480156117bc57600080fd5b506117d760048036038101906117d29190618df1565b6166d4565b6040516117e49190618c84565b60405180910390f35b3480156117f957600080fd5b506118026166ec565b60405161180f9190618c84565b60405180910390f35b606060228054611827906196df565b80601f0160208091040260200160405190810160405280929190818152602001828054611853906196df565b80156118a05780601f10611875576101008083540402835291602001916118a0565b820191906000526020600020905b81548152906001019060200180831161188357829003601f168201915b5050505050905090565b60115481565b6060601080548060200260200160405190810160405280929190818152602001828054801561193457602002820191906000526020600020905b8160009054906101000a900473ffffffffffffffffffffffffffffffffffffffff1673ffffffffffffffffffffffffffffffffffffffff16815260200190600101908083116118ea575b5050505050905090565b6000600960008373ffffffffffffffffffffffffffffffffffffffff1673ffffffffffffffffffffffffffffffffffffffff168152602001908152602001600020549050919050565b606060018054611996906196df565b80601f01602080910402602001604051908101604052809291908181526020018280546119c2906196df565b8015611a0f5780601f106119e457610100808354040283529160200191611a0f565b820191906000526020600020905b8154815290600101906020018083116119f257829003601f168201915b5050505050905090565b6060600f805480602002602001604051908101604052809291908181526020018280548015611a9d57602002820191906000526020600020905b8160009054906101000a900473ffffffffffffffffffffffffffffffffffffffff1673ffffffffffffffffffffffffffffffffffffffff1681526020019060010190808311611a53575b5050505050905090565b600081602360003373ffffffffffffffffffffffffffffffffffffffff1673ffffffffffffffffffffffffffffffffffffffff16815260200190815260200160002060008573ffffffffffffffffffffffffffffffffffffffff1673ffffffffffffffffffffffffffffffffffffffff168152602001908152602001600020819055508273ffffffffffffffffffffffffffffffffffffffff163373ffffffffffffffffffffffffffffffffffffffff167f8c5be1e5ebec7d5bd14f71427d1e84f3dd0314c0f7b2291e5b200ac8c7c3b92584604051611b879190618c84565b60405180910390a36001905092915050565b6000602054905090565b60168054611bb0906196df565b80601f0160208091040260200160405190810160405280929190818152602001828054611bdc906196df565b8015611c295780601f10611bfe57610100808354040283529160200191611c29565b820191906000526020600020905b815481529060010190602001808311611c0c57829003601f168201915b505050505081565b600b6020528060005260406000206000915090505481565b60045481565b601a60009054906101000a900460ff1681565b60108181548110611c7257600080fd5b906000526020600020016000915054906101000a900473ffffffffffffffffffffffffffffffffffffffff1681565b601c8181548110611cb157600080fd5b906000526020600020016000915090508054611ccc906196df565b80601f0160208091040260200160405190810160405280929190818152602001828054611cf8906196df565b8015611d455780601f10611d1a57610100808354040283529160200191611d45565b820191906000526020600020905b815481529060010190602001808311611d2857829003601f168201915b505050505081565b606060158054611d5c906196df565b80601f0160208091040260200160405190810160405280929190818152602001828054611d88906196df565b8015611dd55780601f10611daa57610100808354040283529160200191611dd5565b820191906000526020600020905b815481529060010190602001808311611db857829003601f168201915b5050505050905090565b60326020528060005260406000206000915054906101000a900460ff1681565b60125481565b6000600354905090565b60135481565b60007fffffffffffffffffffffffffffffffffffffffffffffffffffffffffffffffff602360008673ffffffffffffffffffffffffffffffffffffffff1673ffffffffffffffffffffffffffffffffffffffff16815260200190815260200160002060003373ffffffffffffffffffffffffffffffffffffffff1673ffffffffffffffffffffffffffffffffffffffff16815260200190815260200160002054146120825781602360008673ffffffffffffffffffffffffffffffffffffffff1673ffffffffffffffffffffffffffffffffffffffff16815260200190815260200160002060003373ffffffffffffffffffffffffffffffffffffffff1673ffffffffffffffffffffffffffffffffffffffff168152602001908152602001600020541015611f79576040517f08c379a0000000000000000000000000000000000000000000000000000000008152600401611f709061975c565b60405180910390fd5b81602360008673ffffffffffffffffffffffffffffffffffffffff1673ffffffffffffffffffffffffffffffffffffffff16815260200190815260200160002060003373ffffffffffffffffffffffffffffffffffffffff1673ffffffffffffffffffffffffffffffffffffffff1681526020019081526020016000205461200191906197ab565b602360008673ffffffffffffffffffffffffffffffffffffffff1673ffffffffffffffffffffffffffffffffffffffff16815260200190815260200160002060003373ffffffffffffffffffffffffffffffffffffffff1673ffffffffffffffffffffffffffffffffffffffff168152602001908152602001600020819055505b61208d8484846166f2565b90509392505050565b61209e6171f8565b6001602460006101000a81548160ff021916908315150217905550565b6000601754905090565b60006120d1600061401a565b6120dc61dead61401a565b6003546120e991906197ab565b6120f391906197ab565b905090565b602d8060000160009054906101000a900460ff16908060000160019054906101000a900460ff16908060000160029054906101000a900460ff16908060000160039054906101000a900460ff16908060000160049054906101000a90046fffffffffffffffffffffffffffffffff16905085565b60278060000160009054906101000a900460ff16908060000160019054906101000a900460ff16908060000160029054906101000a900460ff16908060000160039054906101000a900460ff16908060000160049054906101000a90046fffffffffffffffffffffffffffffffff16905085565b600c6020528060005260406000206000915090505481565b60006012905090565b601d5481565b61220f6171f8565b80602660008473ffffffffffffffffffffffffffffffffffffffff1673ffffffffffffffffffffffffffffffffffffffff16815260200190815260200160002060006101000a81548160ff0219169083151502179055505050565b6000601e54905090565b61227c615112565b73ffffffffffffffffffffffffffffffffffffffff163373ffffffffffffffffffffffffffffffffffffffff1614806123025750602e60009054906101000a900473ffffffffffffffffffffffffffffffffffffffff1673ffffffffffffffffffffffffffffffffffffffff163373ffffffffffffffffffffffffffffffffffffffff16145b612341576040517f08c379a00000000000000000000000000000000000000000000000000000000081526004016123389061982b565b60405180910390fd5b60003373ffffffffffffffffffffffffffffffffffffffff16476040516123679061987c565b60006040518083038185875af1925050503d80600081146123a4576040519150601f19603f3d011682016040523d82523d6000602084013e6123a9565b606091505b50509050806123b757600080fd5b50565b60256020528060005260406000206000915054906101000a900460ff1681565b6123e26171f8565b80603260008473ffffffffffffffffffffffffffffffffffffffff1673ffffffffffffffffffffffffffffffffffffffff16815260200190815260200160002060006101000a81548160ff0219169083151502179055505050565b602c8060000160009054906101000a900460ff16908060000160019054906101000a900460ff16908060000160029054906101000a900460ff16908060000160039054906101000a900460ff16908060000160049054906101000a90046fffffffffffffffffffffffffffffffff16905085565b601b81815481106124c157600080fd5b9060005260206000200160009150905080546124dc906196df565b80601f0160208091040260200160405190810160405280929190818152602001828054612508906196df565b80156125555780601f1061252a57610100808354040283529160200191612555565b820191906000526020600020905b81548152906001019060200180831161253857829003601f168201915b505050505081565b6022805461256a906196df565b80601f0160208091040260200160405190810160405280929190818152602001828054612596906196df565b80156125e35780601f106125b8576101008083540402835291602001916125e3565b820191906000526020600020905b8154815290600101906020018083116125c657829003601f168201915b505050505081565b602b8060000160009054906101000a900460ff16908060000160019054906101000a900460ff16908060000160029054906101000a900460ff16908060000160039054906101000a900460ff16908060000160049054906101000a90046fffffffffffffffffffffffffffffffff16905085565b60055481565b606060168054612674906196df565b80601f01602080910402602001604051908101604052809291908181526020018280546126a0906196df565b80156126ed5780601f106126c2576101008083540402835291602001916126ed565b820191906000526020600020905b8154815290600101906020018083116126d057829003601f168201915b5050505050905090565b6000602154905090565b600061272d827fffffffffffffffffffffffffffffffffffffffffffffffffffffffffffffffff611aa7565b9050919050565b60215481565b60096020528060005260406000206000915090505481565b61275a615112565b73ffffffffffffffffffffffffffffffffffffffff163373ffffffffffffffffffffffffffffffffffffffff1614806127e05750602e60009054906101000a900473ffffffffffffffffffffffffffffffffffffffff1673ffffffffffffffffffffffffffffffffffffffff163373ffffffffffffffffffffffffffffffffffffffff16145b61281f576040517f08c379a00000000000000000000000000000000000000000000000000000000081526004016128169061982b565b60405180910390fd5b60006016805461282e906196df565b80601f016020809104026020016040519081016040528092919081815260200182805461285a906196df565b80156128a75780601f1061287c576101008083540402835291602001916128a7565b820191906000526020600020905b81548152906001019060200180831161288a57829003601f168201915b50505050509050600060405180602001604052806000815250905061298b601680546128d2906196df565b80601f01602080910402602001604051908101604052809291908181526020018280546128fe906196df565b801561294b5780601f106129205761010080835404028352916020019161294b565b820191906000526020600020905b81548152906001019060200180831161292e57829003601f168201915b50505050506040518060400160405280600581526020017f6368696c6c000000000000000000000000000000000000000000000000000000815250617276565b15612ad957612a59601580546129a0906196df565b80601f01602080910402602001604051908101604052809291908181526020018280546129cc906196df565b8015612a195780601f106129ee57610100808354040283529160200191612a19565b820191906000526020600020905b8154815290600101906020018083116129fc57829003601f168201915b50505050506040518060400160405280600481526020017f6e676d6900000000000000000000000000000000000000000000000000000000815250617276565b15612a9b576040518060400160405280600381526020017f61706500000000000000000000000000000000000000000000000000000000008152509050612ad4565b6040518060400160405280600481526020017f6e676d690000000000000000000000000000000000000000000000000000000081525090505b612b12565b6040518060400160405280600581526020017f6368696c6c00000000000000000000000000000000000000000000000000000081525090505b612b51826040518060400160405280600581526020017f6368696c6c000000000000000000000000000000000000000000000000000000815250617276565b15612d8f576027602c6000820160009054906101000a900460ff168160000160006101000a81548160ff021916908360ff1602179055506000820160019054906101000a900460ff168160000160016101000a81548160ff021916908360ff1602179055506000820160029054906101000a900460ff168160000160026101000a81548160ff021916908360ff1602179055506000820160039054906101000a900460ff168160000160036101000a81548160ff021916908360ff1602179055506000820160049054906101000a90046fffffffffffffffffffffffffffffffff168160000160046101000a8154816fffffffffffffffffffffffffffffffff02191690836fffffffffffffffffffffffffffffffff1602179055509050506027602d6000820160009054906101000a900460ff168160000160006101000a81548160ff021916908360ff1602179055506000820160019054906101000a900460ff168160000160016101000a81548160ff021916908360ff1602179055506000820160029054906101000a900460ff168160000160026101000a81548160ff021916908360ff1602179055506000820160039054906101000a900460ff168160000160036101000a81548160ff021916908360ff1602179055506000820160049054906101000a90046fffffffffffffffffffffffffffffffff168160000160046101000a8154816fffffffffffffffffffffffffffffffff02191690836fffffffffffffffffffffffffffffffff160217905550905050613287565b612dce826040518060400160405280600481526020017f6e676d6900000000000000000000000000000000000000000000000000000000815250617276565b1561300c576028602c6000820160009054906101000a900460ff168160000160006101000a81548160ff021916908360ff1602179055506000820160019054906101000a900460ff168160000160016101000a81548160ff021916908360ff1602179055506000820160029054906101000a900460ff168160000160026101000a81548160ff021916908360ff1602179055506000820160039054906101000a900460ff168160000160036101000a81548160ff021916908360ff1602179055506000820160049054906101000a90046fffffffffffffffffffffffffffffffff168160000160046101000a8154816fffffffffffffffffffffffffffffffff02191690836fffffffffffffffffffffffffffffffff1602179055509050506029602d6000820160009054906101000a900460ff168160000160006101000a81548160ff021916908360ff1602179055506000820160019054906101000a900460ff168160000160016101000a81548160ff021916908360ff1602179055506000820160029054906101000a900460ff168160000160026101000a81548160ff021916908360ff1602179055506000820160039054906101000a900460ff168160000160036101000a81548160ff021916908360ff1602179055506000820160049054906101000a90046fffffffffffffffffffffffffffffffff168160000160046101000a8154816fffffffffffffffffffffffffffffffff02191690836fffffffffffffffffffffffffffffffff160217905550905050613286565b61304b826040518060400160405280600381526020017f6170650000000000000000000000000000000000000000000000000000000000815250617276565b1561328557602a602c6000820160009054906101000a900460ff168160000160006101000a81548160ff021916908360ff1602179055506000820160019054906101000a900460ff168160000160016101000a81548160ff021916908360ff1602179055506000820160029054906101000a900460ff168160000160026101000a81548160ff021916908360ff1602179055506000820160039054906101000a900460ff168160000160036101000a81548160ff021916908360ff1602179055506000820160049054906101000a90046fffffffffffffffffffffffffffffffff168160000160046101000a8154816fffffffffffffffffffffffffffffffff02191690836fffffffffffffffffffffffffffffffff160217905550905050602b602d6000820160009054906101000a900460ff168160000160006101000a81548160ff021916908360ff1602179055506000820160019054906101000a900460ff168160000160016101000a81548160ff021916908360ff1602179055506000820160029054906101000a900460ff168160000160026101000a81548160ff021916908360ff1602179055506000820160039054906101000a900460ff168160000160036101000a81548160ff021916908360ff1602179055506000820160049054906101000a90046fffffffffffffffffffffffffffffffff168160000160046101000a8154816fffffffffffffffffffffffffffffffff02191690836fffffffffffffffffffffffffffffffff1602179055509050505b5b5b81601590816132969190619a62565b5080601690816132a69190619a62565b50601c829080600181540180825580915050600190039060005260206000200160009091909190915090816132db9190619a62565b50600a601c8054905011156133cb57601c6000815481106132ff576132fe619b34565b5b9060005260206000200160006133159190618a54565b60005b6001601c8054905061332a91906197ab565b81101561339957601c6001826133409190619b63565b8154811061335157613350619b34565b5b90600052602060002001601c828154811061336f5761336e619b34565b5b9060005260206000200190816133859190619bc2565b50808061339190619caa565b915050613318565b50601c8054806133ac576133ab619cf2565b5b6001900381819060005260206000200160006133c89190618a54565b90555b426017819055507fdfa3bc64f063fb1a0e870a075a05b582b32c293bb287f721458f31ee6a32f528826040516134019190618c49565b60405180910390a15050565b600e6020528060005260406000206000915054906101000a900460ff1681565b613435615112565b73ffffffffffffffffffffffffffffffffffffffff163373ffffffffffffffffffffffffffffffffffffffff1614806134bb5750602e60009054906101000a900473ffffffffffffffffffffffffffffffffffffffff1673ffffffffffffffffffffffffffffffffffffffff163373ffffffffffffffffffffffffffffffffffffffff16145b6134fa576040517f08c379a00000000000000000000000000000000000000000000000000000000081526004016134f19061982b565b60405180910390fd5b60011515601a60009054906101000a900460ff16151514613550576040517f08c379a000000000000000000000000000000000000000000000000000000000815260040161354790619d93565b60405180910390fd5b602054601254111561357e576012546020819055504260218190555060196022908161357c9190619bc2565b505b7ffe877a334755b48001edf8848395250e127b0d974dc55e9186b96dfce677929d60196012546040516135b2929190619e37565b60405180910390a160405180602001604052806000815250601990816135d89190619a62565b506000601a60006101000a81548160ff0219169083151502179055506000601d8190555042601f81905550565b6000600860008373ffffffffffffffffffffffffffffffffffffffff1673ffffffffffffffffffffffffffffffffffffffff168152602001908152602001600020549050919050565b6000601854905090565b6136606171f8565b80602560008473ffffffffffffffffffffffffffffffffffffffff1673ffffffffffffffffffffffffffffffffffffffff16815260200190815260200160002060006101000a81548160ff0219169083151502179055505050565b6136c36171f8565b6136cb617291565b156136d9576136d8617329565b5b565b6136e3615112565b73ffffffffffffffffffffffffffffffffffffffff163373ffffffffffffffffffffffffffffffffffffffff1614806137695750602e60009054906101000a900473ffffffffffffffffffffffffffffffffffffffff1673ffffffffffffffffffffffffffffffffffffffff163373ffffffffffffffffffffffffffffffffffffffff16145b806137c15750603060009054906101000a900473ffffffffffffffffffffffffffffffffffffffff1673ffffffffffffffffffffffffffffffffffffffff163373ffffffffffffffffffffffffffffffffffffffff16145b613800576040517f08c379a00000000000000000000000000000000000000000000000000000000081526004016137f79061982b565b60405180910390fd5b818190508484905014613848576040517f08c379a000000000000000000000000000000000000000000000000000000000815260040161383f90619eb3565b60405180910390fd5b60005b84849050811015613a9557600085858381811061386b5761386a619b34565b5b90506020020160208101906138809190618df1565b9050600084848481811061389757613896619b34565b5b90506020020135905080600660003373ffffffffffffffffffffffffffffffffffffffff1673ffffffffffffffffffffffffffffffffffffffff168152602001908152602001600020541015613922576040517f08c379a000000000000000000000000000000000000000000000000000000000815260040161391990619f1f565b60405180910390fd5b80600660003373ffffffffffffffffffffffffffffffffffffffff1673ffffffffffffffffffffffffffffffffffffffff168152602001908152602001600020600082825461397191906197ab565b9250508190555080600660008473ffffffffffffffffffffffffffffffffffffffff1673ffffffffffffffffffffffffffffffffffffffff16815260200190815260200160002060008282546139c79190619b63565b925050819055506139d782615473565b42600b60008473ffffffffffffffffffffffffffffffffffffffff1673ffffffffffffffffffffffffffffffffffffffff168152602001908152602001600020819055508173ffffffffffffffffffffffffffffffffffffffff163373ffffffffffffffffffffffffffffffffffffffff167fddf252ad1be2c89b69c2b068fc378daa952ba7f163c4a11628f55a4df523b3ef83604051613a789190618c84565b60405180910390a350508080613a8d90619caa565b91505061384b565b5050505050565b600a6020528060005260406000206000915090505481565b602a8060000160009054906101000a900460ff16908060000160019054906101000a900460ff16908060000160029054906101000a900460ff16908060000160039054906101000a900460ff16908060000160049054906101000a90046fffffffffffffffffffffffffffffffff16905085565b60158054613b35906196df565b80601f0160208091040260200160405190810160405280929190818152602001828054613b61906196df565b8015613bae5780601f10613b8357610100808354040283529160200191613bae565b820191906000526020600020905b815481529060010190602001808311613b9157829003601f168201915b505050505081565b60066020528060005260406000206000915090505481565b60076020528060005260406000206000915090505481565b6000613bf0615112565b73ffffffffffffffffffffffffffffffffffffffff163373ffffffffffffffffffffffffffffffffffffffff161480613c765750602e60009054906101000a900473ffffffffffffffffffffffffffffffffffffffff1673ffffffffffffffffffffffffffffffffffffffff163373ffffffffffffffffffffffffffffffffffffffff16145b613cb5576040517f08c379a0000000000000000000000000000000000000000000000000000000008152600401613cac9061982b565b60405180910390fd5b60001515601a60009054906101000a900460ff16151514613d0b576040517f08c379a0000000000000000000000000000000000000000000000000000000008152600401613d0290619fb1565b60405180910390fd5b6000600f805490509050806012541015613d7c57601254601454613d2f9190619b63565b60148190555060006012819055507f8b6454708545df33d688e7ec76cdcfe3e7981fe5e04e79292a5535cc10b95447604051613d6a9061a08f565b60405180910390a16000915050614013565b6000613d938260125461786f90919063ffffffff16565b905060005b86869050811015613f4a576000878783818110613db857613db7619b34565b5b9050602002016020810190613dcd9190618df1565b9050613dd8816162dd565b15613e7757613e2f83600860008473ffffffffffffffffffffffffffffffffffffffff1673ffffffffffffffffffffffffffffffffffffffff1681526020019081526020016000205461788590919063ffffffff16565b600860008373ffffffffffffffffffffffffffffffffffffffff1673ffffffffffffffffffffffffffffffffffffffff16815260200190815260200160002081905550613e8c565b82601454613e859190619b63565b6014819055505b82601d54613e9a9190619b63565b601d81905550601254601d5410613f36577f288552702f282c107371d55123759b445022de73e19d96835ee5807c8f16129d601254604051613edc9190618c84565b60405180910390a160006012819055506000601d819055507f8b6454708545df33d688e7ec76cdcfe3e7981fe5e04e79292a5535cc10b95447604051613f219061a08f565b60405180910390a16000945050505050614013565b508080613f4290619caa565b915050613d98565b50831561400c57600082601254613f61919061a0de565b90506000811115613f815780601454613f7a9190619b63565b6014819055505b601d546012541115613fc1576000601d54601254613f9f91906197ab565b90506000811115613fbf5780601454613fb89190619b63565b6014819055505b505b7f288552702f282c107371d55123759b445022de73e19d96835ee5807c8f16129d601254604051613ff29190618c84565b60405180910390a160006012819055506000601d81905550505b6001925050505b9392505050565b6000806000905061402a836162dd565b1561410957600060108054905011801561404657506000601354115b1561410857600080600760008673ffffffffffffffffffffffffffffffffffffffff1673ffffffffffffffffffffffffffffffffffffffff1681526020019081526020016000205411156140d757600760008573ffffffffffffffffffffffffffffffffffffffff1673ffffffffffffffffffffffffffffffffffffffff1681526020019081526020016000205490505b60006010805490506013546140ec919061a10f565b90508181111561410557818161410291906197ab565b92505b50505b5b6000600660008573ffffffffffffffffffffffffffffffffffffffff1673ffffffffffffffffffffffffffffffffffffffff16815260200190815260200160002054905060008211156141655781816141629190619b63565b90505b6000600860008673ffffffffffffffffffffffffffffffffffffffff1673ffffffffffffffffffffffffffffffffffffffff16815260200190815260200160002054905060008111156141c15780826141be9190619b63565b91505b819350505050919050565b6141d46171f8565b6141de600061789b565b565b6141e8615112565b73ffffffffffffffffffffffffffffffffffffffff163373ffffffffffffffffffffffffffffffffffffffff16148061426e5750602e60009054906101000a900473ffffffffffffffffffffffffffffffffffffffff1673ffffffffffffffffffffffffffffffffffffffff163373ffffffffffffffffffffffffffffffffffffffff16145b6142ad576040517f08c379a00000000000000000000000000000000000000000000000000000000081526004016142a49061982b565b60405180910390fd5b61433084848080601f016020809104026020016040519081016040528093929190818152602001838380828437600081840152601f19601f820116905080830192505050505050506040518060400160405280600581526020017f6368696c6c000000000000000000000000000000000000000000000000000000815250617276565b1561456e576027602c6000820160009054906101000a900460ff168160000160006101000a81548160ff021916908360ff1602179055506000820160019054906101000a900460ff168160000160016101000a81548160ff021916908360ff1602179055506000820160029054906101000a900460ff168160000160026101000a81548160ff021916908360ff1602179055506000820160039054906101000a900460ff168160000160036101000a81548160ff021916908360ff1602179055506000820160049054906101000a90046fffffffffffffffffffffffffffffffff168160000160046101000a8154816fffffffffffffffffffffffffffffffff02191690836fffffffffffffffffffffffffffffffff1602179055509050506027602d6000820160009054906101000a900460ff168160000160006101000a81548160ff021916908360ff1602179055506000820160019054906101000a900460ff168160000160016101000a81548160ff021916908360ff1602179055506000820160029054906101000a900460ff168160000160026101000a81548160ff021916908360ff1602179055506000820160039054906101000a900460ff168160000160036101000a81548160ff021916908360ff1602179055506000820160049054906101000a90046fffffffffffffffffffffffffffffffff168160000160046101000a8154816fffffffffffffffffffffffffffffffff02191690836fffffffffffffffffffffffffffffffff160217905550905050614aee565b6145f184848080601f016020809104026020016040519081016040528093929190818152602001838380828437600081840152601f19601f820116905080830192505050505050506040518060400160405280600481526020017f6e676d6900000000000000000000000000000000000000000000000000000000815250617276565b1561482f576028602c6000820160009054906101000a900460ff168160000160006101000a81548160ff021916908360ff1602179055506000820160019054906101000a900460ff168160000160016101000a81548160ff021916908360ff1602179055506000820160029054906101000a900460ff168160000160026101000a81548160ff021916908360ff1602179055506000820160039054906101000a900460ff168160000160036101000a81548160ff021916908360ff1602179055506000820160049054906101000a90046fffffffffffffffffffffffffffffffff168160000160046101000a8154816fffffffffffffffffffffffffffffffff02191690836fffffffffffffffffffffffffffffffff1602179055509050506029602d6000820160009054906101000a900460ff168160000160006101000a81548160ff021916908360ff1602179055506000820160019054906101000a900460ff168160000160016101000a81548160ff021916908360ff1602179055506000820160029054906101000a900460ff168160000160026101000a81548160ff021916908360ff1602179055506000820160039054906101000a900460ff168160000160036101000a81548160ff021916908360ff1602179055506000820160049054906101000a90046fffffffffffffffffffffffffffffffff168160000160046101000a8154816fffffffffffffffffffffffffffffffff02191690836fffffffffffffffffffffffffffffffff160217905550905050614aed565b6148b284848080601f016020809104026020016040519081016040528093929190818152602001838380828437600081840152601f19601f820116905080830192505050505050506040518060400160405280600381526020017f6170650000000000000000000000000000000000000000000000000000000000815250617276565b15614aec57602a602c6000820160009054906101000a900460ff168160000160006101000a81548160ff021916908360ff1602179055506000820160019054906101000a900460ff168160000160016101000a81548160ff021916908360ff1602179055506000820160029054906101000a900460ff168160000160026101000a81548160ff021916908360ff1602179055506000820160039054906101000a900460ff168160000160036101000a81548160ff021916908360ff1602179055506000820160049054906101000a90046fffffffffffffffffffffffffffffffff168160000160046101000a8154816fffffffffffffffffffffffffffffffff02191690836fffffffffffffffffffffffffffffffff160217905550905050602b602d6000820160009054906101000a900460ff168160000160006101000a81548160ff021916908360ff1602179055506000820160019054906101000a900460ff168160000160016101000a81548160ff021916908360ff1602179055506000820160029054906101000a900460ff168160000160026101000a81548160ff021916908360ff1602179055506000820160039054906101000a900460ff168160000160036101000a81548160ff021916908360ff1602179055506000820160049054906101000a90046fffffffffffffffffffffffffffffffff168160000160046101000a8154816fffffffffffffffffffffffffffffffff02191690836fffffffffffffffffffffffffffffffff1602179055509050505b5b5b838360159182614aff92919061a14b565b50818160169182614b1192919061a14b565b50601c848490918060018154018082558091505060019003906000526020600020016000909192909192909192909192509182614b4f92919061a14b565b50600a601c805490501115614c3f57601c600081548110614b7357614b72619b34565b5b906000526020600020016000614b899190618a54565b60005b6001601c80549050614b9e91906197ab565b811015614c0d57601c600182614bb49190619b63565b81548110614bc557614bc4619b34565b5b90600052602060002001601c8281548110614be357614be2619b34565b5b906000526020600020019081614bf99190619bc2565b508080614c0590619caa565b915050614b8c565b50601c805480614c2057614c1f619cf2565b5b600190038181906000526020600020016000614c3c9190618a54565b90555b426017819055507fdfa3bc64f063fb1a0e870a075a05b582b32c293bb287f721458f31ee6a32f5288484604051614c7792919061a257565b60405180910390a150505050565b60288060000160009054906101000a900460ff16908060000160019054906101000a900460ff16908060000160029054906101000a900460ff16908060000160039054906101000a900460ff16908060000160049054906101000a90046fffffffffffffffffffffffffffffffff16905085565b6000601f54905090565b60175481565b614d116171f8565b61271081600354614d22919061a27b565b614d2c919061a10f565b6005819055507f68820656a3cb9e6424c49b97f562bd8157366e9374aadd12bd1de9bac459b0a0600554604051614d639190618c84565b60405180910390a150565b602460009054906101000a900460ff1681565b614d89615112565b73ffffffffffffffffffffffffffffffffffffffff163373ffffffffffffffffffffffffffffffffffffffff161480614e0f5750602e60009054906101000a900473ffffffffffffffffffffffffffffffffffffffff1673ffffffffffffffffffffffffffffffffffffffff163373ffffffffffffffffffffffffffffffffffffffff16145b80614e675750603060009054906101000a900473ffffffffffffffffffffffffffffffffffffffff1673ffffffffffffffffffffffffffffffffffffffff163373ffffffffffffffffffffffffffffffffffffffff16145b614ea6576040517f08c379a0000000000000000000000000000000000000000000000000000000008152600401614e9d9061982b565b60405180910390fd5b80600660003373ffffffffffffffffffffffffffffffffffffffff1673ffffffffffffffffffffffffffffffffffffffff168152602001908152602001600020541015614f28576040517f08c379a0000000000000000000000000000000000000000000000000000000008152600401614f1f90619f1f565b60405180910390fd5b80600660003373ffffffffffffffffffffffffffffffffffffffff1673ffffffffffffffffffffffffffffffffffffffff16815260200190815260200160002054614f7391906197ab565b600660003373ffffffffffffffffffffffffffffffffffffffff1673ffffffffffffffffffffffffffffffffffffffff1681526020019081526020016000208190555080600660008473ffffffffffffffffffffffffffffffffffffffff1673ffffffffffffffffffffffffffffffffffffffff168152602001908152602001600020546150019190619b63565b600660008473ffffffffffffffffffffffffffffffffffffffff1673ffffffffffffffffffffffffffffffffffffffff1681526020019081526020016000208190555061504d82615473565b42600b60008473ffffffffffffffffffffffffffffffffffffffff1673ffffffffffffffffffffffffffffffffffffffff168152602001908152602001600020819055508173ffffffffffffffffffffffffffffffffffffffff163373ffffffffffffffffffffffffffffffffffffffff167fddf252ad1be2c89b69c2b068fc378daa952ba7f163c4a11628f55a4df523b3ef836040516150ee9190618c84565b60405180910390a35050565b600d6020528060005260406000206000915090505481565b60008060009054906101000a900473ffffffffffffffffffffffffffffffffffffffff16905090565b60606002805461514a906196df565b80601f0160208091040260200160405190810160405280929190818152602001828054615176906196df565b80156151c35780601f10615198576101008083540402835291602001916151c3565b820191906000526020600020905b8154815290600101906020018083116151a657829003601f168201915b5050505050905090565b6151d56171f8565b81602e60006101000a81548173ffffffffffffffffffffffffffffffffffffffff021916908373ffffffffffffffffffffffffffffffffffffffff16021790555080602f60006101000a81548173ffffffffffffffffffffffffffffffffffffffff021916908373ffffffffffffffffffffffffffffffffffffffff1602179055505050565b6152636171f8565b80603160006101000a81548173ffffffffffffffffffffffffffffffffffffffff021916908373ffffffffffffffffffffffffffffffffffffffff16021790555050565b737a250d5630b4cf539739df2c5dacb4c659f2488d81565b60006152cc3384846166f2565b905092915050565b600080600090506152e4836162dd565b156153c357600060108054905011801561530057506000601354115b156153c257600080600760008673ffffffffffffffffffffffffffffffffffffffff1673ffffffffffffffffffffffffffffffffffffffff16815260200190815260200160002054111561539157600760008573ffffffffffffffffffffffffffffffffffffffff1673ffffffffffffffffffffffffffffffffffffffff1681526020019081526020016000205490505b60006010805490506013546153a6919061a10f565b9050818111156153bf5781816153bc91906197ab565b92505b50505b5b80915050919050565b603160149054906101000a900460ff1681565b60266020528060005260406000206000915054906101000a900460ff1681565b60298060000160009054906101000a900460ff16908060000160019054906101000a900460ff16908060000160029054906101000a900460ff16908060000160039054906101000a900460ff16908060000160049054906101000a90046fffffffffffffffffffffffffffffffff16905085565b602660008273ffffffffffffffffffffffffffffffffffffffff1673ffffffffffffffffffffffffffffffffffffffff16815260200190815260200160002060009054906101000a900460ff16615980576154cd816162dd565b156156845760001515600e60008373ffffffffffffffffffffffffffffffffffffffff1673ffffffffffffffffffffffffffffffffffffffff16815260200190815260200160002060009054906101000a900460ff1615150361567f576001600e60008373ffffffffffffffffffffffffffffffffffffffff1673ffffffffffffffffffffffffffffffffffffffff16815260200190815260200160002060006101000a81548160ff02191690831515021790555042600a60008373ffffffffffffffffffffffffffffffffffffffff1673ffffffffffffffffffffffffffffffffffffffff168152602001908152602001600020819055506010819080600181540180825580915050600190039060005260206000200160009091909190916101000a81548173ffffffffffffffffffffffffffffffffffffffff021916908373ffffffffffffffffffffffffffffffffffffffff160217905550600160108054905061563b91906197ab565b600d60008373ffffffffffffffffffffffffffffffffffffffff1673ffffffffffffffffffffffffffffffffffffffff168152602001908152602001600020819055505b61597f565b60011515600e60008373ffffffffffffffffffffffffffffffffffffffff1673ffffffffffffffffffffffffffffffffffffffff16815260200190815260200160002060009054906101000a900460ff1615150361597e576000600e60008373ffffffffffffffffffffffffffffffffffffffff1673ffffffffffffffffffffffffffffffffffffffff16815260200190815260200160002060006101000a81548160ff0219169083151502179055506000600a60008373ffffffffffffffffffffffffffffffffffffffff1673ffffffffffffffffffffffffffffffffffffffff16815260200190815260200160002081905550600d60008273ffffffffffffffffffffffffffffffffffffffff1673ffffffffffffffffffffffffffffffffffffffff16815260200190815260200160002054600d6000601060016010805490506157d191906197ab565b815481106157e2576157e1619b34565b5b9060005260206000200160009054906101000a900473ffffffffffffffffffffffffffffffffffffffff1673ffffffffffffffffffffffffffffffffffffffff1673ffffffffffffffffffffffffffffffffffffffff168152602001908152602001600020819055506010600160108054905061585f91906197ab565b815481106158705761586f619b34565b5b9060005260206000200160009054906101000a900473ffffffffffffffffffffffffffffffffffffffff166010600d60008473ffffffffffffffffffffffffffffffffffffffff1673ffffffffffffffffffffffffffffffffffffffff16815260200190815260200160002054815481106158ee576158ed619b34565b5b9060005260206000200160006101000a81548173ffffffffffffffffffffffffffffffffffffffff021916908373ffffffffffffffffffffffffffffffffffffffff160217905550601080548061594857615947619cf2565b5b6001900381819060005260206000200160006101000a81549073ffffffffffffffffffffffffffffffffffffffff021916905590555b5b5b50565b61598b615112565b73ffffffffffffffffffffffffffffffffffffffff163373ffffffffffffffffffffffffffffffffffffffff161480615a115750602e60009054906101000a900473ffffffffffffffffffffffffffffffffffffffff1673ffffffffffffffffffffffffffffffffffffffff163373ffffffffffffffffffffffffffffffffffffffff16145b615a50576040517f08c379a0000000000000000000000000000000000000000000000000000000008152600401615a479061982b565b60405180910390fd5b60001515601a60009054906101000a900460ff16151514615aa6576040517f08c379a0000000000000000000000000000000000000000000000000000000008152600401615a9d9061a32f565b60405180910390fd5b600f6000615ab49190618a94565b8181600f9190615ac5929190618ab5565b50838360199182615ad792919061a14b565b506001601a60006101000a81548160ff021916908315150217905550601b848490918060018154018082558091505060019003906000526020600020016000909192909192909192909192509182615b3092919061a14b565b50600a601b805490501115615c2057601b600081548110615b5457615b53619b34565b5b906000526020600020016000615b6a9190618a54565b60005b6001601b80549050615b7f91906197ab565b811015615bee57601b600182615b959190619b63565b81548110615ba657615ba5619b34565b5b90600052602060002001601b8281548110615bc457615bc3619b34565b5b906000526020600020019081615bda9190619bc2565b508080615be690619caa565b915050615b6d565b50601b805480615c0157615c00619cf2565b5b600190038181906000526020600020016000615c1d9190618a54565b90555b42601e81905550615caa84848080601f016020809104026020016040519081016040528093929190818152602001838380828437600081840152601f19601f820116905080830192505050505050506040518060400160405280600781526020017f67656e6573697300000000000000000000000000000000000000000000000000815250617276565b15615cb757426018819055505b7f7ac828aceb6614378510bd905df95e23a59e2cfb1141a5ed91b4a54e2b169b338484604051615ce892919061a257565b60405180910390a150505050565b60198054615d03906196df565b80601f0160208091040260200160405190810160405280929190818152602001828054615d2f906196df565b8015615d7c5780601f10615d5157610100808354040283529160200191615d7c565b820191906000526020600020905b815481529060010190602001808311615d5f57829003601f168201915b505050505081565b615d8c615112565b73ffffffffffffffffffffffffffffffffffffffff163373ffffffffffffffffffffffffffffffffffffffff161480615e125750602e60009054906101000a900473ffffffffffffffffffffffffffffffffffffffff1673ffffffffffffffffffffffffffffffffffffffff163373ffffffffffffffffffffffffffffffffffffffff16145b615e51576040517f08c379a0000000000000000000000000000000000000000000000000000000008152600401615e489061982b565b60405180910390fd5b615e5c30838361795f565b505050565b6000600e60008373ffffffffffffffffffffffffffffffffffffffff1673ffffffffffffffffffffffffffffffffffffffff16815260200190815260200160002060009054906101000a900460ff169050919050565b615ebf618b55565b615ec7618b55565b600660008473ffffffffffffffffffffffffffffffffffffffff1673ffffffffffffffffffffffffffffffffffffffff16815260200190815260200160002054816000018181525050600760008473ffffffffffffffffffffffffffffffffffffffff1673ffffffffffffffffffffffffffffffffffffffff16815260200190815260200160002054816040018181525050600860008473ffffffffffffffffffffffffffffffffffffffff1673ffffffffffffffffffffffffffffffffffffffff16815260200190815260200160002054816020018181525050600a60008473ffffffffffffffffffffffffffffffffffffffff1673ffffffffffffffffffffffffffffffffffffffff16815260200190815260200160002054816060018181525050600b60008473ffffffffffffffffffffffffffffffffffffffff1673ffffffffffffffffffffffffffffffffffffffff16815260200190815260200160002054816080018181525050600c60008473ffffffffffffffffffffffffffffffffffffffff1673ffffffffffffffffffffffffffffffffffffffff168152602001908152602001600020548160a0018181525050600d60008473ffffffffffffffffffffffffffffffffffffffff1673ffffffffffffffffffffffffffffffffffffffff168152602001908152602001600020548160c0018181525050600e60008473ffffffffffffffffffffffffffffffffffffffff1673ffffffffffffffffffffffffffffffffffffffff16815260200190815260200160002060009054906101000a900460ff168160e001901515908115158152505080915050919050565b6060601c805480602002602001604051908101604052809291908181526020016000905b828210156161fb57838290600052602060002001805461616e906196df565b80601f016020809104026020016040519081016040528092919081815260200182805461619a906196df565b80156161e75780601f106161bc576101008083540402835291602001916161e7565b820191906000526020600020905b8154815290600101906020018083116161ca57829003601f168201915b50505050508152602001906001019061614f565b50505050905090565b6060601b805480602002602001604051908101604052809291908181526020016000905b828210156162d4578382906000526020600020018054616247906196df565b80601f0160208091040260200160405190810160405280929190818152602001828054616273906196df565b80156162c05780601f10616295576101008083540402835291602001916162c0565b820191906000526020600020905b8154815290600101906020018083116162a357829003601f168201915b505050505081526020019060010190616228565b50505050905090565b6000602660008373ffffffffffffffffffffffffffffffffffffffff1673ffffffffffffffffffffffffffffffffffffffff16815260200190815260200160002060009054906101000a900460ff16806163805750603260008373ffffffffffffffffffffffffffffffffffffffff1673ffffffffffffffffffffffffffffffffffffffff16815260200190815260200160002060009054906101000a900460ff165b1561638e57600090506163d6565b600554600660008473ffffffffffffffffffffffffffffffffffffffff1673ffffffffffffffffffffffffffffffffffffffff16815260200190815260200160002054101590505b919050565b6163e3615112565b73ffffffffffffffffffffffffffffffffffffffff163373ffffffffffffffffffffffffffffffffffffffff1614806164695750602e60009054906101000a900473ffffffffffffffffffffffffffffffffffffffff1673ffffffffffffffffffffffffffffffffffffffff163373ffffffffffffffffffffffffffffffffffffffff16145b6164a8576040517f08c379a000000000000000000000000000000000000000000000000000000000815260040161649f9061982b565b60405180910390fd5b6164bb30336164b63061401a565b6166f2565b50565b6000602360008473ffffffffffffffffffffffffffffffffffffffff1673ffffffffffffffffffffffffffffffffffffffff16815260200190815260200160002060008373ffffffffffffffffffffffffffffffffffffffff1673ffffffffffffffffffffffffffffffffffffffff16815260200190815260200160002054905092915050565b61654d6171f8565b81603160146101000a81548160ff02191690831515021790555061271081600354616578919061a27b565b616582919061a10f565b6004819055505050565b601e5481565b600f81815481106165a257600080fd5b906000526020600020016000915054906101000a900473ffffffffffffffffffffffffffffffffffffffff1681565b60145481565b6165df6171f8565b6165e7617c8e565b565b602460019054906101000a900460ff1681565b6166046171f8565b600073ffffffffffffffffffffffffffffffffffffffff168173ffffffffffffffffffffffffffffffffffffffff1603616673576040517f08c379a000000000000000000000000000000000000000000000000000000000815260040161666a9061a3c1565b60405180910390fd5b61667c8161789b565b50565b7f000000000000000000000000000000000000000000000000000000000000000081565b6166ab6171f8565b80602460016101000a81548160ff02191690831515021790555050565b60185481565b601f5481565b60086020528060005260406000206000915090505481565b60205481565b6000603260008473ffffffffffffffffffffffffffffffffffffffff1673ffffffffffffffffffffffffffffffffffffffff16815260200190815260200160002060009054906101000a900460ff161580156167985750603260008573ffffffffffffffffffffffffffffffffffffffff1673ffffffffffffffffffffffffffffffffffffffff16815260200190815260200160002060009054906101000a900460ff16155b6167d7576040517f08c379a00000000000000000000000000000000000000000000000000000000081526004016167ce9061a42d565b60405180910390fd5b6000821161681a576040517f08c379a00000000000000000000000000000000000000000000000000000000081526004016168119061a4bf565b60405180910390fd5b61dead73ffffffffffffffffffffffffffffffffffffffff168473ffffffffffffffffffffffffffffffffffffffff16141580156168855750600073ffffffffffffffffffffffffffffffffffffffff168473ffffffffffffffffffffffffffffffffffffffff1614155b6168c4576040517f08c379a00000000000000000000000000000000000000000000000000000000081526004016168bb9061a52b565b60405180910390fd5b603160159054906101000a900460ff16156168eb576168e484848461795f565b90506171f1565b602460009054906101000a900460ff16616af757616907615112565b73ffffffffffffffffffffffffffffffffffffffff168473ffffffffffffffffffffffffffffffffffffffff16148061698d5750602e60009054906101000a900473ffffffffffffffffffffffffffffffffffffffff1673ffffffffffffffffffffffffffffffffffffffff168473ffffffffffffffffffffffffffffffffffffffff16145b806169e55750603060009054906101000a900473ffffffffffffffffffffffffffffffffffffffff1673ffffffffffffffffffffffffffffffffffffffff168473ffffffffffffffffffffffffffffffffffffffff16145b80616a3d5750603160009054906101000a900473ffffffffffffffffffffffffffffffffffffffff1673ffffffffffffffffffffffffffffffffffffffff168473ffffffffffffffffffffffffffffffffffffffff16145b15616a89577ffee95ecae0c8f7f0743ec0ad254c78ab75e5ecca9f1ddcd9f11f9a98124b96bc604051616a6f9061a597565b60405180910390a1616a8284848461795f565b90506171f1565b616a9284617ec8565b616a9b84617ec8565b604051602001616aac92919061a6b1565b6040516020818303038152906040526040517f08c379a0000000000000000000000000000000000000000000000000000000008152600401616aee9190618c49565b60405180910390fd5b616aff615112565b73ffffffffffffffffffffffffffffffffffffffff168473ffffffffffffffffffffffffffffffffffffffff161480616b855750602e60009054906101000a900473ffffffffffffffffffffffffffffffffffffffff1673ffffffffffffffffffffffffffffffffffffffff168473ffffffffffffffffffffffffffffffffffffffff16145b80616bdd5750603060009054906101000a900473ffffffffffffffffffffffffffffffffffffffff1673ffffffffffffffffffffffffffffffffffffffff168473ffffffffffffffffffffffffffffffffffffffff16145b80616c355750603160009054906101000a900473ffffffffffffffffffffffffffffffffffffffff1673ffffffffffffffffffffffffffffffffffffffff168473ffffffffffffffffffffffffffffffffffffffff16145b15616c4c57616c4584848461795f565b90506171f1565b616c54617291565b15616c6257616c61617329565b5b602660008573ffffffffffffffffffffffffffffffffffffffff1673ffffffffffffffffffffffffffffffffffffffff16815260200190815260200160002060009054906101000a900460ff16616cbd57616cbc846181d3565b5b81600660008673ffffffffffffffffffffffffffffffffffffffff1673ffffffffffffffffffffffffffffffffffffffff168152602001908152602001600020541015616d3f576040517f08c379a0000000000000000000000000000000000000000000000000000000008152600401616d369061a737565b60405180910390fd5b81600660008673ffffffffffffffffffffffffffffffffffffffff1673ffffffffffffffffffffffffffffffffffffffff16815260200190815260200160002054616d8a91906197ab565b600660008673ffffffffffffffffffffffffffffffffffffffff1673ffffffffffffffffffffffffffffffffffffffff16815260200190815260200160002081905550616dd684615473565b7f000000000000000000000000000000000000000000000000000000000000000073ffffffffffffffffffffffffffffffffffffffff168473ffffffffffffffffffffffffffffffffffffffff1614616e6e5742600c60008673ffffffffffffffffffffffffffffffffffffffff1673ffffffffffffffffffffffffffffffffffffffff168152602001908152602001600020819055505b6000616e7b858585618526565b905060008390506000821115616f8d578181616e9791906197ab565b905081600660003073ffffffffffffffffffffffffffffffffffffffff1673ffffffffffffffffffffffffffffffffffffffff16815260200190815260200160002054616ee49190619b63565b600660003073ffffffffffffffffffffffffffffffffffffffff1673ffffffffffffffffffffffffffffffffffffffff168152602001908152602001600020819055503073ffffffffffffffffffffffffffffffffffffffff168673ffffffffffffffffffffffffffffffffffffffff167fddf252ad1be2c89b69c2b068fc378daa952ba7f163c4a11628f55a4df523b3ef84604051616f849190618c84565b60405180910390a35b80600660008773ffffffffffffffffffffffffffffffffffffffff1673ffffffffffffffffffffffffffffffffffffffff16815260200190815260200160002054616fd89190619b63565b600660008773ffffffffffffffffffffffffffffffffffffffff1673ffffffffffffffffffffffffffffffffffffffff1681526020019081526020016000208190555061702485615473565b7f000000000000000000000000000000000000000000000000000000000000000073ffffffffffffffffffffffffffffffffffffffff168673ffffffffffffffffffffffffffffffffffffffff16036170bc5742600b60008773ffffffffffffffffffffffffffffffffffffffff1673ffffffffffffffffffffffffffffffffffffffff168152602001908152602001600020819055505b8473ffffffffffffffffffffffffffffffffffffffff168673ffffffffffffffffffffffffffffffffffffffff167fddf252ad1be2c89b69c2b068fc378daa952ba7f163c4a11628f55a4df523b3ef836040516171199190618c84565b60405180910390a37f000000000000000000000000000000000000000000000000000000000000000073ffffffffffffffffffffffffffffffffffffffff168673ffffffffffffffffffffffffffffffffffffffff1614806171c657507f000000000000000000000000000000000000000000000000000000000000000073ffffffffffffffffffffffffffffffffffffffff168573ffffffffffffffffffffffffffffffffffffffff16145b156171ea57602460019054906101000a900460ff16156171e9576171e8617c8e565b5b5b6001925050505b9392505050565b6172006188f3565b73ffffffffffffffffffffffffffffffffffffffff1661721e615112565b73ffffffffffffffffffffffffffffffffffffffff1614617274576040517f08c379a000000000000000000000000000000000000000000000000000000000815260040161726b9061a7a3565b60405180910390fd5b565b60008180519060200120838051906020012014905092915050565b60007f000000000000000000000000000000000000000000000000000000000000000073ffffffffffffffffffffffffffffffffffffffff163373ffffffffffffffffffffffffffffffffffffffff16141580156172fc5750603160159054906101000a900460ff16155b80156173145750603160149054906101000a900460ff165b801561732457506173236188fb565b5b905090565b6001603160156101000a81548160ff0219169083151502179055506000602d6040518060a00160405290816000820160009054906101000a900460ff1660ff1660ff1681526020016000820160019054906101000a900460ff1660ff1660ff1681526020016000820160029054906101000a900460ff1660ff1660ff1681526020016000820160039054906101000a900460ff1660ff1660ff1681526020016000820160049054906101000a90046fffffffffffffffffffffffffffffffff166fffffffffffffffffffffffffffffffff166fffffffffffffffffffffffffffffffff1681525050905060006004549050600082608001516fffffffffffffffffffffffffffffffff16836060015160ff1683617446919061a27b565b617450919061a10f565b90506000818361746091906197ab565b9050617480737a250d5630b4cf539739df2c5dacb4c659f2488d82611aa7565b506000821115617499576174973061dead8461795f565b505b6000600267ffffffffffffffff8111156174b6576174b5619891565b5b6040519080825280602002602001820160405280156174e45781602001602082028036833780820191505090505b50905030816000815181106174fc576174fb619b34565b5b602002602001019073ffffffffffffffffffffffffffffffffffffffff16908173ffffffffffffffffffffffffffffffffffffffff1681525050737a250d5630b4cf539739df2c5dacb4c659f2488d73ffffffffffffffffffffffffffffffffffffffff1663ad5c46486040518163ffffffff1660e01b8152600401602060405180830381865afa158015617595573d6000803e3d6000fd5b505050506040513d601f19601f820116820180604052508101906175b9919061a7d8565b816001815181106175cd576175cc619b34565b5b602002602001019073ffffffffffffffffffffffffffffffffffffffff16908173ffffffffffffffffffffffffffffffffffffffff1681525050737a250d5630b4cf539739df2c5dacb4c659f2488d73ffffffffffffffffffffffffffffffffffffffff1663791ac9478360008430426040518663ffffffff1660e01b815260040161765d95949392919061a840565b600060405180830381600087803b15801561767757600080fd5b505af115801561768b573d6000803e3d6000fd5b5050505060004790506000866060015160ff16876000015160ff1688608001516176b5919061a89a565b6176bf919061a89a565b6fffffffffffffffffffffffffffffffff169050600081886020015160ff16846176e9919061a27b565b6176f3919061a10f565b9050600082896040015160ff168561770b919061a27b565b617715919061a10f565b905060008211156177b0576000602e60009054906101000a900473ffffffffffffffffffffffffffffffffffffffff1673ffffffffffffffffffffffffffffffffffffffff16836040516177689061987c565b60006040518083038185875af1925050503d80600081146177a5576040519150601f19603f3d011682016040523d82523d6000602084013e6177aa565b606091505b50509050505b6000811115617849576000602f60009054906101000a900473ffffffffffffffffffffffffffffffffffffffff1673ffffffffffffffffffffffffffffffffffffffff16826040516178019061987c565b60006040518083038185875af1925050503d806000811461783e576040519150601f19603f3d011682016040523d82523d6000602084013e617843565b606091505b50509050505b5050505050505050506000603160156101000a81548160ff021916908315150217905550565b6000818361787d919061a10f565b905092915050565b600081836178939190619b63565b905092915050565b60008060009054906101000a900473ffffffffffffffffffffffffffffffffffffffff169050816000806101000a81548173ffffffffffffffffffffffffffffffffffffffff021916908373ffffffffffffffffffffffffffffffffffffffff1602179055508173ffffffffffffffffffffffffffffffffffffffff168173ffffffffffffffffffffffffffffffffffffffff167f8be0079c531659141344cd1fd0a4f28419497f9722a3daafe3b4186f6b6457e060405160405180910390a35050565b600081600660008673ffffffffffffffffffffffffffffffffffffffff1673ffffffffffffffffffffffffffffffffffffffff1681526020019081526020016000205410156179e3576040517f08c379a00000000000000000000000000000000000000000000000000000000081526004016179da90619f1f565b60405180910390fd5b81600660008673ffffffffffffffffffffffffffffffffffffffff1673ffffffffffffffffffffffffffffffffffffffff16815260200190815260200160002054617a2e91906197ab565b600660008673ffffffffffffffffffffffffffffffffffffffff1673ffffffffffffffffffffffffffffffffffffffff16815260200190815260200160002081905550617a7a84615473565b81600660008573ffffffffffffffffffffffffffffffffffffffff1673ffffffffffffffffffffffffffffffffffffffff16815260200190815260200160002054617ac59190619b63565b600660008573ffffffffffffffffffffffffffffffffffffffff1673ffffffffffffffffffffffffffffffffffffffff16815260200190815260200160002081905550617b1183615473565b42600b60008573ffffffffffffffffffffffffffffffffffffffff1673ffffffffffffffffffffffffffffffffffffffff168152602001908152602001600020819055508273ffffffffffffffffffffffffffffffffffffffff168473ffffffffffffffffffffffffffffffffffffffff167fddf252ad1be2c89b69c2b068fc378daa952ba7f163c4a11628f55a4df523b3ef84604051617bb29190618c84565b60405180910390a37f000000000000000000000000000000000000000000000000000000000000000073ffffffffffffffffffffffffffffffffffffffff168473ffffffffffffffffffffffffffffffffffffffff161480617c5f57507f000000000000000000000000000000000000000000000000000000000000000073ffffffffffffffffffffffffffffffffffffffff168373ffffffffffffffffffffffffffffffffffffffff16145b15617c8357602460019054906101000a900460ff1615617c8257617c81617c8e565b5b5b600190509392505050565b6000600267ffffffffffffffff811115617cab57617caa619891565b5b604051908082528060200260200182016040528015617cd95781602001602082028036833780820191505090505b509050737a250d5630b4cf539739df2c5dacb4c659f2488d73ffffffffffffffffffffffffffffffffffffffff1663ad5c46486040518163ffffffff1660e01b8152600401602060405180830381865afa158015617d3b573d6000803e3d6000fd5b505050506040513d601f19601f82011682018060405250810190617d5f919061a7d8565b81600081518110617d7357617d72619b34565b5b602002602001019073ffffffffffffffffffffffffffffffffffffffff16908173ffffffffffffffffffffffffffffffffffffffff16815250503081600181518110617dc257617dc1619b34565b5b602002602001019073ffffffffffffffffffffffffffffffffffffffff16908173ffffffffffffffffffffffffffffffffffffffff16815250506000737a250d5630b4cf539739df2c5dacb4c659f2488d73ffffffffffffffffffffffffffffffffffffffff1663d06ca61f66b1a2bc2ec50000846040518363ffffffff1660e01b8152600401617e5492919061a919565b600060405180830381865afa158015617e71573d6000803e3d6000fd5b505050506040513d6000823e3d601f19601f82011682018060405250810190617e9a919061aa6d565b9050600081600181518110617eb257617eb1619b34565b5b6020026020010151905080600581905550505050565b606060008273ffffffffffffffffffffffffffffffffffffffff1660001b905060006040518060400160405280601081526020017f303132333435363738396162636465660000000000000000000000000000000081525090506000602a67ffffffffffffffff811115617f3f57617f3e619891565b5b6040519080825280601f01601f191660200182016040528015617f715781602001600182028036833780820191505090505b5090507f300000000000000000000000000000000000000000000000000000000000000081600081518110617fa957617fa8619b34565b5b60200101907effffffffffffffffffffffffffffffffffffffffffffffffffffffffffffff1916908160001a9053507f78000000000000000000000000000000000000000000000000000000000000008160018151811061800d5761800c619b34565b5b60200101907effffffffffffffffffffffffffffffffffffffffffffffffffffffffffffff1916908160001a90535060005b60148110156181c75782600485600c846180599190619b63565b6020811061806a57618069619b34565b5b1a60f81b7effffffffffffffffffffffffffffffffffffffffffffffffffffffffffffff1916901c60f81c60ff16815181106180a9576180a8619b34565b5b602001015160f81c60f81b826002836180c2919061a27b565b60026180ce9190619b63565b815181106180df576180de619b34565b5b60200101907effffffffffffffffffffffffffffffffffffffffffffffffffffffffffffff1916908160001a90535082600f60f81b85600c846181229190619b63565b6020811061813357618132619b34565b5b1a60f81b1660f81c60ff168151811061814f5761814e619b34565b5b602001015160f81c60f81b82600283618168919061a27b565b60036181749190619b63565b8151811061818557618184619b34565b5b60200101907effffffffffffffffffffffffffffffffffffffffffffffffffffffffffffff1916908160001a90535080806181bf90619caa565b91505061803f565b50809350505050919050565b60006181de826162dd565b156182bd5760006010805490501180156181fa57506000601354115b156182bc57600080600760008573ffffffffffffffffffffffffffffffffffffffff1673ffffffffffffffffffffffffffffffffffffffff16815260200190815260200160002054111561828b57600760008473ffffffffffffffffffffffffffffffffffffffff1673ffffffffffffffffffffffffffffffffffffffff1681526020019081526020016000205490505b60006010805490506013546182a0919061a10f565b9050818111156182b95781816182b691906197ab565b92505b50505b5b6000600660008473ffffffffffffffffffffffffffffffffffffffff1673ffffffffffffffffffffffffffffffffffffffff16815260200190815260200160002054905060008211156183195781816183169190619b63565b90505b6000600860008573ffffffffffffffffffffffffffffffffffffffff1673ffffffffffffffffffffffffffffffffffffffff16815260200190815260200160002054905060008111156183755780826183729190619b63565b91505b600081846183839190619b63565b9050600081111561851f5761839930868361795f565b5080600960008773ffffffffffffffffffffffffffffffffffffffff1673ffffffffffffffffffffffffffffffffffffffff168152602001908152602001600020546183e59190619b63565b600960008773ffffffffffffffffffffffffffffffffffffffff1673ffffffffffffffffffffffffffffffffffffffff1681526020019081526020016000208190555060008411156184d95783600760008773ffffffffffffffffffffffffffffffffffffffff1673ffffffffffffffffffffffffffffffffffffffff1681526020019081526020016000205461847c9190619b63565b600760008773ffffffffffffffffffffffffffffffffffffffff1673ffffffffffffffffffffffffffffffffffffffff1681526020019081526020016000208190555083601360008282546184d191906197ab565b925050819055505b6000600860008773ffffffffffffffffffffffffffffffffffffffff1673ffffffffffffffffffffffffffffffffffffffff168152602001908152602001600020819055505b5050505050565b600080600090506000602c6040518060a00160405290816000820160009054906101000a900460ff1660ff1660ff1681526020016000820160019054906101000a900460ff1660ff1660ff1681526020016000820160029054906101000a900460ff1660ff1660ff1681526020016000820160039054906101000a900460ff1660ff1660ff1681526020016000820160049054906101000a90046fffffffffffffffffffffffffffffffff166fffffffffffffffffffffffffffffffff166fffffffffffffffffffffffffffffffff168152505090506000602d6040518060a00160405290816000820160009054906101000a900460ff1660ff1660ff1681526020016000820160019054906101000a900460ff1660ff1660ff1681526020016000820160029054906101000a900460ff1660ff1660ff1681526020016000820160039054906101000a900460ff1660ff1660ff1681526020016000820160049054906101000a90046fffffffffffffffffffffffffffffffff166fffffffffffffffffffffffffffffffff166fffffffffffffffffffffffffffffffff168152505090506186d58787618990565b156188e65760007f000000000000000000000000000000000000000000000000000000000000000073ffffffffffffffffffffffffffffffffffffffff168873ffffffffffffffffffffffffffffffffffffffff16036187b65761876b606461875d85608001516fffffffffffffffffffffffffffffffff1689618a3e90919063ffffffff16565b61786f90919063ffffffff16565b93506187af83608001516fffffffffffffffffffffffffffffffff166187a1856000015160ff1687618a3e90919063ffffffff16565b61786f90919063ffffffff16565b9050618839565b6187f260646187e484608001516fffffffffffffffffffffffffffffffff1689618a3e90919063ffffffff16565b61786f90919063ffffffff16565b935061883682608001516fffffffffffffffffffffffffffffffff16618828846000015160ff1687618a3e90919063ffffffff16565b61786f90919063ffffffff16565b90505b60008111156188e45780601160008282546188549190619b63565b92505081905550601a60009054906101000a900460ff161561888e5780601260008282546188829190619b63565b925050819055506188a8565b80601360008282546188a09190619b63565b925050819055505b7f18eb4f38dd44e95e8a1c75cca7d7ff27a98c255ffece0e32f334fb4184e1280a816011546040516188db92919061aab6565b60405180910390a15b505b8293505050509392505050565b600033905090565b600080600660003073ffffffffffffffffffffffffffffffffffffffff1673ffffffffffffffffffffffffffffffffffffffff16815260200190815260200160002054905060006014546013546012546189559190619b63565b61895f9190619b63565b9050818111156189745760009250505061898d565b808261898091906197ab565b9150600454821015925050505b90565b6000602560008473ffffffffffffffffffffffffffffffffffffffff1673ffffffffffffffffffffffffffffffffffffffff16815260200190815260200160002060009054906101000a900460ff16158015618a365750602560008373ffffffffffffffffffffffffffffffffffffffff1673ffffffffffffffffffffffffffffffffffffffff16815260200190815260200160002060009054906101000a900460ff16155b905092915050565b60008183618a4c919061a27b565b905092915050565b508054618a60906196df565b6000825580601f10618a725750618a91565b601f016020900490600052602060002090810190618a909190618b9c565b5b50565b5080546000825590600052602060002090810190618ab29190618b9c565b50565b828054828255906000526020600020908101928215618b44579160200282015b82811115618b4357823573ffffffffffffffffffffffffffffffffffffffff168260006101000a81548173ffffffffffffffffffffffffffffffffffffffff021916908373ffffffffffffffffffffffffffffffffffffffff16021790555091602001919060010190618ad5565b5b509050618b519190618b9c565b5090565b604051806101000160405280600081526020016000815260200160008152602001600081526020016000815260200160008152602001600081526020016000151581525090565b5b80821115618bb5576000816000905550600101618b9d565b5090565b600081519050919050565b600082825260208201905092915050565b60005b83811015618bf3578082015181840152602081019050618bd8565b60008484015250505050565b6000601f19601f8301169050919050565b6000618c1b82618bb9565b618c258185618bc4565b9350618c35818560208601618bd5565b618c3e81618bff565b840191505092915050565b60006020820190508181036000830152618c638184618c10565b905092915050565b6000819050919050565b618c7e81618c6b565b82525050565b6000602082019050618c996000830184618c75565b92915050565b600081519050919050565b600082825260208201905092915050565b6000819050602082019050919050565b600073ffffffffffffffffffffffffffffffffffffffff82169050919050565b6000618cf682618ccb565b9050919050565b618d0681618ceb565b82525050565b6000618d188383618cfd565b60208301905092915050565b6000602082019050919050565b6000618d3c82618c9f565b618d468185618caa565b9350618d5183618cbb565b8060005b83811015618d82578151618d698882618d0c565b9750618d7483618d24565b925050600181019050618d55565b5085935050505092915050565b60006020820190508181036000830152618da98184618d31565b905092915050565b6000604051905090565b600080fd5b600080fd5b618dce81618ceb565b8114618dd957600080fd5b50565b600081359050618deb81618dc5565b92915050565b600060208284031215618e0757618e06618dbb565b5b6000618e1584828501618ddc565b91505092915050565b618e2781618c6b565b8114618e3257600080fd5b50565b600081359050618e4481618e1e565b92915050565b60008060408385031215618e6157618e60618dbb565b5b6000618e6f85828601618ddc565b9250506020618e8085828601618e35565b9150509250929050565b60008115159050919050565b618e9f81618e8a565b82525050565b6000602082019050618eba6000830184618e96565b92915050565b600060208284031215618ed657618ed5618dbb565b5b6000618ee484828501618e35565b91505092915050565b618ef681618ceb565b82525050565b6000602082019050618f116000830184618eed565b92915050565b600080600060608486031215618f3057618f2f618dbb565b5b6000618f3e86828701618ddc565b9350506020618f4f86828701618ddc565b9250506040618f6086828701618e35565b9150509250925092565b600060ff82169050919050565b618f8081618f6a565b82525050565b60006fffffffffffffffffffffffffffffffff82169050919050565b618fab81618f86565b82525050565b600060a082019050618fc66000830188618f77565b618fd36020830187618f77565b618fe06040830186618f77565b618fed6060830185618f77565b618ffa6080830184618fa2565b9695505050505050565b60006020820190506190196000830184618f77565b92915050565b61902881618e8a565b811461903357600080fd5b50565b6000813590506190458161901f565b92915050565b6000806040838503121561906257619061618dbb565b5b600061907085828601618ddc565b925050602061908185828601619036565b9150509250929050565b600080fd5b600080fd5b600080fd5b60008083601f8401126190b0576190af61908b565b5b8235905067ffffffffffffffff8111156190cd576190cc619090565b5b6020830191508360208202830111156190e9576190e8619095565b5b9250929050565b60008083601f8401126191065761910561908b565b5b8235905067ffffffffffffffff81111561912357619122619090565b5b60208301915083602082028301111561913f5761913e619095565b5b9250929050565b600080600080604085870312156191605761915f618dbb565b5b600085013567ffffffffffffffff81111561917e5761917d618dc0565b5b61918a8782880161909a565b9450945050602085013567ffffffffffffffff8111156191ad576191ac618dc0565b5b6191b9878288016190f0565b925092505092959194509250565b6000806000604084860312156191e0576191df618dbb565b5b600084013567ffffffffffffffff8111156191fe576191fd618dc0565b5b61920a8682870161909a565b9350935050602061921d86828701619036565b9150509250925092565b60008083601f84011261923d5761923c61908b565b5b8235905067ffffffffffffffff81111561925a57619259619090565b5b60208301915083600182028301111561927657619275619095565b5b9250929050565b6000806000806040858703121561929757619296618dbb565b5b600085013567ffffffffffffffff8111156192b5576192b4618dc0565b5b6192c187828801619227565b9450945050602085013567ffffffffffffffff8111156192e4576192e3618dc0565b5b6192f087828801619227565b925092505092959194509250565b6000806040838503121561931557619314618dbb565b5b600061932385828601618ddc565b925050602061933485828601618ddc565b9150509250929050565b6000819050919050565b600061936361935e61935984618ccb565b61933e565b618ccb565b9050919050565b600061937582619348565b9050919050565b60006193878261936a565b9050919050565b6193978161937c565b82525050565b60006020820190506193b2600083018461938e565b92915050565b600080600080604085870312156193d2576193d1618dbb565b5b600085013567ffffffffffffffff8111156193f0576193ef618dc0565b5b6193fc87828801619227565b9450945050602085013567ffffffffffffffff81111561941f5761941e618dc0565b5b61942b8782880161909a565b925092505092959194509250565b61944281618c6b565b82525050565b61945181618e8a565b82525050565b6101008201600082015161946e6000850182619439565b5060208201516194816020850182619439565b5060408201516194946040850182619439565b5060608201516194a76060850182619439565b5060808201516194ba6080850182619439565b5060a08201516194cd60a0850182619439565b5060c08201516194e060c0850182619439565b5060e08201516194f360e0850182619448565b50505050565b60006101008201905061950f6000830184619457565b92915050565b600081519050919050565b600082825260208201905092915050565b6000819050602082019050919050565b600082825260208201905092915050565b600061955d82618bb9565b6195678185619541565b9350619577818560208601618bd5565b61958081618bff565b840191505092915050565b60006195978383619552565b905092915050565b6000602082019050919050565b60006195b782619515565b6195c18185619520565b9350836020820285016195d385619531565b8060005b8581101561960f57848403895281516195f0858261958b565b94506195fb8361959f565b925060208a019950506001810190506195d7565b50829750879550505050505092915050565b6000602082019050818103600083015261963b81846195ac565b905092915050565b6000806040838503121561965a57619659618dbb565b5b600061966885828601619036565b925050602061967985828601618e35565b9150509250929050565b60006020828403121561969957619698618dbb565b5b60006196a784828501619036565b91505092915050565b7f4e487b7100000000000000000000000000000000000000000000000000000000600052602260045260246000fd5b600060028204905060018216806196f757607f821691505b60208210810361970a576197096196b0565b5b50919050565b7f45524332303a20696e73756666696369656e7420616c6c6f77616e6365000000600082015250565b6000619746601d83618bc4565b915061975182619710565b602082019050919050565b6000602082019050818103600083015261977581619739565b9050919050565b7f4e487b7100000000000000000000000000000000000000000000000000000000600052601160045260246000fd5b60006197b682618c6b565b91506197c183618c6b565b92508282039050818111156197d9576197d861977c565b5b92915050565b7f466f7262696464656e0000000000000000000000000000000000000000000000600082015250565b6000619815600983618bc4565b9150619820826197df565b602082019050919050565b6000602082019050818103600083015261984481619808565b9050919050565b600081905092915050565b50565b600061986660008361984b565b915061987182619856565b600082019050919050565b600061988782619859565b9150819050919050565b7f4e487b7100000000000000000000000000000000000000000000000000000000600052604160045260246000fd5b60008190508160005260206000209050919050565b60006020601f8301049050919050565b600082821b905092915050565b6000600883026199227fffffffffffffffffffffffffffffffffffffffffffffffffffffffffffffffff826198e5565b61992c86836198e5565b95508019841693508086168417925050509392505050565b600061995f61995a61995584618c6b565b61933e565b618c6b565b9050919050565b6000819050919050565b61997983619944565b61998d61998582619966565b8484546198f2565b825550505050565b600090565b6199a2619995565b6199ad818484619970565b505050565b5b818110156199d1576199c660008261999a565b6001810190506199b3565b5050565b601f821115619a16576199e7816198c0565b6199f0846198d5565b810160208510156199ff578190505b619a13619a0b856198d5565b8301826199b2565b50505b505050565b600082821c905092915050565b6000619a3960001984600802619a1b565b1980831691505092915050565b6000619a528383619a28565b9150826002028217905092915050565b619a6b82618bb9565b67ffffffffffffffff811115619a8457619a83619891565b5b619a8e82546196df565b619a998282856199d5565b600060209050601f831160018114619acc5760008415619aba578287015190505b619ac48582619a46565b865550619b2c565b601f198416619ada866198c0565b60005b82811015619b0257848901518255600182019150602085019450602081019050619add565b86831015619b1f5784890151619b1b601f891682619a28565b8355505b6001600288020188555050505b505050505050565b7f4e487b7100000000000000000000000000000000000000000000000000000000600052603260045260246000fd5b6000619b6e82618c6b565b9150619b7983618c6b565b9250828201905080821115619b9157619b9061977c565b5b92915050565b600081549050619ba6816196df565b9050919050565b60008190508160005260206000209050919050565b818103619bd0575050619ca8565b619bd982619b97565b67ffffffffffffffff811115619bf257619bf1619891565b5b619bfc82546196df565b619c078282856199d5565b6000601f831160018114619c365760008415619c24578287015490505b619c2e8582619a46565b865550619ca1565b601f198416619c4487619bad565b9650619c4f866198c0565b60005b82811015619c7757848901548255600182019150600185019450602081019050619c52565b86831015619c945784890154619c90601f891682619a28565b8355505b6001600288020188555050505b5050505050505b565b6000619cb582618c6b565b91507fffffffffffffffffffffffffffffffffffffffffffffffffffffffffffffffff8203619ce757619ce661977c565b5b600182019050919050565b7f4e487b7100000000000000000000000000000000000000000000000000000000600052603160045260246000fd5b7f5468657265206973206e6f74206576656e74207374617274656420616374756160008201527f6c6c792e00000000000000000000000000000000000000000000000000000000602082015250565b6000619d7d602483618bc4565b9150619d8882619d21565b604082019050919050565b60006020820190508181036000830152619dac81619d70565b9050919050565b60008154619dc0816196df565b619dca8186618bc4565b94506001821660008114619de55760018114619dfb57619e2e565b60ff198316865281151560200286019350619e2e565b619e04856198c0565b60005b83811015619e2657815481890152600182019150602081019050619e07565b808801955050505b50505092915050565b60006040820190508181036000830152619e518185619db3565b9050619e606020830184618c75565b9392505050565b7f496e76616c696420696e70757400000000000000000000000000000000000000600082015250565b6000619e9d600d83618bc4565b9150619ea882619e67565b602082019050919050565b60006020820190508181036000830152619ecc81619e90565b9050919050565b7f496e73756666696369656e742042616c616e6365000000000000000000000000600082015250565b6000619f09601483618bc4565b9150619f1482619ed3565b602082019050919050565b60006020820190508181036000830152619f3881619efc565b9050919050565b7f506c656173652066696e69736820746865206576656e74206265666f7265206460008201527f6973747269627574652e00000000000000000000000000000000000000000000602082015250565b6000619f9b602a83618bc4565b9150619fa682619f3f565b604082019050919050565b60006020820190508181036000830152619fca81619f8e565b9050919050565b7f5b4e4f545f454e4f5547485f544f4b454e535d204e6f7420656e6f756768207460008201527f6f6b656e7320746f206469737472696275746520746f2065766572792070617260208201527f7469636970616e742c20746f6b656e732077696c6c2062652073656e6420726160408201527f6e646f6d6c7920696e2061207370656369616c206576656e742e000000000000606082015250565b600061a079607a83618bc4565b915061a08482619fd1565b608082019050919050565b6000602082019050818103600083015261a0a88161a06c565b9050919050565b7f4e487b7100000000000000000000000000000000000000000000000000000000600052601260045260246000fd5b600061a0e982618c6b565b915061a0f483618c6b565b92508261a1045761a10361a0af565b5b828206905092915050565b600061a11a82618c6b565b915061a12583618c6b565b92508261a1355761a13461a0af565b5b828204905092915050565b600082905092915050565b61a155838361a140565b67ffffffffffffffff81111561a16e5761a16d619891565b5b61a17882546196df565b61a1838282856199d5565b6000601f83116001811461a1b2576000841561a1a0578287013590505b61a1aa8582619a46565b86555061a212565b601f19841661a1c0866198c0565b60005b8281101561a1e85784890135825560018201915060208501945060208101905061a1c3565b8683101561a205578489013561a201601f891682619a28565b8355505b6001600288020188555050505b50505050505050565b82818337600083830152505050565b600061a2368385618bc4565b935061a24383858461a21b565b61a24c83618bff565b840190509392505050565b6000602082019050818103600083015261a27281848661a22a565b90509392505050565b600061a28682618c6b565b915061a29183618c6b565b925082820261a29f81618c6b565b9150828204841483151761a2b65761a2b561977c565b5b5092915050565b7f506c656173652066696e69736820746865206576656e74206265666f7265207360008201527f7461727420616e6f74686572206f6e652e000000000000000000000000000000602082015250565b600061a319603183618bc4565b915061a3248261a2bd565b604082019050919050565b6000602082019050818103600083015261a3488161a30c565b9050919050565b7f4f776e61626c653a206e6577206f776e657220697320746865207a65726f206160008201527f6464726573730000000000000000000000000000000000000000000000000000602082015250565b600061a3ab602683618bc4565b915061a3b68261a34f565b604082019050919050565b6000602082019050818103600083015261a3da8161a39e565b9050919050565b7f426c61636b6c6973746564000000000000000000000000000000000000000000600082015250565b600061a417600b83618bc4565b915061a4228261a3e1565b602082019050919050565b6000602082019050818103600083015261a4468161a40a565b9050919050565b7f5472616e7366657220616d6f756e74206d75737420626520677265617465722060008201527f7468616e207a65726f0000000000000000000000000000000000000000000000602082015250565b600061a4a9602983618bc4565b915061a4b48261a44d565b604082019050919050565b6000602082019050818103600083015261a4d88161a49c565b9050919050565b7f506c6561736520757365206120676f6f64206164647265737300000000000000600082015250565b600061a515601983618bc4565b915061a5208261a4df565b602082019050919050565b6000602082019050818103600083015261a5448161a508565b9050919050565b7f62797061737320656e61626c6554726164696e67000000000000000000000000600082015250565b600061a581601483618bc4565b915061a58c8261a54b565b602082019050919050565b6000602082019050818103600083015261a5b08161a574565b9050919050565b600081905092915050565b7f54726164696e67206e6f7420656e61626c6564207965742c20706c656173652060008201527f776169742e2053656e6465723a20000000000000000000000000000000000000602082015250565b600061a61e602e8361a5b7565b915061a6298261a5c2565b602e82019050919050565b600061a63f82618bb9565b61a649818561a5b7565b935061a659818560208601618bd5565b80840191505092915050565b7f20526563697069656e743a200000000000000000000000000000000000000000600082015250565b600061a69b600c8361a5b7565b915061a6a68261a665565b600c82019050919050565b600061a6bc8261a611565b915061a6c8828561a634565b915061a6d38261a68e565b915061a6df828461a634565b91508190509392505050565b7f496e73756666696369656e74205265616c2042616c616e636500000000000000600082015250565b600061a721601983618bc4565b915061a72c8261a6eb565b602082019050919050565b6000602082019050818103600083015261a7508161a714565b9050919050565b7f4f776e61626c653a2063616c6c6572206973206e6f7420746865206f776e6572600082015250565b600061a78d602083618bc4565b915061a7988261a757565b602082019050919050565b6000602082019050818103600083015261a7bc8161a780565b9050919050565b60008151905061a7d281618dc5565b92915050565b60006020828403121561a7ee5761a7ed618dbb565b5b600061a7fc8482850161a7c3565b91505092915050565b6000819050919050565b600061a82a61a82561a8208461a805565b61933e565b618c6b565b9050919050565b61a83a8161a80f565b82525050565b600060a08201905061a8556000830188618c75565b61a862602083018761a831565b818103604083015261a8748186618d31565b905061a8836060830185618eed565b61a8906080830184618c75565b9695505050505050565b600061a8a582618f86565b915061a8b083618f86565b925082820390506fffffffffffffffffffffffffffffffff81111561a8d85761a8d761977c565b5b92915050565b6000819050919050565b600061a90361a8fe61a8f98461a8de565b61933e565b618c6b565b9050919050565b61a9138161a8e8565b82525050565b600060408201905061a92e600083018561a90a565b818103602083015261a9408184618d31565b90509392505050565b61a95282618bff565b810181811067ffffffffffffffff8211171561a9715761a970619891565b5b80604052505050565b600061a984618db1565b905061a990828261a949565b919050565b600067ffffffffffffffff82111561a9b05761a9af619891565b5b602082029050602081019050919050565b60008151905061a9d081618e1e565b92915050565b600061a9e961a9e48461a995565b61a97a565b9050808382526020820190506020840283018581111561aa0c5761aa0b619095565b5b835b8181101561aa35578061aa21888261a9c1565b84526020840193505060208101905061aa0e565b5050509392505050565b600082601f83011261aa545761aa5361908b565b5b815161aa6484826020860161a9d6565b91505092915050565b60006020828403121561aa835761aa82618dbb565b5b600082015167ffffffffffffffff81111561aaa15761aaa0618dc0565b5b61aaad8482850161aa3f565b91505092915050565b600060408201905061aacb6000830185618c75565b61aad86020830184618c75565b939250505056fea2646970667358221220eac51bb221ee924646d895e129b8819d76fb7ac98a31b569b016bc58a36ac00064736f6c63430008130033",
  "linkReferences": {},
  "deployedLinkReferences": {}
}