{
  "_format": "hh-sol-artifact-1",
  "contractName": "GamblingGame",
  "sourceName": "contracts/GamblingGameFlat.sol",
  "abi": [
    {
      "inputs": [
        {
          "internalType": "address",
          "name": "_token",
          "type": "address"
        }
      ],
      "stateMutability": "nonpayable",
      "type": "constructor"
    },
    {
      "anonymous": false,
      "inputs": [
        {
          "indexed": true,
          "internalType": "address",
          "name": "previousOwner",
          "type": "address"
        },
        {
          "indexed": true,
          "internalType": "address",
          "name": "newOwner",
          "type": "address"
        }
      ],
      "name": "OwnershipTransferred",
      "type": "event"
    },
    {
      "inputs": [
        {
          "internalType": "uint256",
          "name": "_bet",
          "type": "uint256"
        }
      ],
      "name": "bet",
      "outputs": [],
      "stateMutability": "nonpayable",
      "type": "function"
    },
    {
      "inputs": [],
      "name": "claimPrize",
      "outputs": [],
      "stateMutability": "nonpayable",
      "type": "function"
    },
    {
      "inputs": [],
      "name": "gameWalletCallerAddress",
      "outputs": [
        {
          "internalType": "address",
          "name": "",
          "type": "address"
        }
      ],
      "stateMutability": "view",
      "type": "function"
    },
    {
      "inputs": [],
      "name": "getLastBetters",
      "outputs": [
        {
          "internalType": "address[]",
          "name": "",
          "type": "address[]"
        }
      ],
      "stateMutability": "view",
      "type": "function"
    },
    {
      "inputs": [],
      "name": "getPlayers",
      "outputs": [
        {
          "internalType": "address[]",
          "name": "",
          "type": "address[]"
        }
      ],
      "stateMutability": "view",
      "type": "function"
    },
    {
      "inputs": [
        {
          "internalType": "address",
          "name": "_participant",
          "type": "address"
        }
      ],
      "name": "incrementTotalClaimable",
      "outputs": [],
      "stateMutability": "nonpayable",
      "type": "function"
    },
    {
      "inputs": [
        {
          "internalType": "uint256",
          "name": "",
          "type": "uint256"
        }
      ],
      "name": "lastBetters",
      "outputs": [
        {
          "internalType": "address",
          "name": "",
          "type": "address"
        }
      ],
      "stateMutability": "view",
      "type": "function"
    },
    {
      "inputs": [],
      "name": "minimumBet",
      "outputs": [
        {
          "internalType": "uint256",
          "name": "",
          "type": "uint256"
        }
      ],
      "stateMutability": "view",
      "type": "function"
    },
    {
      "inputs": [],
      "name": "multiplier",
      "outputs": [
        {
          "internalType": "uint256",
          "name": "",
          "type": "uint256"
        }
      ],
      "stateMutability": "view",
      "type": "function"
    },
    {
      "inputs": [],
      "name": "numberOfBets",
      "outputs": [
        {
          "internalType": "uint256",
          "name": "",
          "type": "uint256"
        }
      ],
      "stateMutability": "view",
      "type": "function"
    },
    {
      "inputs": [],
      "name": "owner",
      "outputs": [
        {
          "internalType": "address",
          "name": "",
          "type": "address"
        }
      ],
      "stateMutability": "view",
      "type": "function"
    },
    {
      "inputs": [
        {
          "internalType": "address",
          "name": "",
          "type": "address"
        }
      ],
      "name": "playerCurrentBet",
      "outputs": [
        {
          "internalType": "uint256",
          "name": "",
          "type": "uint256"
        }
      ],
      "stateMutability": "view",
      "type": "function"
    },
    {
      "inputs": [
        {
          "internalType": "address",
          "name": "",
          "type": "address"
        }
      ],
      "name": "playerTotalBets",
      "outputs": [
        {
          "internalType": "uint256",
          "name": "",
          "type": "uint256"
        }
      ],
      "stateMutability": "view",
      "type": "function"
    },
    {
      "inputs": [
        {
          "internalType": "address",
          "name": "",
          "type": "address"
        }
      ],
      "name": "playerTotalClaimable",
      "outputs": [
        {
          "internalType": "uint256",
          "name": "",
          "type": "uint256"
        }
      ],
      "stateMutability": "view",
      "type": "function"
    },
    {
      "inputs": [
        {
          "internalType": "uint256",
          "name": "",
          "type": "uint256"
        }
      ],
      "name": "players",
      "outputs": [
        {
          "internalType": "address",
          "name": "",
          "type": "address"
        }
      ],
      "stateMutability": "view",
      "type": "function"
    },
    {
      "inputs": [],
      "name": "renounceOwnership",
      "outputs": [],
      "stateMutability": "nonpayable",
      "type": "function"
    },
    {
      "inputs": [
        {
          "internalType": "address",
          "name": "_gameWalletCallerAddress",
          "type": "address"
        }
      ],
      "name": "setGameWalletCallerAddress",
      "outputs": [],
      "stateMutability": "nonpayable",
      "type": "function"
    },
    {
      "inputs": [
        {
          "internalType": "uint256",
          "name": "_minimumBet",
          "type": "uint256"
        }
      ],
      "name": "setMinimumBet",
      "outputs": [],
      "stateMutability": "nonpayable",
      "type": "function"
    },
    {
      "inputs": [
        {
          "internalType": "uint256",
          "name": "_multiplier",
          "type": "uint256"
        }
      ],
      "name": "setMultiplier",
      "outputs": [],
      "stateMutability": "nonpayable",
      "type": "function"
    },
    {
      "inputs": [],
      "name": "token",
      "outputs": [
        {
          "internalType": "contract IERC20",
          "name": "",
          "type": "address"
        }
      ],
      "stateMutability": "view",
      "type": "function"
    },
    {
      "inputs": [],
      "name": "totalBet",
      "outputs": [
        {
          "internalType": "uint256",
          "name": "",
          "type": "uint256"
        }
      ],
      "stateMutability": "view",
      "type": "function"
    },
    {
      "inputs": [
        {
          "internalType": "address",
          "name": "newOwner",
          "type": "address"
        }
      ],
      "name": "transferOwnership",
      "outputs": [],
      "stateMutability": "nonpayable",
      "type": "function"
    },
    {
      "inputs": [],
      "name": "withdraw",
      "outputs": [],
      "stateMutability": "nonpayable",
      "type": "function"
    },
    {
      "inputs": [
        {
          "internalType": "uint256",
          "name": "_amount",
          "type": "uint256"
        }
      ],
      "name": "withdrawAmount",
      "outputs": [],
      "stateMutability": "nonpayable",
      "type": "function"
    }
  ],
  "bytecode": "0x6080604052600280553480156200001557600080fd5b50604051620020bf380380620020bf83398181016040528101906200003b9190620001e9565b6200005b6200004f620000b360201b60201c565b620000bb60201b60201c565b68056bc75e2d6310000060018190555080600560006101000a81548173ffffffffffffffffffffffffffffffffffffffff021916908373ffffffffffffffffffffffffffffffffffffffff160217905550506200021b565b600033905090565b60008060009054906101000a900473ffffffffffffffffffffffffffffffffffffffff169050816000806101000a81548173ffffffffffffffffffffffffffffffffffffffff021916908373ffffffffffffffffffffffffffffffffffffffff1602179055508173ffffffffffffffffffffffffffffffffffffffff168173ffffffffffffffffffffffffffffffffffffffff167f8be0079c531659141344cd1fd0a4f28419497f9722a3daafe3b4186f6b6457e060405160405180910390a35050565b600080fd5b600073ffffffffffffffffffffffffffffffffffffffff82169050919050565b6000620001b18262000184565b9050919050565b620001c381620001a4565b8114620001cf57600080fd5b50565b600081519050620001e381620001b8565b92915050565b6000602082840312156200020257620002016200017f565b5b60006200021284828501620001d2565b91505092915050565b611e94806200022b6000396000f3fe608060405234801561001057600080fd5b50600436106101585760003560e01c80638772ae3c116100c3578063c38a8afd1161007c578063c38a8afd14610379578063f22deb9a14610397578063f2fde38b146103b5578063f71d96cb146103d1578063fc0c546a14610401578063fe5e18531461041f57610158565b80638772ae3c146102b75780638b5b9ccc146102d35780638da5cb5b146102f15780638df319491461030f578063af121ac01461032b578063be5968f61461035b57610158565b80633d2a17d2116101155780633d2a17d21461021f5780634ebc4dfa1461024f578063641579a61461026b57806370740ac914610287578063715018a6146102915780637365870b1461029b57610158565b80630562b9f71461015d5780630772e76c146101795780631936fd43146101a95780631b3ed722146101d95780632ca8c6d3146101f75780633ccfd60b14610215575b600080fd5b61017760048036038101906101729190611566565b61043d565b005b610193600480360381019061018e91906115f1565b610534565b6040516101a0919061162d565b60405180910390f35b6101c360048036038101906101be91906115f1565b61054c565b6040516101d0919061162d565b60405180910390f35b6101e1610564565b6040516101ee919061162d565b60405180910390f35b6101ff61056a565b60405161020c919061162d565b60405180910390f35b61021d610570565b005b61023960048036038101906102349190611566565b610701565b6040516102469190611657565b60405180910390f35b610269600480360381019061026491906115f1565b610740565b005b61028560048036038101906102809190611566565b6108f7565b005b61028f610909565b005b610299610af6565b005b6102b560048036038101906102b09190611566565b610b0a565b005b6102d160048036038101906102cc9190611566565b61110c565b005b6102db61111e565b6040516102e89190611730565b60405180910390f35b6102f96111ac565b6040516103069190611657565b60405180910390f35b610329600480360381019061032491906115f1565b6111d5565b005b610345600480360381019061034091906115f1565b611221565b604051610352919061162d565b60405180910390f35b610363611239565b6040516103709190611657565b60405180910390f35b61038161125f565b60405161038e919061162d565b60405180910390f35b61039f611265565b6040516103ac9190611730565b60405180910390f35b6103cf60048036038101906103ca91906115f1565b6112f3565b005b6103eb60048036038101906103e69190611566565b611376565b6040516103f89190611657565b60405180910390f35b6104096113b5565b60405161041691906117b1565b60405180910390f35b6104276113db565b604051610434919061162d565b60405180910390f35b6104456113e1565b6000600560009054906101000a900473ffffffffffffffffffffffffffffffffffffffff1673ffffffffffffffffffffffffffffffffffffffff1663a9059cbb61048d6111ac565b846040518363ffffffff1660e01b81526004016104ab9291906117cc565b6020604051808303816000875af11580156104ca573d6000803e3d6000fd5b505050506040513d601f19601f820116820180604052508101906104ee919061182d565b905080610530576040517f08c379a0000000000000000000000000000000000000000000000000000000008152600401610527906118b7565b60405180910390fd5b5050565b600a6020528060005260406000206000915090505481565b60096020528060005260406000206000915090505481565b60025481565b60045481565b6105786113e1565b6000600560009054906101000a900473ffffffffffffffffffffffffffffffffffffffff1673ffffffffffffffffffffffffffffffffffffffff1663a9059cbb6105c06111ac565b600560009054906101000a900473ffffffffffffffffffffffffffffffffffffffff1673ffffffffffffffffffffffffffffffffffffffff166370a08231306040518263ffffffff1660e01b815260040161061b9190611657565b602060405180830381865afa158015610638573d6000803e3d6000fd5b505050506040513d601f19601f8201168201806040525081019061065c91906118ec565b6040518363ffffffff1660e01b81526004016106799291906117cc565b6020604051808303816000875af1158015610698573d6000803e3d6000fd5b505050506040513d601f19601f820116820180604052508101906106bc919061182d565b9050806106fe576040517f08c379a00000000000000000000000000000000000000000000000000000000081526004016106f5906118b7565b60405180910390fd5b50565b6008818154811061071157600080fd5b906000526020600020016000915054906101000a900473ffffffffffffffffffffffffffffffffffffffff1681565b6107486111ac565b73ffffffffffffffffffffffffffffffffffffffff163373ffffffffffffffffffffffffffffffffffffffff1614806107ce5750600660009054906101000a900473ffffffffffffffffffffffffffffffffffffffff1673ffffffffffffffffffffffffffffffffffffffff163373ffffffffffffffffffffffffffffffffffffffff16145b61080d576040517f08c379a000000000000000000000000000000000000000000000000000000000815260040161080490611965565b60405180910390fd5b600254600a60008373ffffffffffffffffffffffffffffffffffffffff1673ffffffffffffffffffffffffffffffffffffffff1681526020019081526020016000205461085a91906119b4565b600b60008373ffffffffffffffffffffffffffffffffffffffff1673ffffffffffffffffffffffffffffffffffffffff16815260200190815260200160002060008282546108a891906119f6565b925050819055506000600a60008373ffffffffffffffffffffffffffffffffffffffff1673ffffffffffffffffffffffffffffffffffffffff1681526020019081526020016000208190555050565b6108ff6113e1565b8060028190555050565b6000600b60003373ffffffffffffffffffffffffffffffffffffffff1673ffffffffffffffffffffffffffffffffffffffff168152602001908152602001600020541161098b576040517f08c379a000000000000000000000000000000000000000000000000000000000815260040161098290611a76565b60405180910390fd5b6000600560009054906101000a900473ffffffffffffffffffffffffffffffffffffffff1673ffffffffffffffffffffffffffffffffffffffff1663a9059cbb33600b60003373ffffffffffffffffffffffffffffffffffffffff1673ffffffffffffffffffffffffffffffffffffffff168152602001908152602001600020546040518363ffffffff1660e01b8152600401610a299291906117cc565b6020604051808303816000875af1158015610a48573d6000803e3d6000fd5b505050506040513d601f19601f82011682018060405250810190610a6c919061182d565b905080610aae576040517f08c379a0000000000000000000000000000000000000000000000000000000008152600401610aa5906118b7565b60405180910390fd5b6000600b60003373ffffffffffffffffffffffffffffffffffffffff1673ffffffffffffffffffffffffffffffffffffffff1681526020019081526020016000208190555050565b610afe6113e1565b610b08600061145f565b565b60008111610b4d576040517f08c379a0000000000000000000000000000000000000000000000000000000008152600401610b4490611ae2565b60405180910390fd5b600154811015610b92576040517f08c379a0000000000000000000000000000000000000000000000000000000008152600401610b8990611b74565b60405180910390fd5b6000600560009054906101000a900473ffffffffffffffffffffffffffffffffffffffff1673ffffffffffffffffffffffffffffffffffffffff1663dd62ed3e33306040518363ffffffff1660e01b8152600401610bf1929190611b94565b602060405180830381865afa158015610c0e573d6000803e3d6000fd5b505050506040513d601f19601f82011682018060405250810190610c3291906118ec565b905081811015610c77576040517f08c379a0000000000000000000000000000000000000000000000000000000008152600401610c6e90611c2f565b60405180910390fd5b6000600560009054906101000a900473ffffffffffffffffffffffffffffffffffffffff1673ffffffffffffffffffffffffffffffffffffffff166323b872dd3330866040518463ffffffff1660e01b8152600401610cd893929190611c4f565b6020604051808303816000875af1158015610cf7573d6000803e3d6000fd5b505050506040513d601f19601f82011682018060405250810190610d1b919061182d565b905080610d5d576040517f08c379a0000000000000000000000000000000000000000000000000000000008152600401610d54906118b7565b60405180910390fd5b82600a60003373ffffffffffffffffffffffffffffffffffffffff1673ffffffffffffffffffffffffffffffffffffffff1681526020019081526020016000208190555082600960003373ffffffffffffffffffffffffffffffffffffffff1673ffffffffffffffffffffffffffffffffffffffff1681526020019081526020016000206000828254610df091906119f6565b925050819055508260036000828254610e0991906119f6565b9250508190555060046000815480929190610e2390611c86565b91905055506008339080600181540180825580915050600190039060005260206000200160009091909190916101000a81548173ffffffffffffffffffffffffffffffffffffffff021916908373ffffffffffffffffffffffffffffffffffffffff16021790555060146008805490501115610ffa576008600081548110610eae57610ead611cce565b5b9060005260206000200160006101000a81549073ffffffffffffffffffffffffffffffffffffffff021916905560005b6001600880549050610ef09190611cfd565b811015610fb1576008600182610f0691906119f6565b81548110610f1757610f16611cce565b5b9060005260206000200160009054906101000a900473ffffffffffffffffffffffffffffffffffffffff1660088281548110610f5657610f55611cce565b5b9060005260206000200160006101000a81548173ffffffffffffffffffffffffffffffffffffffff021916908373ffffffffffffffffffffffffffffffffffffffff1602179055508080610fa990611c86565b915050610ede565b506008805480610fc457610fc3611d31565b5b6001900381819060005260206000200160006101000a81549073ffffffffffffffffffffffffffffffffffffffff021916905590555b600c60003373ffffffffffffffffffffffffffffffffffffffff1673ffffffffffffffffffffffffffffffffffffffff16815260200190815260200160002060009054906101000a900460ff16611107576001600c60003373ffffffffffffffffffffffffffffffffffffffff1673ffffffffffffffffffffffffffffffffffffffff16815260200190815260200160002060006101000a81548160ff0219169083151502179055506007339080600181540180825580915050600190039060005260206000200160009091909190916101000a81548173ffffffffffffffffffffffffffffffffffffffff021916908373ffffffffffffffffffffffffffffffffffffffff1602179055505b505050565b6111146113e1565b8060018190555050565b606060078054806020026020016040519081016040528092919081815260200182805480156111a257602002820191906000526020600020905b8160009054906101000a900473ffffffffffffffffffffffffffffffffffffffff1673ffffffffffffffffffffffffffffffffffffffff1681526020019060010190808311611158575b5050505050905090565b60008060009054906101000a900473ffffffffffffffffffffffffffffffffffffffff16905090565b6111dd6113e1565b80600660006101000a81548173ffffffffffffffffffffffffffffffffffffffff021916908373ffffffffffffffffffffffffffffffffffffffff16021790555050565b600b6020528060005260406000206000915090505481565b600660009054906101000a900473ffffffffffffffffffffffffffffffffffffffff1681565b60015481565b606060088054806020026020016040519081016040528092919081815260200182805480156112e957602002820191906000526020600020905b8160009054906101000a900473ffffffffffffffffffffffffffffffffffffffff1673ffffffffffffffffffffffffffffffffffffffff168152602001906001019080831161129f575b5050505050905090565b6112fb6113e1565b600073ffffffffffffffffffffffffffffffffffffffff168173ffffffffffffffffffffffffffffffffffffffff160361136a576040517f08c379a000000000000000000000000000000000000000000000000000000000815260040161136190611dd2565b60405180910390fd5b6113738161145f565b50565b6007818154811061138657600080fd5b906000526020600020016000915054906101000a900473ffffffffffffffffffffffffffffffffffffffff1681565b600560009054906101000a900473ffffffffffffffffffffffffffffffffffffffff1681565b60035481565b6113e9611523565b73ffffffffffffffffffffffffffffffffffffffff166114076111ac565b73ffffffffffffffffffffffffffffffffffffffff161461145d576040517f08c379a000000000000000000000000000000000000000000000000000000000815260040161145490611e3e565b60405180910390fd5b565b60008060009054906101000a900473ffffffffffffffffffffffffffffffffffffffff169050816000806101000a81548173ffffffffffffffffffffffffffffffffffffffff021916908373ffffffffffffffffffffffffffffffffffffffff1602179055508173ffffffffffffffffffffffffffffffffffffffff168173ffffffffffffffffffffffffffffffffffffffff167f8be0079c531659141344cd1fd0a4f28419497f9722a3daafe3b4186f6b6457e060405160405180910390a35050565b600033905090565b600080fd5b6000819050919050565b61154381611530565b811461154e57600080fd5b50565b6000813590506115608161153a565b92915050565b60006020828403121561157c5761157b61152b565b5b600061158a84828501611551565b91505092915050565b600073ffffffffffffffffffffffffffffffffffffffff82169050919050565b60006115be82611593565b9050919050565b6115ce816115b3565b81146115d957600080fd5b50565b6000813590506115eb816115c5565b92915050565b6000602082840312156116075761160661152b565b5b6000611615848285016115dc565b91505092915050565b61162781611530565b82525050565b6000602082019050611642600083018461161e565b92915050565b611651816115b3565b82525050565b600060208201905061166c6000830184611648565b92915050565b600081519050919050565b600082825260208201905092915050565b6000819050602082019050919050565b6116a7816115b3565b82525050565b60006116b9838361169e565b60208301905092915050565b6000602082019050919050565b60006116dd82611672565b6116e7818561167d565b93506116f28361168e565b8060005b8381101561172357815161170a88826116ad565b9750611715836116c5565b9250506001810190506116f6565b5085935050505092915050565b6000602082019050818103600083015261174a81846116d2565b905092915050565b6000819050919050565b600061177761177261176d84611593565b611752565b611593565b9050919050565b60006117898261175c565b9050919050565b600061179b8261177e565b9050919050565b6117ab81611790565b82525050565b60006020820190506117c660008301846117a2565b92915050565b60006040820190506117e16000830185611648565b6117ee602083018461161e565b9392505050565b60008115159050919050565b61180a816117f5565b811461181557600080fd5b50565b60008151905061182781611801565b92915050565b6000602082840312156118435761184261152b565b5b600061185184828501611818565b91505092915050565b600082825260208201905092915050565b7f546f6b656e207472616e73666572206661696c65640000000000000000000000600082015250565b60006118a160158361185a565b91506118ac8261186b565b602082019050919050565b600060208201905081810360008301526118d081611894565b9050919050565b6000815190506118e68161153a565b92915050565b6000602082840312156119025761190161152b565b5b6000611910848285016118d7565b91505092915050565b7f466f7262696464656e0000000000000000000000000000000000000000000000600082015250565b600061194f60098361185a565b915061195a82611919565b602082019050919050565b6000602082019050818103600083015261197e81611942565b9050919050565b7f4e487b7100000000000000000000000000000000000000000000000000000000600052601160045260246000fd5b60006119bf82611530565b91506119ca83611530565b92508282026119d881611530565b915082820484148315176119ef576119ee611985565b5b5092915050565b6000611a0182611530565b9150611a0c83611530565b9250828201905080821115611a2457611a23611985565b5b92915050565b7f4e6f7468696e6720746f20636c61696d00000000000000000000000000000000600082015250565b6000611a6060108361185a565b9150611a6b82611a2a565b602082019050919050565b60006020820190508181036000830152611a8f81611a53565b9050919050565b7f416d6f756e74206d7573742062652067726561746572207468616e2030000000600082015250565b6000611acc601d8361185a565b9150611ad782611a96565b602082019050919050565b60006020820190508181036000830152611afb81611abf565b9050919050565b7f416d6f756e74206d7573742062652067726561746572207468616e207468652060008201527f6d696e696d756d20626574000000000000000000000000000000000000000000602082015250565b6000611b5e602b8361185a565b9150611b6982611b02565b604082019050919050565b60006020820190508181036000830152611b8d81611b51565b9050919050565b6000604082019050611ba96000830185611648565b611bb66020830184611648565b9392505050565b7f596f75206e65656420746f20617070726f76652074686520746f6b656e20747260008201527f616e736665722066697273740000000000000000000000000000000000000000602082015250565b6000611c19602c8361185a565b9150611c2482611bbd565b604082019050919050565b60006020820190508181036000830152611c4881611c0c565b9050919050565b6000606082019050611c646000830186611648565b611c716020830185611648565b611c7e604083018461161e565b949350505050565b6000611c9182611530565b91507fffffffffffffffffffffffffffffffffffffffffffffffffffffffffffffffff8203611cc357611cc2611985565b5b600182019050919050565b7f4e487b7100000000000000000000000000000000000000000000000000000000600052603260045260246000fd5b6000611d0882611530565b9150611d1383611530565b9250828203905081811115611d2b57611d2a611985565b5b92915050565b7f4e487b7100000000000000000000000000000000000000000000000000000000600052603160045260246000fd5b7f4f776e61626c653a206e6577206f776e657220697320746865207a65726f206160008201527f6464726573730000000000000000000000000000000000000000000000000000602082015250565b6000611dbc60268361185a565b9150611dc782611d60565b604082019050919050565b60006020820190508181036000830152611deb81611daf565b9050919050565b7f4f776e61626c653a2063616c6c6572206973206e6f7420746865206f776e6572600082015250565b6000611e2860208361185a565b9150611e3382611df2565b602082019050919050565b60006020820190508181036000830152611e5781611e1b565b905091905056fea2646970667358221220a1744a8d3ffd07dfd689feecb271da88a860de4c1f1755eb9f13dbea135313d264736f6c63430008130033",
  "linkReferences": {},
  "deployedLinkReferences": {}
}