{
  "_format": "hh-sol-artifact-1",
  "contractName": "GamblingGame",
  "sourceName": "contracts/GamblingGame.sol",
  "abi": [
    {
      "inputs": [
        {
          "internalType": "address",
          "name": "_token",
          "type": "address"
        }
      ],
      "stateMutability": "nonpayable",
      "type": "constructor"
    },
    {
      "anonymous": false,
      "inputs": [
        {
          "indexed": true,
          "internalType": "address",
          "name": "previousOwner",
          "type": "address"
        },
        {
          "indexed": true,
          "internalType": "address",
          "name": "newOwner",
          "type": "address"
        }
      ],
      "name": "OwnershipTransferred",
      "type": "event"
    },
    {
      "inputs": [
        {
          "internalType": "uint256",
          "name": "_bet",
          "type": "uint256"
        }
      ],
      "name": "bet",
      "outputs": [],
      "stateMutability": "nonpayable",
      "type": "function"
    },
    {
      "inputs": [],
      "name": "claimPrize",
      "outputs": [],
      "stateMutability": "nonpayable",
      "type": "function"
    },
    {
      "inputs": [
        {
          "internalType": "address",
          "name": "_participant",
          "type": "address"
        }
      ],
      "name": "gameLost",
      "outputs": [],
      "stateMutability": "nonpayable",
      "type": "function"
    },
    {
      "inputs": [],
      "name": "gameWalletCallerAddress",
      "outputs": [
        {
          "internalType": "address",
          "name": "",
          "type": "address"
        }
      ],
      "stateMutability": "view",
      "type": "function"
    },
    {
      "inputs": [],
      "name": "getLastBetters",
      "outputs": [
        {
          "internalType": "address[]",
          "name": "",
          "type": "address[]"
        }
      ],
      "stateMutability": "view",
      "type": "function"
    },
    {
      "inputs": [],
      "name": "getPlayers",
      "outputs": [
        {
          "internalType": "address[]",
          "name": "",
          "type": "address[]"
        }
      ],
      "stateMutability": "view",
      "type": "function"
    },
    {
      "inputs": [
        {
          "internalType": "address",
          "name": "_participant",
          "type": "address"
        }
      ],
      "name": "incrementTotalClaimable",
      "outputs": [],
      "stateMutability": "nonpayable",
      "type": "function"
    },
    {
      "inputs": [
        {
          "internalType": "uint256",
          "name": "",
          "type": "uint256"
        }
      ],
      "name": "lastBetters",
      "outputs": [
        {
          "internalType": "address",
          "name": "",
          "type": "address"
        }
      ],
      "stateMutability": "view",
      "type": "function"
    },
    {
      "inputs": [],
      "name": "minimumBet",
      "outputs": [
        {
          "internalType": "uint256",
          "name": "",
          "type": "uint256"
        }
      ],
      "stateMutability": "view",
      "type": "function"
    },
    {
      "inputs": [],
      "name": "multiplier",
      "outputs": [
        {
          "internalType": "uint256",
          "name": "",
          "type": "uint256"
        }
      ],
      "stateMutability": "view",
      "type": "function"
    },
    {
      "inputs": [],
      "name": "numberOfBets",
      "outputs": [
        {
          "internalType": "uint256",
          "name": "",
          "type": "uint256"
        }
      ],
      "stateMutability": "view",
      "type": "function"
    },
    {
      "inputs": [],
      "name": "owner",
      "outputs": [
        {
          "internalType": "address",
          "name": "",
          "type": "address"
        }
      ],
      "stateMutability": "view",
      "type": "function"
    },
    {
      "inputs": [
        {
          "internalType": "address",
          "name": "",
          "type": "address"
        }
      ],
      "name": "playerCurrentBet",
      "outputs": [
        {
          "internalType": "uint256",
          "name": "",
          "type": "uint256"
        }
      ],
      "stateMutability": "view",
      "type": "function"
    },
    {
      "inputs": [
        {
          "internalType": "address",
          "name": "",
          "type": "address"
        }
      ],
      "name": "playerTotalBets",
      "outputs": [
        {
          "internalType": "uint256",
          "name": "",
          "type": "uint256"
        }
      ],
      "stateMutability": "view",
      "type": "function"
    },
    {
      "inputs": [
        {
          "internalType": "address",
          "name": "",
          "type": "address"
        }
      ],
      "name": "playerTotalClaimable",
      "outputs": [
        {
          "internalType": "uint256",
          "name": "",
          "type": "uint256"
        }
      ],
      "stateMutability": "view",
      "type": "function"
    },
    {
      "inputs": [
        {
          "internalType": "uint256",
          "name": "",
          "type": "uint256"
        }
      ],
      "name": "players",
      "outputs": [
        {
          "internalType": "address",
          "name": "",
          "type": "address"
        }
      ],
      "stateMutability": "view",
      "type": "function"
    },
    {
      "inputs": [],
      "name": "renounceOwnership",
      "outputs": [],
      "stateMutability": "nonpayable",
      "type": "function"
    },
    {
      "inputs": [
        {
          "internalType": "address",
          "name": "_gameWalletCallerAddress",
          "type": "address"
        }
      ],
      "name": "setGameWalletCallerAddress",
      "outputs": [],
      "stateMutability": "nonpayable",
      "type": "function"
    },
    {
      "inputs": [
        {
          "internalType": "uint256",
          "name": "_minimumBet",
          "type": "uint256"
        }
      ],
      "name": "setMinimumBet",
      "outputs": [],
      "stateMutability": "nonpayable",
      "type": "function"
    },
    {
      "inputs": [
        {
          "internalType": "uint256",
          "name": "_multiplier",
          "type": "uint256"
        }
      ],
      "name": "setMultiplier",
      "outputs": [],
      "stateMutability": "nonpayable",
      "type": "function"
    },
    {
      "inputs": [],
      "name": "token",
      "outputs": [
        {
          "internalType": "contract IERC20",
          "name": "",
          "type": "address"
        }
      ],
      "stateMutability": "view",
      "type": "function"
    },
    {
      "inputs": [],
      "name": "totalBet",
      "outputs": [
        {
          "internalType": "uint256",
          "name": "",
          "type": "uint256"
        }
      ],
      "stateMutability": "view",
      "type": "function"
    },
    {
      "inputs": [
        {
          "internalType": "address",
          "name": "newOwner",
          "type": "address"
        }
      ],
      "name": "transferOwnership",
      "outputs": [],
      "stateMutability": "nonpayable",
      "type": "function"
    },
    {
      "inputs": [],
      "name": "withdraw",
      "outputs": [],
      "stateMutability": "nonpayable",
      "type": "function"
    },
    {
      "inputs": [
        {
          "internalType": "uint256",
          "name": "_amount",
          "type": "uint256"
        }
      ],
      "name": "withdrawAmount",
      "outputs": [],
      "stateMutability": "nonpayable",
      "type": "function"
    }
  ],
  "bytecode": "0x6080604052600280553480156200001557600080fd5b506040516200220b3803806200220b83398181016040528101906200003b9190620001e9565b6200005b6200004f620000b360201b60201c565b620000bb60201b60201c565b68056bc75e2d6310000060018190555080600560006101000a81548173ffffffffffffffffffffffffffffffffffffffff021916908373ffffffffffffffffffffffffffffffffffffffff160217905550506200021b565b600033905090565b60008060009054906101000a900473ffffffffffffffffffffffffffffffffffffffff169050816000806101000a81548173ffffffffffffffffffffffffffffffffffffffff021916908373ffffffffffffffffffffffffffffffffffffffff1602179055508173ffffffffffffffffffffffffffffffffffffffff168173ffffffffffffffffffffffffffffffffffffffff167f8be0079c531659141344cd1fd0a4f28419497f9722a3daafe3b4186f6b6457e060405160405180910390a35050565b600080fd5b600073ffffffffffffffffffffffffffffffffffffffff82169050919050565b6000620001b18262000184565b9050919050565b620001c381620001a4565b8114620001cf57600080fd5b50565b600081519050620001e381620001b8565b92915050565b6000602082840312156200020257620002016200017f565b5b60006200021284828501620001d2565b91505092915050565b611fe0806200022b6000396000f3fe608060405234801561001057600080fd5b50600436106101735760003560e01c80637365870b116100de578063be5968f611610097578063f2fde38b11610071578063f2fde38b146103ec578063f71d96cb14610408578063fc0c546a14610438578063fe5e18531461045657610173565b8063be5968f614610392578063c38a8afd146103b0578063f22deb9a146103ce57610173565b80637365870b146102d25780638772ae3c146102ee5780638b5b9ccc1461030a5780638da5cb5b146103285780638df3194914610346578063af121ac01461036257610173565b80633d2a17d2116101305780633d2a17d21461023a5780634ebc4dfa1461026a5780634f5ae9d314610286578063641579a6146102a257806370740ac9146102be578063715018a6146102c857610173565b80630562b9f7146101785780630772e76c146101945780631936fd43146101c45780631b3ed722146101f45780632ca8c6d3146102125780633ccfd60b14610230575b600080fd5b610192600480360381019061018d91906116b2565b610474565b005b6101ae60048036038101906101a9919061173d565b61056b565b6040516101bb9190611779565b60405180910390f35b6101de60048036038101906101d9919061173d565b610583565b6040516101eb9190611779565b60405180910390f35b6101fc61059b565b6040516102099190611779565b60405180910390f35b61021a6105a1565b6040516102279190611779565b60405180910390f35b6102386105a7565b005b610254600480360381019061024f91906116b2565b610738565b60405161026191906117a3565b60405180910390f35b610284600480360381019061027f919061173d565b610777565b005b6102a0600480360381019061029b919061173d565b61092e565b005b6102bc60048036038101906102b791906116b2565b610a43565b005b6102c6610a55565b005b6102d0610c42565b005b6102ec60048036038101906102e791906116b2565b610c56565b005b610308600480360381019061030391906116b2565b611258565b005b61031261126a565b60405161031f919061187c565b60405180910390f35b6103306112f8565b60405161033d91906117a3565b60405180910390f35b610360600480360381019061035b919061173d565b611321565b005b61037c6004803603810190610377919061173d565b61136d565b6040516103899190611779565b60405180910390f35b61039a611385565b6040516103a791906117a3565b60405180910390f35b6103b86113ab565b6040516103c59190611779565b60405180910390f35b6103d66113b1565b6040516103e3919061187c565b60405180910390f35b6104066004803603810190610401919061173d565b61143f565b005b610422600480360381019061041d91906116b2565b6114c2565b60405161042f91906117a3565b60405180910390f35b610440611501565b60405161044d91906118fd565b60405180910390f35b61045e611527565b60405161046b9190611779565b60405180910390f35b61047c61152d565b6000600560009054906101000a900473ffffffffffffffffffffffffffffffffffffffff1673ffffffffffffffffffffffffffffffffffffffff1663a9059cbb6104c46112f8565b846040518363ffffffff1660e01b81526004016104e2929190611918565b6020604051808303816000875af1158015610501573d6000803e3d6000fd5b505050506040513d601f19601f820116820180604052508101906105259190611979565b905080610567576040517f08c379a000000000000000000000000000000000000000000000000000000000815260040161055e90611a03565b60405180910390fd5b5050565b600a6020528060005260406000206000915090505481565b60096020528060005260406000206000915090505481565b60025481565b60045481565b6105af61152d565b6000600560009054906101000a900473ffffffffffffffffffffffffffffffffffffffff1673ffffffffffffffffffffffffffffffffffffffff1663a9059cbb6105f76112f8565b600560009054906101000a900473ffffffffffffffffffffffffffffffffffffffff1673ffffffffffffffffffffffffffffffffffffffff166370a08231306040518263ffffffff1660e01b815260040161065291906117a3565b602060405180830381865afa15801561066f573d6000803e3d6000fd5b505050506040513d601f19601f820116820180604052508101906106939190611a38565b6040518363ffffffff1660e01b81526004016106b0929190611918565b6020604051808303816000875af11580156106cf573d6000803e3d6000fd5b505050506040513d601f19601f820116820180604052508101906106f39190611979565b905080610735576040517f08c379a000000000000000000000000000000000000000000000000000000000815260040161072c90611a03565b60405180910390fd5b50565b6008818154811061074857600080fd5b906000526020600020016000915054906101000a900473ffffffffffffffffffffffffffffffffffffffff1681565b61077f6112f8565b73ffffffffffffffffffffffffffffffffffffffff163373ffffffffffffffffffffffffffffffffffffffff1614806108055750600660009054906101000a900473ffffffffffffffffffffffffffffffffffffffff1673ffffffffffffffffffffffffffffffffffffffff163373ffffffffffffffffffffffffffffffffffffffff16145b610844576040517f08c379a000000000000000000000000000000000000000000000000000000000815260040161083b90611ab1565b60405180910390fd5b600254600a60008373ffffffffffffffffffffffffffffffffffffffff1673ffffffffffffffffffffffffffffffffffffffff168152602001908152602001600020546108919190611b00565b600b60008373ffffffffffffffffffffffffffffffffffffffff1673ffffffffffffffffffffffffffffffffffffffff16815260200190815260200160002060008282546108df9190611b42565b925050819055506000600a60008373ffffffffffffffffffffffffffffffffffffffff1673ffffffffffffffffffffffffffffffffffffffff1681526020019081526020016000208190555050565b6109366112f8565b73ffffffffffffffffffffffffffffffffffffffff163373ffffffffffffffffffffffffffffffffffffffff1614806109bc5750600660009054906101000a900473ffffffffffffffffffffffffffffffffffffffff1673ffffffffffffffffffffffffffffffffffffffff163373ffffffffffffffffffffffffffffffffffffffff16145b6109fb576040517f08c379a00000000000000000000000000000000000000000000000000000000081526004016109f290611ab1565b60405180910390fd5b6000600a60008373ffffffffffffffffffffffffffffffffffffffff1673ffffffffffffffffffffffffffffffffffffffff1681526020019081526020016000208190555050565b610a4b61152d565b8060028190555050565b6000600b60003373ffffffffffffffffffffffffffffffffffffffff1673ffffffffffffffffffffffffffffffffffffffff1681526020019081526020016000205411610ad7576040517f08c379a0000000000000000000000000000000000000000000000000000000008152600401610ace90611bc2565b60405180910390fd5b6000600560009054906101000a900473ffffffffffffffffffffffffffffffffffffffff1673ffffffffffffffffffffffffffffffffffffffff1663a9059cbb33600b60003373ffffffffffffffffffffffffffffffffffffffff1673ffffffffffffffffffffffffffffffffffffffff168152602001908152602001600020546040518363ffffffff1660e01b8152600401610b75929190611918565b6020604051808303816000875af1158015610b94573d6000803e3d6000fd5b505050506040513d601f19601f82011682018060405250810190610bb89190611979565b905080610bfa576040517f08c379a0000000000000000000000000000000000000000000000000000000008152600401610bf190611a03565b60405180910390fd5b6000600b60003373ffffffffffffffffffffffffffffffffffffffff1673ffffffffffffffffffffffffffffffffffffffff1681526020019081526020016000208190555050565b610c4a61152d565b610c5460006115ab565b565b60008111610c99576040517f08c379a0000000000000000000000000000000000000000000000000000000008152600401610c9090611c2e565b60405180910390fd5b600154811015610cde576040517f08c379a0000000000000000000000000000000000000000000000000000000008152600401610cd590611cc0565b60405180910390fd5b6000600560009054906101000a900473ffffffffffffffffffffffffffffffffffffffff1673ffffffffffffffffffffffffffffffffffffffff1663dd62ed3e33306040518363ffffffff1660e01b8152600401610d3d929190611ce0565b602060405180830381865afa158015610d5a573d6000803e3d6000fd5b505050506040513d601f19601f82011682018060405250810190610d7e9190611a38565b905081811015610dc3576040517f08c379a0000000000000000000000000000000000000000000000000000000008152600401610dba90611d7b565b60405180910390fd5b6000600560009054906101000a900473ffffffffffffffffffffffffffffffffffffffff1673ffffffffffffffffffffffffffffffffffffffff166323b872dd3330866040518463ffffffff1660e01b8152600401610e2493929190611d9b565b6020604051808303816000875af1158015610e43573d6000803e3d6000fd5b505050506040513d601f19601f82011682018060405250810190610e679190611979565b905080610ea9576040517f08c379a0000000000000000000000000000000000000000000000000000000008152600401610ea090611a03565b60405180910390fd5b82600a60003373ffffffffffffffffffffffffffffffffffffffff1673ffffffffffffffffffffffffffffffffffffffff1681526020019081526020016000208190555082600960003373ffffffffffffffffffffffffffffffffffffffff1673ffffffffffffffffffffffffffffffffffffffff1681526020019081526020016000206000828254610f3c9190611b42565b925050819055508260036000828254610f559190611b42565b9250508190555060046000815480929190610f6f90611dd2565b91905055506008339080600181540180825580915050600190039060005260206000200160009091909190916101000a81548173ffffffffffffffffffffffffffffffffffffffff021916908373ffffffffffffffffffffffffffffffffffffffff16021790555060146008805490501115611146576008600081548110610ffa57610ff9611e1a565b5b9060005260206000200160006101000a81549073ffffffffffffffffffffffffffffffffffffffff021916905560005b600160088054905061103c9190611e49565b8110156110fd5760086001826110529190611b42565b8154811061106357611062611e1a565b5b9060005260206000200160009054906101000a900473ffffffffffffffffffffffffffffffffffffffff16600882815481106110a2576110a1611e1a565b5b9060005260206000200160006101000a81548173ffffffffffffffffffffffffffffffffffffffff021916908373ffffffffffffffffffffffffffffffffffffffff16021790555080806110f590611dd2565b91505061102a565b5060088054806111105761110f611e7d565b5b6001900381819060005260206000200160006101000a81549073ffffffffffffffffffffffffffffffffffffffff021916905590555b600c60003373ffffffffffffffffffffffffffffffffffffffff1673ffffffffffffffffffffffffffffffffffffffff16815260200190815260200160002060009054906101000a900460ff16611253576001600c60003373ffffffffffffffffffffffffffffffffffffffff1673ffffffffffffffffffffffffffffffffffffffff16815260200190815260200160002060006101000a81548160ff0219169083151502179055506007339080600181540180825580915050600190039060005260206000200160009091909190916101000a81548173ffffffffffffffffffffffffffffffffffffffff021916908373ffffffffffffffffffffffffffffffffffffffff1602179055505b505050565b61126061152d565b8060018190555050565b606060078054806020026020016040519081016040528092919081815260200182805480156112ee57602002820191906000526020600020905b8160009054906101000a900473ffffffffffffffffffffffffffffffffffffffff1673ffffffffffffffffffffffffffffffffffffffff16815260200190600101908083116112a4575b5050505050905090565b60008060009054906101000a900473ffffffffffffffffffffffffffffffffffffffff16905090565b61132961152d565b80600660006101000a81548173ffffffffffffffffffffffffffffffffffffffff021916908373ffffffffffffffffffffffffffffffffffffffff16021790555050565b600b6020528060005260406000206000915090505481565b600660009054906101000a900473ffffffffffffffffffffffffffffffffffffffff1681565b60015481565b6060600880548060200260200160405190810160405280929190818152602001828054801561143557602002820191906000526020600020905b8160009054906101000a900473ffffffffffffffffffffffffffffffffffffffff1673ffffffffffffffffffffffffffffffffffffffff16815260200190600101908083116113eb575b5050505050905090565b61144761152d565b600073ffffffffffffffffffffffffffffffffffffffff168173ffffffffffffffffffffffffffffffffffffffff16036114b6576040517f08c379a00000000000000000000000000000000000000000000000000000000081526004016114ad90611f1e565b60405180910390fd5b6114bf816115ab565b50565b600781815481106114d257600080fd5b906000526020600020016000915054906101000a900473ffffffffffffffffffffffffffffffffffffffff1681565b600560009054906101000a900473ffffffffffffffffffffffffffffffffffffffff1681565b60035481565b61153561166f565b73ffffffffffffffffffffffffffffffffffffffff166115536112f8565b73ffffffffffffffffffffffffffffffffffffffff16146115a9576040517f08c379a00000000000000000000000000000000000000000000000000000000081526004016115a090611f8a565b60405180910390fd5b565b60008060009054906101000a900473ffffffffffffffffffffffffffffffffffffffff169050816000806101000a81548173ffffffffffffffffffffffffffffffffffffffff021916908373ffffffffffffffffffffffffffffffffffffffff1602179055508173ffffffffffffffffffffffffffffffffffffffff168173ffffffffffffffffffffffffffffffffffffffff167f8be0079c531659141344cd1fd0a4f28419497f9722a3daafe3b4186f6b6457e060405160405180910390a35050565b600033905090565b600080fd5b6000819050919050565b61168f8161167c565b811461169a57600080fd5b50565b6000813590506116ac81611686565b92915050565b6000602082840312156116c8576116c7611677565b5b60006116d68482850161169d565b91505092915050565b600073ffffffffffffffffffffffffffffffffffffffff82169050919050565b600061170a826116df565b9050919050565b61171a816116ff565b811461172557600080fd5b50565b60008135905061173781611711565b92915050565b60006020828403121561175357611752611677565b5b600061176184828501611728565b91505092915050565b6117738161167c565b82525050565b600060208201905061178e600083018461176a565b92915050565b61179d816116ff565b82525050565b60006020820190506117b86000830184611794565b92915050565b600081519050919050565b600082825260208201905092915050565b6000819050602082019050919050565b6117f3816116ff565b82525050565b600061180583836117ea565b60208301905092915050565b6000602082019050919050565b6000611829826117be565b61183381856117c9565b935061183e836117da565b8060005b8381101561186f57815161185688826117f9565b975061186183611811565b925050600181019050611842565b5085935050505092915050565b60006020820190508181036000830152611896818461181e565b905092915050565b6000819050919050565b60006118c36118be6118b9846116df565b61189e565b6116df565b9050919050565b60006118d5826118a8565b9050919050565b60006118e7826118ca565b9050919050565b6118f7816118dc565b82525050565b600060208201905061191260008301846118ee565b92915050565b600060408201905061192d6000830185611794565b61193a602083018461176a565b9392505050565b60008115159050919050565b61195681611941565b811461196157600080fd5b50565b6000815190506119738161194d565b92915050565b60006020828403121561198f5761198e611677565b5b600061199d84828501611964565b91505092915050565b600082825260208201905092915050565b7f546f6b656e207472616e73666572206661696c65640000000000000000000000600082015250565b60006119ed6015836119a6565b91506119f8826119b7565b602082019050919050565b60006020820190508181036000830152611a1c816119e0565b9050919050565b600081519050611a3281611686565b92915050565b600060208284031215611a4e57611a4d611677565b5b6000611a5c84828501611a23565b91505092915050565b7f466f7262696464656e0000000000000000000000000000000000000000000000600082015250565b6000611a9b6009836119a6565b9150611aa682611a65565b602082019050919050565b60006020820190508181036000830152611aca81611a8e565b9050919050565b7f4e487b7100000000000000000000000000000000000000000000000000000000600052601160045260246000fd5b6000611b0b8261167c565b9150611b168361167c565b9250828202611b248161167c565b91508282048414831517611b3b57611b3a611ad1565b5b5092915050565b6000611b4d8261167c565b9150611b588361167c565b9250828201905080821115611b7057611b6f611ad1565b5b92915050565b7f4e6f7468696e6720746f20636c61696d00000000000000000000000000000000600082015250565b6000611bac6010836119a6565b9150611bb782611b76565b602082019050919050565b60006020820190508181036000830152611bdb81611b9f565b9050919050565b7f416d6f756e74206d7573742062652067726561746572207468616e2030000000600082015250565b6000611c18601d836119a6565b9150611c2382611be2565b602082019050919050565b60006020820190508181036000830152611c4781611c0b565b9050919050565b7f416d6f756e74206d7573742062652067726561746572207468616e207468652060008201527f6d696e696d756d20626574000000000000000000000000000000000000000000602082015250565b6000611caa602b836119a6565b9150611cb582611c4e565b604082019050919050565b60006020820190508181036000830152611cd981611c9d565b9050919050565b6000604082019050611cf56000830185611794565b611d026020830184611794565b9392505050565b7f596f75206e65656420746f20617070726f76652074686520746f6b656e20747260008201527f616e736665722066697273740000000000000000000000000000000000000000602082015250565b6000611d65602c836119a6565b9150611d7082611d09565b604082019050919050565b60006020820190508181036000830152611d9481611d58565b9050919050565b6000606082019050611db06000830186611794565b611dbd6020830185611794565b611dca604083018461176a565b949350505050565b6000611ddd8261167c565b91507fffffffffffffffffffffffffffffffffffffffffffffffffffffffffffffffff8203611e0f57611e0e611ad1565b5b600182019050919050565b7f4e487b7100000000000000000000000000000000000000000000000000000000600052603260045260246000fd5b6000611e548261167c565b9150611e5f8361167c565b9250828203905081811115611e7757611e76611ad1565b5b92915050565b7f4e487b7100000000000000000000000000000000000000000000000000000000600052603160045260246000fd5b7f4f776e61626c653a206e6577206f776e657220697320746865207a65726f206160008201527f6464726573730000000000000000000000000000000000000000000000000000602082015250565b6000611f086026836119a6565b9150611f1382611eac565b604082019050919050565b60006020820190508181036000830152611f3781611efb565b9050919050565b7f4f776e61626c653a2063616c6c6572206973206e6f7420746865206f776e6572600082015250565b6000611f746020836119a6565b9150611f7f82611f3e565b602082019050919050565b60006020820190508181036000830152611fa381611f67565b905091905056fea264697066735822122041b69b8767e0b3bd0384cc83936133615e13fcc542f1fa6b3e1ee54a6c0eda5964736f6c63430008130033",
  "linkReferences": {},
  "deployedLinkReferences": {}
}