{
  "_format": "hh-sol-artifact-1",
  "contractName": "BubblesPresale",
  "sourceName": "contracts/Presale.sol",
  "abi": [
    {
      "inputs": [],
      "stateMutability": "nonpayable",
      "type": "constructor"
    },
    {
      "anonymous": false,
      "inputs": [
        {
          "indexed": true,
          "internalType": "address",
          "name": "previousOwner",
          "type": "address"
        },
        {
          "indexed": true,
          "internalType": "address",
          "name": "newOwner",
          "type": "address"
        }
      ],
      "name": "OwnershipTransferred",
      "type": "event"
    },
    {
      "inputs": [
        {
          "internalType": "address[]",
          "name": "_beneficiaries",
          "type": "address[]"
        }
      ],
      "name": "addManyToWhitelist",
      "outputs": [],
      "stateMutability": "nonpayable",
      "type": "function"
    },
    {
      "inputs": [
        {
          "internalType": "address",
          "name": "_beneficiary",
          "type": "address"
        }
      ],
      "name": "addToWhitelist",
      "outputs": [],
      "stateMutability": "nonpayable",
      "type": "function"
    },
    {
      "inputs": [],
      "name": "buyTokens",
      "outputs": [],
      "stateMutability": "payable",
      "type": "function"
    },
    {
      "inputs": [],
      "name": "endTime",
      "outputs": [
        {
          "internalType": "uint256",
          "name": "",
          "type": "uint256"
        }
      ],
      "stateMutability": "view",
      "type": "function"
    },
    {
      "inputs": [],
      "name": "getAllTransactions",
      "outputs": [
        {
          "components": [
            {
              "internalType": "address",
              "name": "addressParticipant",
              "type": "address"
            },
            {
              "internalType": "uint256",
              "name": "amountEth",
              "type": "uint256"
            },
            {
              "internalType": "uint256",
              "name": "timestampBuy",
              "type": "uint256"
            }
          ],
          "internalType": "struct BubblesPresale.TransactionHistory[]",
          "name": "",
          "type": "tuple[]"
        }
      ],
      "stateMutability": "view",
      "type": "function"
    },
    {
      "inputs": [
        {
          "internalType": "address",
          "name": "_participant",
          "type": "address"
        }
      ],
      "name": "getDepositParticipant",
      "outputs": [
        {
          "internalType": "uint256",
          "name": "",
          "type": "uint256"
        }
      ],
      "stateMutability": "view",
      "type": "function"
    },
    {
      "inputs": [],
      "name": "getEndTime",
      "outputs": [
        {
          "internalType": "uint256",
          "name": "",
          "type": "uint256"
        }
      ],
      "stateMutability": "view",
      "type": "function"
    },
    {
      "inputs": [],
      "name": "getParticipants",
      "outputs": [
        {
          "internalType": "address[]",
          "name": "",
          "type": "address[]"
        },
        {
          "internalType": "uint256[]",
          "name": "",
          "type": "uint256[]"
        }
      ],
      "stateMutability": "view",
      "type": "function"
    },
    {
      "inputs": [],
      "name": "getStartTime",
      "outputs": [
        {
          "internalType": "uint256",
          "name": "",
          "type": "uint256"
        }
      ],
      "stateMutability": "view",
      "type": "function"
    },
    {
      "inputs": [
        {
          "internalType": "address",
          "name": "_participant",
          "type": "address"
        }
      ],
      "name": "getTokensParticipant",
      "outputs": [
        {
          "internalType": "uint256",
          "name": "",
          "type": "uint256"
        }
      ],
      "stateMutability": "view",
      "type": "function"
    },
    {
      "inputs": [],
      "name": "owner",
      "outputs": [
        {
          "internalType": "address",
          "name": "",
          "type": "address"
        }
      ],
      "stateMutability": "view",
      "type": "function"
    },
    {
      "inputs": [
        {
          "internalType": "uint256",
          "name": "",
          "type": "uint256"
        }
      ],
      "name": "participants",
      "outputs": [
        {
          "internalType": "address",
          "name": "",
          "type": "address"
        }
      ],
      "stateMutability": "view",
      "type": "function"
    },
    {
      "inputs": [],
      "name": "presaleMax",
      "outputs": [
        {
          "internalType": "uint256",
          "name": "",
          "type": "uint256"
        }
      ],
      "stateMutability": "view",
      "type": "function"
    },
    {
      "inputs": [],
      "name": "presalePrice",
      "outputs": [
        {
          "internalType": "uint256",
          "name": "",
          "type": "uint256"
        }
      ],
      "stateMutability": "view",
      "type": "function"
    },
    {
      "inputs": [
        {
          "internalType": "address",
          "name": "_beneficiary",
          "type": "address"
        }
      ],
      "name": "removeFromWhitelist",
      "outputs": [],
      "stateMutability": "nonpayable",
      "type": "function"
    },
    {
      "inputs": [],
      "name": "renounceOwnership",
      "outputs": [],
      "stateMutability": "nonpayable",
      "type": "function"
    },
    {
      "inputs": [
        {
          "internalType": "uint256",
          "name": "_max",
          "type": "uint256"
        }
      ],
      "name": "setMax",
      "outputs": [],
      "stateMutability": "nonpayable",
      "type": "function"
    },
    {
      "inputs": [],
      "name": "startPresale",
      "outputs": [],
      "stateMutability": "nonpayable",
      "type": "function"
    },
    {
      "inputs": [],
      "name": "startTime",
      "outputs": [
        {
          "internalType": "uint256",
          "name": "",
          "type": "uint256"
        }
      ],
      "stateMutability": "view",
      "type": "function"
    },
    {
      "inputs": [],
      "name": "totalPurchased",
      "outputs": [
        {
          "internalType": "uint256",
          "name": "",
          "type": "uint256"
        }
      ],
      "stateMutability": "view",
      "type": "function"
    },
    {
      "inputs": [
        {
          "internalType": "address",
          "name": "newOwner",
          "type": "address"
        }
      ],
      "name": "transferOwnership",
      "outputs": [],
      "stateMutability": "nonpayable",
      "type": "function"
    },
    {
      "inputs": [
        {
          "internalType": "address",
          "name": "",
          "type": "address"
        }
      ],
      "name": "whitelist",
      "outputs": [
        {
          "internalType": "bool",
          "name": "",
          "type": "bool"
        }
      ],
      "stateMutability": "view",
      "type": "function"
    },
    {
      "inputs": [],
      "name": "withdrawFunds",
      "outputs": [],
      "stateMutability": "nonpayable",
      "type": "function"
    }
  ],
  "bytecode": "0x60a06040526220b28960809081525060006003556768155a43676e000060045534801561002b57600080fd5b5061004861003d61004d60201b60201c565b61005560201b60201c565b610119565b600033905090565b60008060009054906101000a900473ffffffffffffffffffffffffffffffffffffffff169050816000806101000a81548173ffffffffffffffffffffffffffffffffffffffff021916908373ffffffffffffffffffffffffffffffffffffffff1602179055508173ffffffffffffffffffffffffffffffffffffffff168173ffffffffffffffffffffffffffffffffffffffff167f8be0079c531659141344cd1fd0a4f28419497f9722a3daafe3b4186f6b6457e060405160405180910390a35050565b608051611c3061013b600039600081816105050152610ea60152611c306000f3fe60806040526004361061013f5760003560e01c806378e97925116100b6578063c828371e1161006f578063c828371e14610426578063d0febe4c14610451578063e43252d71461045b578063e632c2f314610484578063f2fde38b146104af578063f34acb7c146104d85761013f565b806378e97925146103045780638ab1d6811461032f5780638c10671c146103585780638da5cb5b146103815780639b19251a146103ac578063b03f642a146103e95761013f565b80633197cbb6116101085780633197cbb6146101f1578063354a54b41461021c57806335c1d34914610259578063439f5ac2146102965780635aa68ac0146102c1578063715018a6146102ed5761013f565b80620e7fa81461014457806304c98b2b1461016f5780631fe9eabc1461018657806324600fc3146101af57806327506f53146101c6575b600080fd5b34801561015057600080fd5b50610159610503565b6040516101669190611237565b60405180910390f35b34801561017b57600080fd5b50610184610527565b005b34801561019257600080fd5b506101ad60048036038101906101a89190611288565b61054c565b005b3480156101bb57600080fd5b506101c461055e565b005b3480156101d257600080fd5b506101db6105ff565b6040516101e891906113f6565b60405180910390f35b3480156101fd57600080fd5b506102066106d0565b6040516102139190611237565b60405180910390f35b34801561022857600080fd5b50610243600480360381019061023e9190611444565b6106d6565b6040516102509190611237565b60405180910390f35b34801561026557600080fd5b50610280600480360381019061027b9190611288565b61071f565b60405161028d9190611480565b60405180910390f35b3480156102a257600080fd5b506102ab61075e565b6040516102b89190611237565b60405180910390f35b3480156102cd57600080fd5b506102d6610768565b6040516102e49291906115f9565b60405180910390f35b3480156102f957600080fd5b5061030261091b565b005b34801561031057600080fd5b5061031961092f565b6040516103269190611237565b60405180910390f35b34801561033b57600080fd5b5061035660048036038101906103519190611444565b610935565b005b34801561036457600080fd5b5061037f600480360381019061037a9190611695565b610998565b005b34801561038d57600080fd5b50610396610a45565b6040516103a39190611480565b60405180910390f35b3480156103b857600080fd5b506103d360048036038101906103ce9190611444565b610a6e565b6040516103e091906116fd565b60405180910390f35b3480156103f557600080fd5b50610410600480360381019061040b9190611444565b610a8e565b60405161041d9190611237565b60405180910390f35b34801561043257600080fd5b5061043b610ad7565b6040516104489190611237565b60405180910390f35b610459610ae1565b005b34801561046757600080fd5b50610482600480360381019061047d9190611444565b610fe2565b005b34801561049057600080fd5b50610499611045565b6040516104a69190611237565b60405180910390f35b3480156104bb57600080fd5b506104d660048036038101906104d19190611444565b61104b565b005b3480156104e457600080fd5b506104ed6110ce565b6040516104fa9190611237565b60405180910390f35b7f000000000000000000000000000000000000000000000000000000000000000081565b61052f6110d4565b42600181905550610e10426105449190611747565b600281905550565b6105546110d4565b8060048190555050565b6105666110d4565b6000479050600081116105ae576040517f08c379a00000000000000000000000000000000000000000000000000000000081526004016105a5906117d8565b60405180910390fd5b6105b6610a45565b73ffffffffffffffffffffffffffffffffffffffff166108fc829081150290604051600060405180830381858888f193505050501580156105fb573d6000803e3d6000fd5b5050565b60606106096110d4565b6009805480602002602001604051908101604052809291908181526020016000905b828210156106c757838290600052602060002090600302016040518060600160405290816000820160009054906101000a900473ffffffffffffffffffffffffffffffffffffffff1673ffffffffffffffffffffffffffffffffffffffff1673ffffffffffffffffffffffffffffffffffffffff168152602001600182015481526020016002820154815250508152602001906001019061062b565b50505050905090565b60025481565b6000600760008373ffffffffffffffffffffffffffffffffffffffff1673ffffffffffffffffffffffffffffffffffffffff168152602001908152602001600020549050919050565b600a818154811061072f57600080fd5b906000526020600020016000915054906101000a900473ffffffffffffffffffffffffffffffffffffffff1681565b6000600254905090565b6060806107736110d4565b6000600a80549050905060008167ffffffffffffffff811115610799576107986117f8565b5b6040519080825280602002602001820160405280156107c75781602001602082028036833780820191505090505b50905060005b828110156108855760066000600a83815481106107ed576107ec611827565b5b9060005260206000200160009054906101000a900473ffffffffffffffffffffffffffffffffffffffff1673ffffffffffffffffffffffffffffffffffffffff1673ffffffffffffffffffffffffffffffffffffffff1681526020019081526020016000205482828151811061086657610865611827565b5b602002602001018181525050808061087d90611856565b9150506107cd565b50600a818180548060200260200160405190810160405280929190818152602001828054801561090a57602002820191906000526020600020905b8160009054906101000a900473ffffffffffffffffffffffffffffffffffffffff1673ffffffffffffffffffffffffffffffffffffffff16815260200190600101908083116108c0575b505050505091509350935050509091565b6109236110d4565b61092d6000611152565b565b60015481565b61093d6110d4565b6000600860008373ffffffffffffffffffffffffffffffffffffffff1673ffffffffffffffffffffffffffffffffffffffff16815260200190815260200160002060006101000a81548160ff02191690831515021790555050565b6109a06110d4565b60005b82829050811015610a40576001600860008585858181106109c7576109c6611827565b5b90506020020160208101906109dc9190611444565b73ffffffffffffffffffffffffffffffffffffffff1673ffffffffffffffffffffffffffffffffffffffff16815260200190815260200160002060006101000a81548160ff0219169083151502179055508080610a3890611856565b9150506109a3565b505050565b60008060009054906101000a900473ffffffffffffffffffffffffffffffffffffffff16905090565b60086020528060005260406000206000915054906101000a900460ff1681565b6000600660008373ffffffffffffffffffffffffffffffffffffffff1673ffffffffffffffffffffffffffffffffffffffff168152602001908152602001600020549050919050565b6000600154905090565b33600860008273ffffffffffffffffffffffffffffffffffffffff1673ffffffffffffffffffffffffffffffffffffffff16815260200190815260200160002060009054906101000a900460ff16610b6e576040517f08c379a0000000000000000000000000000000000000000000000000000000008152600401610b65906118ea565b60405180910390fd5b6001544210158015610b8257506002544211155b8015610b9057506000600154115b8015610b9e57506000600254115b610bdd576040517f08c379a0000000000000000000000000000000000000000000000000000000008152600401610bd490611956565b60405180910390fd5b67016345785d8a00003410158015610bfd57506702c68af0bb1400003411155b610c3c576040517f08c379a0000000000000000000000000000000000000000000000000000000008152600401610c33906119c2565b60405180910390fd5b6702c68af0bb14000034600760003373ffffffffffffffffffffffffffffffffffffffff1673ffffffffffffffffffffffffffffffffffffffff16815260200190815260200160002054610c909190611747565b1115610cd1576040517f08c379a0000000000000000000000000000000000000000000000000000000008152600401610cc890611a2e565b60405180910390fd5b60045434600354610ce29190611747565b1115610d23576040517f08c379a0000000000000000000000000000000000000000000000000000000008152600401610d1a90611a9a565b60405180910390fd5b600560003373ffffffffffffffffffffffffffffffffffffffff1673ffffffffffffffffffffffffffffffffffffffff16815260200190815260200160002060009054906101000a900460ff16610e30576001600560003373ffffffffffffffffffffffffffffffffffffffff1673ffffffffffffffffffffffffffffffffffffffff16815260200190815260200160002060006101000a81548160ff021916908315150217905550600a339080600181540180825580915050600190039060005260206000200160009091909190916101000a81548173ffffffffffffffffffffffffffffffffffffffff021916908373ffffffffffffffffffffffffffffffffffffffff1602179055505b60003490508060036000828254610e479190611747565b9250508190555034600760003373ffffffffffffffffffffffffffffffffffffffff1673ffffffffffffffffffffffffffffffffffffffff1681526020019081526020016000206000828254610e9d9190611747565b925050819055507f000000000000000000000000000000000000000000000000000000000000000081610ed09190611aba565b600660003373ffffffffffffffffffffffffffffffffffffffff1673ffffffffffffffffffffffffffffffffffffffff1681526020019081526020016000206000828254610f1e9190611747565b92505081905550600960405180606001604052803373ffffffffffffffffffffffffffffffffffffffff16815260200134815260200142815250908060018154018082558091505060019003906000526020600020906003020160009091909190915060008201518160000160006101000a81548173ffffffffffffffffffffffffffffffffffffffff021916908373ffffffffffffffffffffffffffffffffffffffff160217905550602082015181600101556040820151816002015550505050565b610fea6110d4565b6001600860008373ffffffffffffffffffffffffffffffffffffffff1673ffffffffffffffffffffffffffffffffffffffff16815260200190815260200160002060006101000a81548160ff02191690831515021790555050565b60035481565b6110536110d4565b600073ffffffffffffffffffffffffffffffffffffffff168173ffffffffffffffffffffffffffffffffffffffff16036110c2576040517f08c379a00000000000000000000000000000000000000000000000000000000081526004016110b990611b6e565b60405180910390fd5b6110cb81611152565b50565b60045481565b6110dc611216565b73ffffffffffffffffffffffffffffffffffffffff166110fa610a45565b73ffffffffffffffffffffffffffffffffffffffff1614611150576040517f08c379a000000000000000000000000000000000000000000000000000000000815260040161114790611bda565b60405180910390fd5b565b60008060009054906101000a900473ffffffffffffffffffffffffffffffffffffffff169050816000806101000a81548173ffffffffffffffffffffffffffffffffffffffff021916908373ffffffffffffffffffffffffffffffffffffffff1602179055508173ffffffffffffffffffffffffffffffffffffffff168173ffffffffffffffffffffffffffffffffffffffff167f8be0079c531659141344cd1fd0a4f28419497f9722a3daafe3b4186f6b6457e060405160405180910390a35050565b600033905090565b6000819050919050565b6112318161121e565b82525050565b600060208201905061124c6000830184611228565b92915050565b600080fd5b600080fd5b6112658161121e565b811461127057600080fd5b50565b6000813590506112828161125c565b92915050565b60006020828403121561129e5761129d611252565b5b60006112ac84828501611273565b91505092915050565b600081519050919050565b600082825260208201905092915050565b6000819050602082019050919050565b600073ffffffffffffffffffffffffffffffffffffffff82169050919050565b600061130c826112e1565b9050919050565b61131c81611301565b82525050565b61132b8161121e565b82525050565b6060820160008201516113476000850182611313565b50602082015161135a6020850182611322565b50604082015161136d6040850182611322565b50505050565b600061137f8383611331565b60608301905092915050565b6000602082019050919050565b60006113a3826112b5565b6113ad81856112c0565b93506113b8836112d1565b8060005b838110156113e95781516113d08882611373565b97506113db8361138b565b9250506001810190506113bc565b5085935050505092915050565b600060208201905081810360008301526114108184611398565b905092915050565b61142181611301565b811461142c57600080fd5b50565b60008135905061143e81611418565b92915050565b60006020828403121561145a57611459611252565b5b60006114688482850161142f565b91505092915050565b61147a81611301565b82525050565b60006020820190506114956000830184611471565b92915050565b600081519050919050565b600082825260208201905092915050565b6000819050602082019050919050565b60006114d38383611313565b60208301905092915050565b6000602082019050919050565b60006114f78261149b565b61150181856114a6565b935061150c836114b7565b8060005b8381101561153d57815161152488826114c7565b975061152f836114df565b925050600181019050611510565b5085935050505092915050565b600081519050919050565b600082825260208201905092915050565b6000819050602082019050919050565b60006115828383611322565b60208301905092915050565b6000602082019050919050565b60006115a68261154a565b6115b08185611555565b93506115bb83611566565b8060005b838110156115ec5781516115d38882611576565b97506115de8361158e565b9250506001810190506115bf565b5085935050505092915050565b6000604082019050818103600083015261161381856114ec565b90508181036020830152611627818461159b565b90509392505050565b600080fd5b600080fd5b600080fd5b60008083601f84011261165557611654611630565b5b8235905067ffffffffffffffff81111561167257611671611635565b5b60208301915083602082028301111561168e5761168d61163a565b5b9250929050565b600080602083850312156116ac576116ab611252565b5b600083013567ffffffffffffffff8111156116ca576116c9611257565b5b6116d68582860161163f565b92509250509250929050565b60008115159050919050565b6116f7816116e2565b82525050565b600060208201905061171260008301846116ee565b92915050565b7f4e487b7100000000000000000000000000000000000000000000000000000000600052601160045260246000fd5b60006117528261121e565b915061175d8361121e565b925082820190508082111561177557611774611718565b5b92915050565b600082825260208201905092915050565b7f4e6f2066756e647320746f207769746864726177000000000000000000000000600082015250565b60006117c260148361177b565b91506117cd8261178c565b602082019050919050565b600060208201905081810360008301526117f1816117b5565b9050919050565b7f4e487b7100000000000000000000000000000000000000000000000000000000600052604160045260246000fd5b7f4e487b7100000000000000000000000000000000000000000000000000000000600052603260045260246000fd5b60006118618261121e565b91507fffffffffffffffffffffffffffffffffffffffffffffffffffffffffffffffff820361189357611892611718565b5b600182019050919050565b7f42656e6566696369617279206e6f742077686974656c69737465642e00000000600082015250565b60006118d4601c8361177b565b91506118df8261189e565b602082019050919050565b60006020820190508181036000830152611903816118c7565b9050919050565b7f50726573616c65206973206e6f74206f70656e00000000000000000000000000600082015250565b600061194060138361177b565b915061194b8261190a565b602082019050919050565b6000602082019050818103600083015261196f81611933565b9050919050565b7f496e76616c69642045544820616d6f756e740000000000000000000000000000600082015250565b60006119ac60128361177b565b91506119b782611976565b602082019050919050565b600060208201905081810360008301526119db8161199f565b9050919050565b7f596f752063616e6e6f7420627579206d6f7265207468616e20302e3220657468600082015250565b6000611a1860208361177b565b9150611a23826119e2565b602082019050919050565b60006020820190508181036000830152611a4781611a0b565b9050919050565b7f416d6f756e74206f766572206c696d6974000000000000000000000000000000600082015250565b6000611a8460118361177b565b9150611a8f82611a4e565b602082019050919050565b60006020820190508181036000830152611ab381611a77565b9050919050565b6000611ac58261121e565b9150611ad08361121e565b9250828202611ade8161121e565b91508282048414831517611af557611af4611718565b5b5092915050565b7f4f776e61626c653a206e6577206f776e657220697320746865207a65726f206160008201527f6464726573730000000000000000000000000000000000000000000000000000602082015250565b6000611b5860268361177b565b9150611b6382611afc565b604082019050919050565b60006020820190508181036000830152611b8781611b4b565b9050919050565b7f4f776e61626c653a2063616c6c6572206973206e6f7420746865206f776e6572600082015250565b6000611bc460208361177b565b9150611bcf82611b8e565b602082019050919050565b60006020820190508181036000830152611bf381611bb7565b905091905056fea2646970667358221220eff17afe5c04e9cd6986fd6720fd91323d44cbd9449957f3702236ca8ca3924964736f6c63430008130033",
  "linkReferences": {},
  "deployedLinkReferences": {}
}